{
  "contracts/VarenRouter.sol": {
    "VarenRouter": {
      "abi": [
        {
          "inputs": [
            {
              "internalType": "address",
              "name": "_router",
              "type": "address"
            },
            {
              "internalType": "address",
              "name": "_registry",
              "type": "address"
            },
            {
              "internalType": "address payable",
              "name": "_devWallet",
              "type": "address"
            }
          ],
          "stateMutability": "nonpayable",
          "type": "constructor"
        },
        {
          "anonymous": false,
          "inputs": [
            {
              "indexed": true,
              "internalType": "address",
              "name": "sender",
              "type": "address"
            },
            {
              "indexed": false,
              "internalType": "uint256",
              "name": "amount",
              "type": "uint256"
            }
          ],
          "name": "Burn",
          "type": "event"
        },
        {
          "anonymous": false,
          "inputs": [
            {
              "indexed": true,
              "internalType": "address",
              "name": "sender",
              "type": "address"
            },
            {
              "indexed": false,
              "internalType": "uint256",
              "name": "amount",
              "type": "uint256"
            }
          ],
          "name": "Mint",
          "type": "event"
        },
        {
          "anonymous": false,
          "inputs": [
            {
              "indexed": true,
              "internalType": "address",
              "name": "sender",
              "type": "address"
            },
            {
              "indexed": true,
              "internalType": "address",
              "name": "from",
              "type": "address"
            },
            {
              "indexed": true,
              "internalType": "address",
              "name": "to",
              "type": "address"
            },
            {
              "indexed": false,
              "internalType": "uint256",
              "name": "amount",
              "type": "uint256"
            }
          ],
          "name": "Swap",
          "type": "event"
        },
        {
          "inputs": [],
          "name": "ETH_REPRESENTING_ADDRESS",
          "outputs": [
            {
              "internalType": "address",
              "name": "",
              "type": "address"
            }
          ],
          "stateMutability": "view",
          "type": "function"
        },
        {
          "inputs": [],
          "name": "FEE",
          "outputs": [
            {
              "internalType": "uint256",
              "name": "",
              "type": "uint256"
            }
          ],
          "stateMutability": "view",
          "type": "function"
        },
        {
          "inputs": [],
          "name": "PERCENTAGE_DIVIDER",
          "outputs": [
            {
              "internalType": "uint256",
              "name": "",
              "type": "uint256"
            }
          ],
          "stateMutability": "view",
          "type": "function"
        },
        {
          "inputs": [
            {
              "internalType": "address",
              "name": "_token",
              "type": "address"
            }
          ],
          "name": "currentBalance",
          "outputs": [
            {
              "internalType": "uint256",
              "name": "balance",
              "type": "uint256"
            }
          ],
          "stateMutability": "view",
          "type": "function"
        },
        {
          "inputs": [],
          "name": "devWallet",
          "outputs": [
            {
              "internalType": "address payable",
              "name": "",
              "type": "address"
            }
          ],
          "stateMutability": "view",
          "type": "function"
        },
        {
          "inputs": [],
          "name": "registry",
          "outputs": [
            {
              "internalType": "contract IGatewayRegistry",
              "name": "",
              "type": "address"
            }
          ],
          "stateMutability": "view",
          "type": "function"
        },
        {
          "inputs": [],
          "name": "router",
          "outputs": [
            {
              "internalType": "address",
              "name": "",
              "type": "address"
            }
          ],
          "stateMutability": "view",
          "type": "function"
        },
        {
          "inputs": [
            {
              "internalType": "address",
              "name": "sender",
              "type": "address"
            },
            {
              "internalType": "address",
              "name": "mintToken",
              "type": "address"
            },
            {
              "internalType": "address",
              "name": "burnToken",
              "type": "address"
            },
            {
              "internalType": "uint256",
              "name": "burnAmount",
              "type": "uint256"
            },
            {
              "internalType": "bytes",
              "name": "burnSendTo",
              "type": "bytes"
            },
            {
              "components": [
                {
                  "internalType": "address",
                  "name": "srcToken",
                  "type": "address"
                },
                {
                  "internalType": "uint256",
                  "name": "srcAmount",
                  "type": "uint256"
                },
                {
                  "internalType": "address",
                  "name": "destToken",
                  "type": "address"
                },
                {
                  "internalType": "bytes",
                  "name": "data",
                  "type": "bytes"
                }
              ],
              "internalType": "struct VarenRouter.SwapVars",
              "name": "swapVars",
              "type": "tuple"
            },
            {
              "internalType": "uint256",
              "name": "_amount",
              "type": "uint256"
            },
            {
              "internalType": "bytes32",
              "name": "_nHash",
              "type": "bytes32"
            },
            {
              "internalType": "bytes",
              "name": "_sig",
              "type": "bytes"
            }
          ],
          "name": "swap",
          "outputs": [],
          "stateMutability": "payable",
          "type": "function"
        },
        {
          "stateMutability": "payable",
          "type": "receive"
        }
      ],
      "devdoc": {
        "kind": "dev",
        "methods": {},
        "version": 1
      },
      "evm": {
        "bytecode": {
          "linkReferences": {},
          "object": "608060405260326001553480156200001657600080fd5b50604051620026533803806200265383398181016040528101906200003c91906200013e565b600160008190555082600360006101000a81548173ffffffffffffffffffffffffffffffffffffffff021916908373ffffffffffffffffffffffffffffffffffffffff16021790555081600260006101000a81548173ffffffffffffffffffffffffffffffffffffffff021916908373ffffffffffffffffffffffffffffffffffffffff16021790555080600460006101000a81548173ffffffffffffffffffffffffffffffffffffffff021916908373ffffffffffffffffffffffffffffffffffffffff1602179055505050506200021b565b6000815190506200012181620001e7565b92915050565b600081519050620001388162000201565b92915050565b6000806000606084860312156200015a5762000159620001e2565b5b60006200016a8682870162000110565b93505060206200017d8682870162000110565b9250506040620001908682870162000127565b9150509250925092565b6000620001a782620001c2565b9050919050565b6000620001bb82620001c2565b9050919050565b600073ffffffffffffffffffffffffffffffffffffffff82169050919050565b600080fd5b620001f2816200019a565b8114620001fe57600080fd5b50565b6200020c81620001ae565b81146200021857600080fd5b50565b612428806200022b6000396000f3fe60806040526004361061007f5760003560e01c8063bb60aaa71161004e578063bb60aaa714610149578063c57981b514610174578063d4142b5f1461019f578063f887ea40146101bb57610086565b806306693fec1461008b5780637b103999146100b65780638ea5220f146100e15780639e546c381461010c57610086565b3661008657005b600080fd5b34801561009757600080fd5b506100a06101e6565b6040516100ad9190611b85565b60405180910390f35b3480156100c257600080fd5b506100cb6101fe565b6040516100d89190611ceb565b60405180910390f35b3480156100ed57600080fd5b506100f6610224565b6040516101039190611ba0565b60405180910390f35b34801561011857600080fd5b50610133600480360381019061012e9190611796565b61024a565b6040516101409190611de8565b60405180910390f35b34801561015557600080fd5b5061015e6102dc565b60405161016b9190611de8565b60405180910390f35b34801561018057600080fd5b506101896102e3565b6040516101969190611de8565b60405180910390f35b6101b960048036038101906101b491906117c3565b6102e9565b005b3480156101c757600080fd5b506101d0610602565b6040516101dd9190611b85565b60405180910390f35b73eeeeeeeeeeeeeeeeeeeeeeeeeeeeeeeeeeeeeeee81565b600260009054906101000a900473ffffffffffffffffffffffffffffffffffffffff1681565b600460009054906101000a900473ffffffffffffffffffffffffffffffffffffffff1681565b60008173ffffffffffffffffffffffffffffffffffffffff166370a08231306040518263ffffffff1660e01b81526004016102859190611b85565b60206040518083038186803b15801561029d57600080fd5b505afa1580156102b1573d6000803e3d6000fd5b505050506040513d601f19601f820116820180604052508101906102d59190611945565b9050919050565b620186a081565b60015481565b6002600054141561032f576040517f08c379a000000000000000000000000000000000000000000000000000000000815260040161032690611dc8565b60405180910390fd5b60026000819055508a73ffffffffffffffffffffffffffffffffffffffff163373ffffffffffffffffffffffffffffffffffffffff16146103a5576040517f08c379a000000000000000000000000000000000000000000000000000000000815260040161039c90611d48565b60405180910390fd5b8973ffffffffffffffffffffffffffffffffffffffff168973ffffffffffffffffffffffffffffffffffffffff1614158061040c5750600073ffffffffffffffffffffffffffffffffffffffff168a73ffffffffffffffffffffffffffffffffffffffff16145b61044b576040517f08c379a000000000000000000000000000000000000000000000000000000000815260040161044290611d68565b60405180910390fd5b610453611585565b600073ffffffffffffffffffffffffffffffffffffffff168b73ffffffffffffffffffffffffffffffffffffffff161461049f576104958b8d87878787610628565b8160000181815250505b60008680606001906104b19190611e03565b905011156104db576104d18b876104c79061206a565b83600001516108ee565b8160200181815250505b600073ffffffffffffffffffffffffffffffffffffffff168a73ffffffffffffffffffffffffffffffffffffffff1614156105325761052d8160200151876105229061206a565b83600001518e610d9e565b6105ec565b6105eb816020015160405180608001604052808c81526020018d73ffffffffffffffffffffffffffffffffffffffff1681526020018b8b8080601f016020809104026020016040519081016040528093929190818152602001838380828437600081840152601f19601f820116905080830192505050505050508152602001600073ffffffffffffffffffffffffffffffffffffffff168f73ffffffffffffffffffffffffffffffffffffffff16141515815250610e72565b5b5060016000819055505050505050505050505050565b600360009054906101000a900473ffffffffffffffffffffffffffffffffffffffff1681565b6000806106348861024a565b90506000876040516020016106499190611b85565b604051602081830303815290604052805190602001209050600260009054906101000a900473ffffffffffffffffffffffffffffffffffffffff1673ffffffffffffffffffffffffffffffffffffffff16631b95e3058a6040518263ffffffff1660e01b81526004016106bc9190611b85565b60206040518083038186803b1580156106d457600080fd5b505afa1580156106e8573d6000803e3d6000fd5b505050506040513d601f19601f8201168201806040525081019061070c9190611918565b73ffffffffffffffffffffffffffffffffffffffff1663159ab14d82898989896040518663ffffffff1660e01b815260040161074c959493929190611c6d565b602060405180830381600087803b15801561076657600080fd5b505af115801561077a573d6000803e3d6000fd5b505050506040513d601f19601f8201168201806040525081019061079e9190611945565b50816107a98a61024a565b6107b39190611f8a565b92506000620186a0600154856107c99190611f30565b6107d39190611eff565b905080846107e19190611f8a565b93508973ffffffffffffffffffffffffffffffffffffffff1663a9059cbb600460009054906101000a900473ffffffffffffffffffffffffffffffffffffffff16836040518363ffffffff1660e01b8152600401610840929190611bbb565b602060405180830381600087803b15801561085a57600080fd5b505af115801561086e573d6000803e3d6000fd5b505050506040513d601f19601f8201168201806040525081019061089291906118eb565b508873ffffffffffffffffffffffffffffffffffffffff167f0f6798a560793a54c3bcfe86a93cde1e73087d944c0ea20544137d4121396885856040516108d99190611de8565b60405180910390a25050509695505050505050565b60008073ffffffffffffffffffffffffffffffffffffffff168473ffffffffffffffffffffffffffffffffffffffff1614156109a65773eeeeeeeeeeeeeeeeeeeeeeeeeeeeeeeeeeeeeeee73ffffffffffffffffffffffffffffffffffffffff16836000015173ffffffffffffffffffffffffffffffffffffffff16146109a5576109a433308560200151866000015173ffffffffffffffffffffffffffffffffffffffff16611145909392919063ffffffff16565b5b5b600073eeeeeeeeeeeeeeeeeeeeeeeeeeeeeeeeeeeeeeee73ffffffffffffffffffffffffffffffffffffffff16846040015173ffffffffffffffffffffffffffffffffffffffff1614156109fa5747610a08565b610a07846040015161024a565b5b905073eeeeeeeeeeeeeeeeeeeeeeeeeeeeeeeeeeeeeeee73ffffffffffffffffffffffffffffffffffffffff16846000015173ffffffffffffffffffffffffffffffffffffffff1614610c1c578360200151846000015173ffffffffffffffffffffffffffffffffffffffff1663dd62ed3e30600360009054906101000a900473ffffffffffffffffffffffffffffffffffffffff166040518363ffffffff1660e01b8152600401610abb929190611be4565b60206040518083038186803b158015610ad357600080fd5b505afa158015610ae7573d6000803e3d6000fd5b505050506040513d601f19601f82011682018060405250810190610b0b9190611945565b1015610be657836000015173ffffffffffffffffffffffffffffffffffffffff1663095ea7b3600360009054906101000a900473ffffffffffffffffffffffffffffffffffffffff167fffffffffffffffffffffffffffffffffffffffffffffffffffffffffffffffff6040518363ffffffff1660e01b8152600401610b92929190611c44565b602060405180830381600087803b158015610bac57600080fd5b505af1158015610bc0573d6000803e3d6000fd5b505050506040513d601f19601f82011682018060405250810190610be491906118eb565b505b610c16600360009054906101000a900473ffffffffffffffffffffffffffffffffffffffff1685606001516111ce565b50610c4f565b610c4d600360009054906101000a900473ffffffffffffffffffffffffffffffffffffffff16856060015134611218565b505b73eeeeeeeeeeeeeeeeeeeeeeeeeeeeeeeeeeeeeeee73ffffffffffffffffffffffffffffffffffffffff16846040015173ffffffffffffffffffffffffffffffffffffffff161415610cac578047610ca79190611f8a565b610cc5565b80610cba856040015161024a565b610cc49190611f8a565b5b91508360200151831115610d1257610d1130856020015185610ce79190611f8a565b866000015173ffffffffffffffffffffffffffffffffffffffff166112479092919063ffffffff16565b5b836040015173ffffffffffffffffffffffffffffffffffffffff16846000015173ffffffffffffffffffffffffffffffffffffffff163373ffffffffffffffffffffffffffffffffffffffff167fffebebfb273923089a3ed6bac0fd4686ac740307859becadeb82f998e30db61485604051610d8e9190611de8565b60405180910390a4509392505050565b6000841115610e365773eeeeeeeeeeeeeeeeeeeeeeeeeeeeeeeeeeeeeeee73ffffffffffffffffffffffffffffffffffffffff16836040015173ffffffffffffffffffffffffffffffffffffffff1614610e2657610e213385856040015173ffffffffffffffffffffffffffffffffffffffff166112479092919063ffffffff16565b610e31565b610e3033856112cd565b5b610e6c565b6000821115610e6b57610e6a33838373ffffffffffffffffffffffffffffffffffffffff166112479092919063ffffffff16565b5b5b50505050565b6000808311610e85578160000151610e87565b825b90506000831415610ec457610ec3333083856020015173ffffffffffffffffffffffffffffffffffffffff16611145909392919063ffffffff16565b5b816060015115610fb2576000620186a060015483610ee29190611f30565b610eec9190611eff565b90508082610efa9190611f8a565b9150826020015173ffffffffffffffffffffffffffffffffffffffff1663a9059cbb600460009054906101000a900473ffffffffffffffffffffffffffffffffffffffff16836040518363ffffffff1660e01b8152600401610f5d929190611bbb565b602060405180830381600087803b158015610f7757600080fd5b505af1158015610f8b573d6000803e3d6000fd5b505050506040513d601f19601f82011682018060405250810190610faf91906118eb565b50505b600260009054906101000a900473ffffffffffffffffffffffffffffffffffffffff1673ffffffffffffffffffffffffffffffffffffffff16631b95e30583602001516040518263ffffffff1660e01b81526004016110119190611b85565b60206040518083038186803b15801561102957600080fd5b505afa15801561103d573d6000803e3d6000fd5b505050506040513d601f19601f820116820180604052508101906110619190611918565b73ffffffffffffffffffffffffffffffffffffffff166338463cff8360400151836040518363ffffffff1660e01b815260040161109f929190611cbb565b602060405180830381600087803b1580156110b957600080fd5b505af11580156110cd573d6000803e3d6000fd5b505050506040513d601f19601f820116820180604052508101906110f19190611945565b503373ffffffffffffffffffffffffffffffffffffffff167fcc16f5dbb4873280815c1ee09dbd06736cffcc184412cf7a71a0fdb75d397ca5826040516111389190611de8565b60405180910390a2505050565b6111c8846323b872dd60e01b85858560405160240161116693929190611c0d565b604051602081830303815290604052907bffffffffffffffffffffffffffffffffffffffffffffffffffffffff19166020820180517bffffffffffffffffffffffffffffffffffffffffffffffffffffffff8381831617835250505050611318565b50505050565b606061121083836040518060400160405280601e81526020017f416464726573733a206c6f772d6c6576656c2063616c6c206661696c656400008152506113df565b905092915050565b606061123e8484846040518060600160405280602981526020016123ca602991396113f7565b90509392505050565b6112c88363a9059cbb60e01b8484604051602401611266929190611c44565b604051602081830303815290604052907bffffffffffffffffffffffffffffffffffffffffffffffffffffffff19166020820180517bffffffffffffffffffffffffffffffffffffffffffffffffffffffff8381831617835250505050611318565b505050565b8173ffffffffffffffffffffffffffffffffffffffff166108fc829081150290604051600060405180830381858888f19350505050158015611313573d6000803e3d6000fd5b505050565b600061137a826040518060400160405280602081526020017f5361666545524332303a206c6f772d6c6576656c2063616c6c206661696c65648152508573ffffffffffffffffffffffffffffffffffffffff166113df9092919063ffffffff16565b90506000815111156113da578080602001905181019061139a91906118eb565b6113d9576040517f08c379a00000000000000000000000000000000000000000000000000000000081526004016113d090611da8565b60405180910390fd5b5b505050565b60606113ee84846000856113f7565b90509392505050565b60608247101561143c576040517f08c379a000000000000000000000000000000000000000000000000000000000815260040161143390611d28565b60405180910390fd5b6114458561150b565b611484576040517f08c379a000000000000000000000000000000000000000000000000000000000815260040161147b90611d88565b60405180910390fd5b6000808673ffffffffffffffffffffffffffffffffffffffff1685876040516114ad9190611b6e565b60006040518083038185875af1925050503d80600081146114ea576040519150601f19603f3d011682016040523d82523d6000602084013e6114ef565b606091505b50915091506114ff82828661151e565b92505050949350505050565b600080823b905060008111915050919050565b6060831561152e5782905061157e565b6000835111156115415782518084602001fd5b816040517f08c379a00000000000000000000000000000000000000000000000000000000081526004016115759190611d06565b60405180910390fd5b9392505050565b604051806040016040528060008152602001600081525090565b60006115b26115ad84611e8b565b611e66565b9050828152602081018484840111156115ce576115cd6121ce565b5b6115d98482856120a1565b509392505050565b6000813590506115f081612356565b92915050565b6000815190506116058161236d565b92915050565b60008135905061161a81612384565b92915050565b60008083601f840112611636576116356121a6565b5b8235905067ffffffffffffffff811115611653576116526121a1565b5b60208301915083600182028301111561166f5761166e6121c4565b5b9250929050565b600082601f83011261168b5761168a6121a6565b5b813561169b84826020860161159f565b91505092915050565b6000815190506116b38161239b565b92915050565b6000608082840312156116cf576116ce6121b0565b5b81905092915050565b6000608082840312156116ee576116ed6121b5565b5b6116f86080611e66565b90506000611708848285016115e1565b600083015250602061171c8482850161176c565b6020830152506040611730848285016115e1565b604083015250606082013567ffffffffffffffff811115611754576117536121bf565b5b61176084828501611676565b60608301525092915050565b60008135905061177b816123b2565b92915050565b600081519050611790816123b2565b92915050565b6000602082840312156117ac576117ab6121d8565b5b60006117ba848285016115e1565b91505092915050565b60008060008060008060008060008060006101208c8e0312156117e9576117e86121d8565b5b60006117f78e828f016115e1565b9b505060206118088e828f016115e1565b9a505060406118198e828f016115e1565b995050606061182a8e828f0161176c565b98505060808c013567ffffffffffffffff81111561184b5761184a6121d3565b5b6118578e828f01611620565b975097505060a08c013567ffffffffffffffff81111561187a576118796121d3565b5b6118868e828f016116b9565b95505060c06118978e828f0161176c565b94505060e06118a88e828f0161160b565b9350506101008c013567ffffffffffffffff8111156118ca576118c96121d3565b5b6118d68e828f01611620565b92509250509295989b509295989b9093969950565b600060208284031215611901576119006121d8565b5b600061190f848285016115f6565b91505092915050565b60006020828403121561192e5761192d6121d8565b5b600061193c848285016116a4565b91505092915050565b60006020828403121561195b5761195a6121d8565b5b600061196984828501611781565b91505092915050565b61197b81612034565b82525050565b61198a81611fd0565b82525050565b61199981611fbe565b82525050565b6119a881611fee565b82525050565b60006119ba8385611ed2565b93506119c78385846120a1565b6119d0836121dd565b840190509392505050565b60006119e682611ebc565b6119f08185611ed2565b9350611a008185602086016120b0565b611a09816121dd565b840191505092915050565b6000611a1f82611ebc565b611a298185611ee3565b9350611a398185602086016120b0565b80840191505092915050565b611a4e81612046565b82525050565b6000611a5f82611ec7565b611a698185611eee565b9350611a798185602086016120b0565b611a82816121dd565b840191505092915050565b6000611a9a602683611eee565b9150611aa5826121ee565b604082019050919050565b6000611abd601583611eee565b9150611ac88261223d565b602082019050919050565b6000611ae0602383611eee565b9150611aeb82612266565b604082019050919050565b6000611b03601d83611eee565b9150611b0e826122b5565b602082019050919050565b6000611b26602a83611eee565b9150611b31826122de565b604082019050919050565b6000611b49601f83611eee565b9150611b548261232d565b602082019050919050565b611b688161202a565b82525050565b6000611b7a8284611a14565b915081905092915050565b6000602082019050611b9a6000830184611990565b92915050565b6000602082019050611bb56000830184611981565b92915050565b6000604082019050611bd06000830185611972565b611bdd6020830184611b5f565b9392505050565b6000604082019050611bf96000830185611990565b611c066020830184611990565b9392505050565b6000606082019050611c226000830186611990565b611c2f6020830185611990565b611c3c6040830184611b5f565b949350505050565b6000604082019050611c596000830185611990565b611c666020830184611b5f565b9392505050565b6000608082019050611c82600083018861199f565b611c8f6020830187611b5f565b611c9c604083018661199f565b8181036060830152611caf8184866119ae565b90509695505050505050565b60006040820190508181036000830152611cd581856119db565b9050611ce46020830184611b5f565b9392505050565b6000602082019050611d006000830184611a45565b92915050565b60006020820190508181036000830152611d208184611a54565b905092915050565b60006020820190508181036000830152611d4181611a8d565b9050919050565b60006020820190508181036000830152611d6181611ab0565b9050919050565b60006020820190508181036000830152611d8181611ad3565b9050919050565b60006020820190508181036000830152611da181611af6565b9050919050565b60006020820190508181036000830152611dc181611b19565b9050919050565b60006020820190508181036000830152611de181611b3c565b9050919050565b6000602082019050611dfd6000830184611b5f565b92915050565b60008083356001602003843603038112611e2057611e1f6121ba565b5b80840192508235915067ffffffffffffffff821115611e4257611e416121ab565b5b602083019250600182023603831315611e5e57611e5d6121c9565b5b509250929050565b6000611e70611e81565b9050611e7c82826120e3565b919050565b6000604051905090565b600067ffffffffffffffff821115611ea657611ea5612172565b5b611eaf826121dd565b9050602081019050919050565b600081519050919050565b600081519050919050565b600082825260208201905092915050565b600081905092915050565b600082825260208201905092915050565b6000611f0a8261202a565b9150611f158361202a565b925082611f2557611f24612143565b5b828204905092915050565b6000611f3b8261202a565b9150611f468361202a565b9250817fffffffffffffffffffffffffffffffffffffffffffffffffffffffffffffffff0483118215151615611f7f57611f7e612114565b5b828202905092915050565b6000611f958261202a565b9150611fa08361202a565b925082821015611fb357611fb2612114565b5b828203905092915050565b6000611fc98261200a565b9050919050565b6000611fdb8261200a565b9050919050565b60008115159050919050565b6000819050919050565b600061200382611fbe565b9050919050565b600073ffffffffffffffffffffffffffffffffffffffff82169050919050565b6000819050919050565b600061203f8261207d565b9050919050565b600061205182612058565b9050919050565b60006120638261200a565b9050919050565b600061207636836116d8565b9050919050565b60006120888261208f565b9050919050565b600061209a8261200a565b9050919050565b82818337600083830152505050565b60005b838110156120ce5780820151818401526020810190506120b3565b838111156120dd576000848401525b50505050565b6120ec826121dd565b810181811067ffffffffffffffff8211171561210b5761210a612172565b5b80604052505050565b7f4e487b7100000000000000000000000000000000000000000000000000000000600052601160045260246000fd5b7f4e487b7100000000000000000000000000000000000000000000000000000000600052601260045260246000fd5b7f4e487b7100000000000000000000000000000000000000000000000000000000600052604160045260246000fd5b600080fd5b600080fd5b600080fd5b600080fd5b600080fd5b600080fd5b600080fd5b600080fd5b600080fd5b600080fd5b600080fd5b600080fd5b6000601f19601f8301169050919050565b7f416464726573733a20696e73756666696369656e742062616c616e636520666f60008201527f722063616c6c0000000000000000000000000000000000000000000000000000602082015250565b7f5468652063616c6c657220697320756e6b6e6f776e0000000000000000000000600082015250565b7f43616e6e6f74206d696e7420616e64206275726e207468652073616d6520746f60008201527f6b656e0000000000000000000000000000000000000000000000000000000000602082015250565b7f416464726573733a2063616c6c20746f206e6f6e2d636f6e7472616374000000600082015250565b7f5361666545524332303a204552433230206f7065726174696f6e20646964206e60008201527f6f74207375636365656400000000000000000000000000000000000000000000602082015250565b7f5265656e7472616e637947756172643a207265656e7472616e742063616c6c00600082015250565b61235f81611fbe565b811461236a57600080fd5b50565b61237681611fe2565b811461238157600080fd5b50565b61238d81611fee565b811461239857600080fd5b50565b6123a481611ff8565b81146123af57600080fd5b50565b6123bb8161202a565b81146123c657600080fd5b5056fe416464726573733a206c6f772d6c6576656c2063616c6c20776974682076616c7565206661696c6564a26469706673582212200049ed6d4b5c8342c0dce9a4e51cf44846129e6eddc9064172e11e08cdda300264736f6c63430008060033",
          "opcodes": "PUSH1 0x80 PUSH1 0x40 MSTORE PUSH1 0x32 PUSH1 0x1 SSTORE CALLVALUE DUP1 ISZERO PUSH3 0x16 JUMPI PUSH1 0x0 DUP1 REVERT JUMPDEST POP PUSH1 0x40 MLOAD PUSH3 0x2653 CODESIZE SUB DUP1 PUSH3 0x2653 DUP4 CODECOPY DUP2 DUP2 ADD PUSH1 0x40 MSTORE DUP2 ADD SWAP1 PUSH3 0x3C SWAP2 SWAP1 PUSH3 0x13E JUMP JUMPDEST PUSH1 0x1 PUSH1 0x0 DUP2 SWAP1 SSTORE POP DUP3 PUSH1 0x3 PUSH1 0x0 PUSH2 0x100 EXP DUP2 SLOAD DUP2 PUSH20 0xFFFFFFFFFFFFFFFFFFFFFFFFFFFFFFFFFFFFFFFF MUL NOT AND SWAP1 DUP4 PUSH20 0xFFFFFFFFFFFFFFFFFFFFFFFFFFFFFFFFFFFFFFFF AND MUL OR SWAP1 SSTORE POP DUP2 PUSH1 0x2 PUSH1 0x0 PUSH2 0x100 EXP DUP2 SLOAD DUP2 PUSH20 0xFFFFFFFFFFFFFFFFFFFFFFFFFFFFFFFFFFFFFFFF MUL NOT AND SWAP1 DUP4 PUSH20 0xFFFFFFFFFFFFFFFFFFFFFFFFFFFFFFFFFFFFFFFF AND MUL OR SWAP1 SSTORE POP DUP1 PUSH1 0x4 PUSH1 0x0 PUSH2 0x100 EXP DUP2 SLOAD DUP2 PUSH20 0xFFFFFFFFFFFFFFFFFFFFFFFFFFFFFFFFFFFFFFFF MUL NOT AND SWAP1 DUP4 PUSH20 0xFFFFFFFFFFFFFFFFFFFFFFFFFFFFFFFFFFFFFFFF AND MUL OR SWAP1 SSTORE POP POP POP POP PUSH3 0x21B JUMP JUMPDEST PUSH1 0x0 DUP2 MLOAD SWAP1 POP PUSH3 0x121 DUP2 PUSH3 0x1E7 JUMP JUMPDEST SWAP3 SWAP2 POP POP JUMP JUMPDEST PUSH1 0x0 DUP2 MLOAD SWAP1 POP PUSH3 0x138 DUP2 PUSH3 0x201 JUMP JUMPDEST SWAP3 SWAP2 POP POP JUMP JUMPDEST PUSH1 0x0 DUP1 PUSH1 0x0 PUSH1 0x60 DUP5 DUP7 SUB SLT ISZERO PUSH3 0x15A JUMPI PUSH3 0x159 PUSH3 0x1E2 JUMP JUMPDEST JUMPDEST PUSH1 0x0 PUSH3 0x16A DUP7 DUP3 DUP8 ADD PUSH3 0x110 JUMP JUMPDEST SWAP4 POP POP PUSH1 0x20 PUSH3 0x17D DUP7 DUP3 DUP8 ADD PUSH3 0x110 JUMP JUMPDEST SWAP3 POP POP PUSH1 0x40 PUSH3 0x190 DUP7 DUP3 DUP8 ADD PUSH3 0x127 JUMP JUMPDEST SWAP2 POP POP SWAP3 POP SWAP3 POP SWAP3 JUMP JUMPDEST PUSH1 0x0 PUSH3 0x1A7 DUP3 PUSH3 0x1C2 JUMP JUMPDEST SWAP1 POP SWAP2 SWAP1 POP JUMP JUMPDEST PUSH1 0x0 PUSH3 0x1BB DUP3 PUSH3 0x1C2 JUMP JUMPDEST SWAP1 POP SWAP2 SWAP1 POP JUMP JUMPDEST PUSH1 0x0 PUSH20 0xFFFFFFFFFFFFFFFFFFFFFFFFFFFFFFFFFFFFFFFF DUP3 AND SWAP1 POP SWAP2 SWAP1 POP JUMP JUMPDEST PUSH1 0x0 DUP1 REVERT JUMPDEST PUSH3 0x1F2 DUP2 PUSH3 0x19A JUMP JUMPDEST DUP2 EQ PUSH3 0x1FE JUMPI PUSH1 0x0 DUP1 REVERT JUMPDEST POP JUMP JUMPDEST PUSH3 0x20C DUP2 PUSH3 0x1AE JUMP JUMPDEST DUP2 EQ PUSH3 0x218 JUMPI PUSH1 0x0 DUP1 REVERT JUMPDEST POP JUMP JUMPDEST PUSH2 0x2428 DUP1 PUSH3 0x22B PUSH1 0x0 CODECOPY PUSH1 0x0 RETURN INVALID PUSH1 0x80 PUSH1 0x40 MSTORE PUSH1 0x4 CALLDATASIZE LT PUSH2 0x7F JUMPI PUSH1 0x0 CALLDATALOAD PUSH1 0xE0 SHR DUP1 PUSH4 0xBB60AAA7 GT PUSH2 0x4E JUMPI DUP1 PUSH4 0xBB60AAA7 EQ PUSH2 0x149 JUMPI DUP1 PUSH4 0xC57981B5 EQ PUSH2 0x174 JUMPI DUP1 PUSH4 0xD4142B5F EQ PUSH2 0x19F JUMPI DUP1 PUSH4 0xF887EA40 EQ PUSH2 0x1BB JUMPI PUSH2 0x86 JUMP JUMPDEST DUP1 PUSH4 0x6693FEC EQ PUSH2 0x8B JUMPI DUP1 PUSH4 0x7B103999 EQ PUSH2 0xB6 JUMPI DUP1 PUSH4 0x8EA5220F EQ PUSH2 0xE1 JUMPI DUP1 PUSH4 0x9E546C38 EQ PUSH2 0x10C JUMPI PUSH2 0x86 JUMP JUMPDEST CALLDATASIZE PUSH2 0x86 JUMPI STOP JUMPDEST PUSH1 0x0 DUP1 REVERT JUMPDEST CALLVALUE DUP1 ISZERO PUSH2 0x97 JUMPI PUSH1 0x0 DUP1 REVERT JUMPDEST POP PUSH2 0xA0 PUSH2 0x1E6 JUMP JUMPDEST PUSH1 0x40 MLOAD PUSH2 0xAD SWAP2 SWAP1 PUSH2 0x1B85 JUMP JUMPDEST PUSH1 0x40 MLOAD DUP1 SWAP2 SUB SWAP1 RETURN JUMPDEST CALLVALUE DUP1 ISZERO PUSH2 0xC2 JUMPI PUSH1 0x0 DUP1 REVERT JUMPDEST POP PUSH2 0xCB PUSH2 0x1FE JUMP JUMPDEST PUSH1 0x40 MLOAD PUSH2 0xD8 SWAP2 SWAP1 PUSH2 0x1CEB JUMP JUMPDEST PUSH1 0x40 MLOAD DUP1 SWAP2 SUB SWAP1 RETURN JUMPDEST CALLVALUE DUP1 ISZERO PUSH2 0xED JUMPI PUSH1 0x0 DUP1 REVERT JUMPDEST POP PUSH2 0xF6 PUSH2 0x224 JUMP JUMPDEST PUSH1 0x40 MLOAD PUSH2 0x103 SWAP2 SWAP1 PUSH2 0x1BA0 JUMP JUMPDEST PUSH1 0x40 MLOAD DUP1 SWAP2 SUB SWAP1 RETURN JUMPDEST CALLVALUE DUP1 ISZERO PUSH2 0x118 JUMPI PUSH1 0x0 DUP1 REVERT JUMPDEST POP PUSH2 0x133 PUSH1 0x4 DUP1 CALLDATASIZE SUB DUP2 ADD SWAP1 PUSH2 0x12E SWAP2 SWAP1 PUSH2 0x1796 JUMP JUMPDEST PUSH2 0x24A JUMP JUMPDEST PUSH1 0x40 MLOAD PUSH2 0x140 SWAP2 SWAP1 PUSH2 0x1DE8 JUMP JUMPDEST PUSH1 0x40 MLOAD DUP1 SWAP2 SUB SWAP1 RETURN JUMPDEST CALLVALUE DUP1 ISZERO PUSH2 0x155 JUMPI PUSH1 0x0 DUP1 REVERT JUMPDEST POP PUSH2 0x15E PUSH2 0x2DC JUMP JUMPDEST PUSH1 0x40 MLOAD PUSH2 0x16B SWAP2 SWAP1 PUSH2 0x1DE8 JUMP JUMPDEST PUSH1 0x40 MLOAD DUP1 SWAP2 SUB SWAP1 RETURN JUMPDEST CALLVALUE DUP1 ISZERO PUSH2 0x180 JUMPI PUSH1 0x0 DUP1 REVERT JUMPDEST POP PUSH2 0x189 PUSH2 0x2E3 JUMP JUMPDEST PUSH1 0x40 MLOAD PUSH2 0x196 SWAP2 SWAP1 PUSH2 0x1DE8 JUMP JUMPDEST PUSH1 0x40 MLOAD DUP1 SWAP2 SUB SWAP1 RETURN JUMPDEST PUSH2 0x1B9 PUSH1 0x4 DUP1 CALLDATASIZE SUB DUP2 ADD SWAP1 PUSH2 0x1B4 SWAP2 SWAP1 PUSH2 0x17C3 JUMP JUMPDEST PUSH2 0x2E9 JUMP JUMPDEST STOP JUMPDEST CALLVALUE DUP1 ISZERO PUSH2 0x1C7 JUMPI PUSH1 0x0 DUP1 REVERT JUMPDEST POP PUSH2 0x1D0 PUSH2 0x602 JUMP JUMPDEST PUSH1 0x40 MLOAD PUSH2 0x1DD SWAP2 SWAP1 PUSH2 0x1B85 JUMP JUMPDEST PUSH1 0x40 MLOAD DUP1 SWAP2 SUB SWAP1 RETURN JUMPDEST PUSH20 0xEEEEEEEEEEEEEEEEEEEEEEEEEEEEEEEEEEEEEEEE DUP2 JUMP JUMPDEST PUSH1 0x2 PUSH1 0x0 SWAP1 SLOAD SWAP1 PUSH2 0x100 EXP SWAP1 DIV PUSH20 0xFFFFFFFFFFFFFFFFFFFFFFFFFFFFFFFFFFFFFFFF AND DUP2 JUMP JUMPDEST PUSH1 0x4 PUSH1 0x0 SWAP1 SLOAD SWAP1 PUSH2 0x100 EXP SWAP1 DIV PUSH20 0xFFFFFFFFFFFFFFFFFFFFFFFFFFFFFFFFFFFFFFFF AND DUP2 JUMP JUMPDEST PUSH1 0x0 DUP2 PUSH20 0xFFFFFFFFFFFFFFFFFFFFFFFFFFFFFFFFFFFFFFFF AND PUSH4 0x70A08231 ADDRESS PUSH1 0x40 MLOAD DUP3 PUSH4 0xFFFFFFFF AND PUSH1 0xE0 SHL DUP2 MSTORE PUSH1 0x4 ADD PUSH2 0x285 SWAP2 SWAP1 PUSH2 0x1B85 JUMP JUMPDEST PUSH1 0x20 PUSH1 0x40 MLOAD DUP1 DUP4 SUB DUP2 DUP7 DUP1 EXTCODESIZE ISZERO DUP1 ISZERO PUSH2 0x29D JUMPI PUSH1 0x0 DUP1 REVERT JUMPDEST POP GAS STATICCALL ISZERO DUP1 ISZERO PUSH2 0x2B1 JUMPI RETURNDATASIZE PUSH1 0x0 DUP1 RETURNDATACOPY RETURNDATASIZE PUSH1 0x0 REVERT JUMPDEST POP POP POP POP PUSH1 0x40 MLOAD RETURNDATASIZE PUSH1 0x1F NOT PUSH1 0x1F DUP3 ADD AND DUP3 ADD DUP1 PUSH1 0x40 MSTORE POP DUP2 ADD SWAP1 PUSH2 0x2D5 SWAP2 SWAP1 PUSH2 0x1945 JUMP JUMPDEST SWAP1 POP SWAP2 SWAP1 POP JUMP JUMPDEST PUSH3 0x186A0 DUP2 JUMP JUMPDEST PUSH1 0x1 SLOAD DUP2 JUMP JUMPDEST PUSH1 0x2 PUSH1 0x0 SLOAD EQ ISZERO PUSH2 0x32F JUMPI PUSH1 0x40 MLOAD PUSH32 0x8C379A000000000000000000000000000000000000000000000000000000000 DUP2 MSTORE PUSH1 0x4 ADD PUSH2 0x326 SWAP1 PUSH2 0x1DC8 JUMP JUMPDEST PUSH1 0x40 MLOAD DUP1 SWAP2 SUB SWAP1 REVERT JUMPDEST PUSH1 0x2 PUSH1 0x0 DUP2 SWAP1 SSTORE POP DUP11 PUSH20 0xFFFFFFFFFFFFFFFFFFFFFFFFFFFFFFFFFFFFFFFF AND CALLER PUSH20 0xFFFFFFFFFFFFFFFFFFFFFFFFFFFFFFFFFFFFFFFF AND EQ PUSH2 0x3A5 JUMPI PUSH1 0x40 MLOAD PUSH32 0x8C379A000000000000000000000000000000000000000000000000000000000 DUP2 MSTORE PUSH1 0x4 ADD PUSH2 0x39C SWAP1 PUSH2 0x1D48 JUMP JUMPDEST PUSH1 0x40 MLOAD DUP1 SWAP2 SUB SWAP1 REVERT JUMPDEST DUP10 PUSH20 0xFFFFFFFFFFFFFFFFFFFFFFFFFFFFFFFFFFFFFFFF AND DUP10 PUSH20 0xFFFFFFFFFFFFFFFFFFFFFFFFFFFFFFFFFFFFFFFF AND EQ ISZERO DUP1 PUSH2 0x40C JUMPI POP PUSH1 0x0 PUSH20 0xFFFFFFFFFFFFFFFFFFFFFFFFFFFFFFFFFFFFFFFF AND DUP11 PUSH20 0xFFFFFFFFFFFFFFFFFFFFFFFFFFFFFFFFFFFFFFFF AND EQ JUMPDEST PUSH2 0x44B JUMPI PUSH1 0x40 MLOAD PUSH32 0x8C379A000000000000000000000000000000000000000000000000000000000 DUP2 MSTORE PUSH1 0x4 ADD PUSH2 0x442 SWAP1 PUSH2 0x1D68 JUMP JUMPDEST PUSH1 0x40 MLOAD DUP1 SWAP2 SUB SWAP1 REVERT JUMPDEST PUSH2 0x453 PUSH2 0x1585 JUMP JUMPDEST PUSH1 0x0 PUSH20 0xFFFFFFFFFFFFFFFFFFFFFFFFFFFFFFFFFFFFFFFF AND DUP12 PUSH20 0xFFFFFFFFFFFFFFFFFFFFFFFFFFFFFFFFFFFFFFFF AND EQ PUSH2 0x49F JUMPI PUSH2 0x495 DUP12 DUP14 DUP8 DUP8 DUP8 DUP8 PUSH2 0x628 JUMP JUMPDEST DUP2 PUSH1 0x0 ADD DUP2 DUP2 MSTORE POP POP JUMPDEST PUSH1 0x0 DUP7 DUP1 PUSH1 0x60 ADD SWAP1 PUSH2 0x4B1 SWAP2 SWAP1 PUSH2 0x1E03 JUMP JUMPDEST SWAP1 POP GT ISZERO PUSH2 0x4DB JUMPI PUSH2 0x4D1 DUP12 DUP8 PUSH2 0x4C7 SWAP1 PUSH2 0x206A JUMP JUMPDEST DUP4 PUSH1 0x0 ADD MLOAD PUSH2 0x8EE JUMP JUMPDEST DUP2 PUSH1 0x20 ADD DUP2 DUP2 MSTORE POP POP JUMPDEST PUSH1 0x0 PUSH20 0xFFFFFFFFFFFFFFFFFFFFFFFFFFFFFFFFFFFFFFFF AND DUP11 PUSH20 0xFFFFFFFFFFFFFFFFFFFFFFFFFFFFFFFFFFFFFFFF AND EQ ISZERO PUSH2 0x532 JUMPI PUSH2 0x52D DUP2 PUSH1 0x20 ADD MLOAD DUP8 PUSH2 0x522 SWAP1 PUSH2 0x206A JUMP JUMPDEST DUP4 PUSH1 0x0 ADD MLOAD DUP15 PUSH2 0xD9E JUMP JUMPDEST PUSH2 0x5EC JUMP JUMPDEST PUSH2 0x5EB DUP2 PUSH1 0x20 ADD MLOAD PUSH1 0x40 MLOAD DUP1 PUSH1 0x80 ADD PUSH1 0x40 MSTORE DUP1 DUP13 DUP2 MSTORE PUSH1 0x20 ADD DUP14 PUSH20 0xFFFFFFFFFFFFFFFFFFFFFFFFFFFFFFFFFFFFFFFF AND DUP2 MSTORE PUSH1 0x20 ADD DUP12 DUP12 DUP1 DUP1 PUSH1 0x1F ADD PUSH1 0x20 DUP1 SWAP2 DIV MUL PUSH1 0x20 ADD PUSH1 0x40 MLOAD SWAP1 DUP2 ADD PUSH1 0x40 MSTORE DUP1 SWAP4 SWAP3 SWAP2 SWAP1 DUP2 DUP2 MSTORE PUSH1 0x20 ADD DUP4 DUP4 DUP1 DUP3 DUP5 CALLDATACOPY PUSH1 0x0 DUP2 DUP5 ADD MSTORE PUSH1 0x1F NOT PUSH1 0x1F DUP3 ADD AND SWAP1 POP DUP1 DUP4 ADD SWAP3 POP POP POP POP POP POP POP DUP2 MSTORE PUSH1 0x20 ADD PUSH1 0x0 PUSH20 0xFFFFFFFFFFFFFFFFFFFFFFFFFFFFFFFFFFFFFFFF AND DUP16 PUSH20 0xFFFFFFFFFFFFFFFFFFFFFFFFFFFFFFFFFFFFFFFF AND EQ ISZERO ISZERO DUP2 MSTORE POP PUSH2 0xE72 JUMP JUMPDEST JUMPDEST POP PUSH1 0x1 PUSH1 0x0 DUP2 SWAP1 SSTORE POP POP POP POP POP POP POP POP POP POP POP POP JUMP JUMPDEST PUSH1 0x3 PUSH1 0x0 SWAP1 SLOAD SWAP1 PUSH2 0x100 EXP SWAP1 DIV PUSH20 0xFFFFFFFFFFFFFFFFFFFFFFFFFFFFFFFFFFFFFFFF AND DUP2 JUMP JUMPDEST PUSH1 0x0 DUP1 PUSH2 0x634 DUP9 PUSH2 0x24A JUMP JUMPDEST SWAP1 POP PUSH1 0x0 DUP8 PUSH1 0x40 MLOAD PUSH1 0x20 ADD PUSH2 0x649 SWAP2 SWAP1 PUSH2 0x1B85 JUMP JUMPDEST PUSH1 0x40 MLOAD PUSH1 0x20 DUP2 DUP4 SUB SUB DUP2 MSTORE SWAP1 PUSH1 0x40 MSTORE DUP1 MLOAD SWAP1 PUSH1 0x20 ADD KECCAK256 SWAP1 POP PUSH1 0x2 PUSH1 0x0 SWAP1 SLOAD SWAP1 PUSH2 0x100 EXP SWAP1 DIV PUSH20 0xFFFFFFFFFFFFFFFFFFFFFFFFFFFFFFFFFFFFFFFF AND PUSH20 0xFFFFFFFFFFFFFFFFFFFFFFFFFFFFFFFFFFFFFFFF AND PUSH4 0x1B95E305 DUP11 PUSH1 0x40 MLOAD DUP3 PUSH4 0xFFFFFFFF AND PUSH1 0xE0 SHL DUP2 MSTORE PUSH1 0x4 ADD PUSH2 0x6BC SWAP2 SWAP1 PUSH2 0x1B85 JUMP JUMPDEST PUSH1 0x20 PUSH1 0x40 MLOAD DUP1 DUP4 SUB DUP2 DUP7 DUP1 EXTCODESIZE ISZERO DUP1 ISZERO PUSH2 0x6D4 JUMPI PUSH1 0x0 DUP1 REVERT JUMPDEST POP GAS STATICCALL ISZERO DUP1 ISZERO PUSH2 0x6E8 JUMPI RETURNDATASIZE PUSH1 0x0 DUP1 RETURNDATACOPY RETURNDATASIZE PUSH1 0x0 REVERT JUMPDEST POP POP POP POP PUSH1 0x40 MLOAD RETURNDATASIZE PUSH1 0x1F NOT PUSH1 0x1F DUP3 ADD AND DUP3 ADD DUP1 PUSH1 0x40 MSTORE POP DUP2 ADD SWAP1 PUSH2 0x70C SWAP2 SWAP1 PUSH2 0x1918 JUMP JUMPDEST PUSH20 0xFFFFFFFFFFFFFFFFFFFFFFFFFFFFFFFFFFFFFFFF AND PUSH4 0x159AB14D DUP3 DUP10 DUP10 DUP10 DUP10 PUSH1 0x40 MLOAD DUP7 PUSH4 0xFFFFFFFF AND PUSH1 0xE0 SHL DUP2 MSTORE PUSH1 0x4 ADD PUSH2 0x74C SWAP6 SWAP5 SWAP4 SWAP3 SWAP2 SWAP1 PUSH2 0x1C6D JUMP JUMPDEST PUSH1 0x20 PUSH1 0x40 MLOAD DUP1 DUP4 SUB DUP2 PUSH1 0x0 DUP8 DUP1 EXTCODESIZE ISZERO DUP1 ISZERO PUSH2 0x766 JUMPI PUSH1 0x0 DUP1 REVERT JUMPDEST POP GAS CALL ISZERO DUP1 ISZERO PUSH2 0x77A JUMPI RETURNDATASIZE PUSH1 0x0 DUP1 RETURNDATACOPY RETURNDATASIZE PUSH1 0x0 REVERT JUMPDEST POP POP POP POP PUSH1 0x40 MLOAD RETURNDATASIZE PUSH1 0x1F NOT PUSH1 0x1F DUP3 ADD AND DUP3 ADD DUP1 PUSH1 0x40 MSTORE POP DUP2 ADD SWAP1 PUSH2 0x79E SWAP2 SWAP1 PUSH2 0x1945 JUMP JUMPDEST POP DUP2 PUSH2 0x7A9 DUP11 PUSH2 0x24A JUMP JUMPDEST PUSH2 0x7B3 SWAP2 SWAP1 PUSH2 0x1F8A JUMP JUMPDEST SWAP3 POP PUSH1 0x0 PUSH3 0x186A0 PUSH1 0x1 SLOAD DUP6 PUSH2 0x7C9 SWAP2 SWAP1 PUSH2 0x1F30 JUMP JUMPDEST PUSH2 0x7D3 SWAP2 SWAP1 PUSH2 0x1EFF JUMP JUMPDEST SWAP1 POP DUP1 DUP5 PUSH2 0x7E1 SWAP2 SWAP1 PUSH2 0x1F8A JUMP JUMPDEST SWAP4 POP DUP10 PUSH20 0xFFFFFFFFFFFFFFFFFFFFFFFFFFFFFFFFFFFFFFFF AND PUSH4 0xA9059CBB PUSH1 0x4 PUSH1 0x0 SWAP1 SLOAD SWAP1 PUSH2 0x100 EXP SWAP1 DIV PUSH20 0xFFFFFFFFFFFFFFFFFFFFFFFFFFFFFFFFFFFFFFFF AND DUP4 PUSH1 0x40 MLOAD DUP4 PUSH4 0xFFFFFFFF AND PUSH1 0xE0 SHL DUP2 MSTORE PUSH1 0x4 ADD PUSH2 0x840 SWAP3 SWAP2 SWAP1 PUSH2 0x1BBB JUMP JUMPDEST PUSH1 0x20 PUSH1 0x40 MLOAD DUP1 DUP4 SUB DUP2 PUSH1 0x0 DUP8 DUP1 EXTCODESIZE ISZERO DUP1 ISZERO PUSH2 0x85A JUMPI PUSH1 0x0 DUP1 REVERT JUMPDEST POP GAS CALL ISZERO DUP1 ISZERO PUSH2 0x86E JUMPI RETURNDATASIZE PUSH1 0x0 DUP1 RETURNDATACOPY RETURNDATASIZE PUSH1 0x0 REVERT JUMPDEST POP POP POP POP PUSH1 0x40 MLOAD RETURNDATASIZE PUSH1 0x1F NOT PUSH1 0x1F DUP3 ADD AND DUP3 ADD DUP1 PUSH1 0x40 MSTORE POP DUP2 ADD SWAP1 PUSH2 0x892 SWAP2 SWAP1 PUSH2 0x18EB JUMP JUMPDEST POP DUP9 PUSH20 0xFFFFFFFFFFFFFFFFFFFFFFFFFFFFFFFFFFFFFFFF AND PUSH32 0xF6798A560793A54C3BCFE86A93CDE1E73087D944C0EA20544137D4121396885 DUP6 PUSH1 0x40 MLOAD PUSH2 0x8D9 SWAP2 SWAP1 PUSH2 0x1DE8 JUMP JUMPDEST PUSH1 0x40 MLOAD DUP1 SWAP2 SUB SWAP1 LOG2 POP POP POP SWAP7 SWAP6 POP POP POP POP POP POP JUMP JUMPDEST PUSH1 0x0 DUP1 PUSH20 0xFFFFFFFFFFFFFFFFFFFFFFFFFFFFFFFFFFFFFFFF AND DUP5 PUSH20 0xFFFFFFFFFFFFFFFFFFFFFFFFFFFFFFFFFFFFFFFF AND EQ ISZERO PUSH2 0x9A6 JUMPI PUSH20 0xEEEEEEEEEEEEEEEEEEEEEEEEEEEEEEEEEEEEEEEE PUSH20 0xFFFFFFFFFFFFFFFFFFFFFFFFFFFFFFFFFFFFFFFF AND DUP4 PUSH1 0x0 ADD MLOAD PUSH20 0xFFFFFFFFFFFFFFFFFFFFFFFFFFFFFFFFFFFFFFFF AND EQ PUSH2 0x9A5 JUMPI PUSH2 0x9A4 CALLER ADDRESS DUP6 PUSH1 0x20 ADD MLOAD DUP7 PUSH1 0x0 ADD MLOAD PUSH20 0xFFFFFFFFFFFFFFFFFFFFFFFFFFFFFFFFFFFFFFFF AND PUSH2 0x1145 SWAP1 SWAP4 SWAP3 SWAP2 SWAP1 PUSH4 0xFFFFFFFF AND JUMP JUMPDEST JUMPDEST JUMPDEST PUSH1 0x0 PUSH20 0xEEEEEEEEEEEEEEEEEEEEEEEEEEEEEEEEEEEEEEEE PUSH20 0xFFFFFFFFFFFFFFFFFFFFFFFFFFFFFFFFFFFFFFFF AND DUP5 PUSH1 0x40 ADD MLOAD PUSH20 0xFFFFFFFFFFFFFFFFFFFFFFFFFFFFFFFFFFFFFFFF AND EQ ISZERO PUSH2 0x9FA JUMPI SELFBALANCE PUSH2 0xA08 JUMP JUMPDEST PUSH2 0xA07 DUP5 PUSH1 0x40 ADD MLOAD PUSH2 0x24A JUMP JUMPDEST JUMPDEST SWAP1 POP PUSH20 0xEEEEEEEEEEEEEEEEEEEEEEEEEEEEEEEEEEEEEEEE PUSH20 0xFFFFFFFFFFFFFFFFFFFFFFFFFFFFFFFFFFFFFFFF AND DUP5 PUSH1 0x0 ADD MLOAD PUSH20 0xFFFFFFFFFFFFFFFFFFFFFFFFFFFFFFFFFFFFFFFF AND EQ PUSH2 0xC1C JUMPI DUP4 PUSH1 0x20 ADD MLOAD DUP5 PUSH1 0x0 ADD MLOAD PUSH20 0xFFFFFFFFFFFFFFFFFFFFFFFFFFFFFFFFFFFFFFFF AND PUSH4 0xDD62ED3E ADDRESS PUSH1 0x3 PUSH1 0x0 SWAP1 SLOAD SWAP1 PUSH2 0x100 EXP SWAP1 DIV PUSH20 0xFFFFFFFFFFFFFFFFFFFFFFFFFFFFFFFFFFFFFFFF AND PUSH1 0x40 MLOAD DUP4 PUSH4 0xFFFFFFFF AND PUSH1 0xE0 SHL DUP2 MSTORE PUSH1 0x4 ADD PUSH2 0xABB SWAP3 SWAP2 SWAP1 PUSH2 0x1BE4 JUMP JUMPDEST PUSH1 0x20 PUSH1 0x40 MLOAD DUP1 DUP4 SUB DUP2 DUP7 DUP1 EXTCODESIZE ISZERO DUP1 ISZERO PUSH2 0xAD3 JUMPI PUSH1 0x0 DUP1 REVERT JUMPDEST POP GAS STATICCALL ISZERO DUP1 ISZERO PUSH2 0xAE7 JUMPI RETURNDATASIZE PUSH1 0x0 DUP1 RETURNDATACOPY RETURNDATASIZE PUSH1 0x0 REVERT JUMPDEST POP POP POP POP PUSH1 0x40 MLOAD RETURNDATASIZE PUSH1 0x1F NOT PUSH1 0x1F DUP3 ADD AND DUP3 ADD DUP1 PUSH1 0x40 MSTORE POP DUP2 ADD SWAP1 PUSH2 0xB0B SWAP2 SWAP1 PUSH2 0x1945 JUMP JUMPDEST LT ISZERO PUSH2 0xBE6 JUMPI DUP4 PUSH1 0x0 ADD MLOAD PUSH20 0xFFFFFFFFFFFFFFFFFFFFFFFFFFFFFFFFFFFFFFFF AND PUSH4 0x95EA7B3 PUSH1 0x3 PUSH1 0x0 SWAP1 SLOAD SWAP1 PUSH2 0x100 EXP SWAP1 DIV PUSH20 0xFFFFFFFFFFFFFFFFFFFFFFFFFFFFFFFFFFFFFFFF AND PUSH32 0xFFFFFFFFFFFFFFFFFFFFFFFFFFFFFFFFFFFFFFFFFFFFFFFFFFFFFFFFFFFFFFFF PUSH1 0x40 MLOAD DUP4 PUSH4 0xFFFFFFFF AND PUSH1 0xE0 SHL DUP2 MSTORE PUSH1 0x4 ADD PUSH2 0xB92 SWAP3 SWAP2 SWAP1 PUSH2 0x1C44 JUMP JUMPDEST PUSH1 0x20 PUSH1 0x40 MLOAD DUP1 DUP4 SUB DUP2 PUSH1 0x0 DUP8 DUP1 EXTCODESIZE ISZERO DUP1 ISZERO PUSH2 0xBAC JUMPI PUSH1 0x0 DUP1 REVERT JUMPDEST POP GAS CALL ISZERO DUP1 ISZERO PUSH2 0xBC0 JUMPI RETURNDATASIZE PUSH1 0x0 DUP1 RETURNDATACOPY RETURNDATASIZE PUSH1 0x0 REVERT JUMPDEST POP POP POP POP PUSH1 0x40 MLOAD RETURNDATASIZE PUSH1 0x1F NOT PUSH1 0x1F DUP3 ADD AND DUP3 ADD DUP1 PUSH1 0x40 MSTORE POP DUP2 ADD SWAP1 PUSH2 0xBE4 SWAP2 SWAP1 PUSH2 0x18EB JUMP JUMPDEST POP JUMPDEST PUSH2 0xC16 PUSH1 0x3 PUSH1 0x0 SWAP1 SLOAD SWAP1 PUSH2 0x100 EXP SWAP1 DIV PUSH20 0xFFFFFFFFFFFFFFFFFFFFFFFFFFFFFFFFFFFFFFFF AND DUP6 PUSH1 0x60 ADD MLOAD PUSH2 0x11CE JUMP JUMPDEST POP PUSH2 0xC4F JUMP JUMPDEST PUSH2 0xC4D PUSH1 0x3 PUSH1 0x0 SWAP1 SLOAD SWAP1 PUSH2 0x100 EXP SWAP1 DIV PUSH20 0xFFFFFFFFFFFFFFFFFFFFFFFFFFFFFFFFFFFFFFFF AND DUP6 PUSH1 0x60 ADD MLOAD CALLVALUE PUSH2 0x1218 JUMP JUMPDEST POP JUMPDEST PUSH20 0xEEEEEEEEEEEEEEEEEEEEEEEEEEEEEEEEEEEEEEEE PUSH20 0xFFFFFFFFFFFFFFFFFFFFFFFFFFFFFFFFFFFFFFFF AND DUP5 PUSH1 0x40 ADD MLOAD PUSH20 0xFFFFFFFFFFFFFFFFFFFFFFFFFFFFFFFFFFFFFFFF AND EQ ISZERO PUSH2 0xCAC JUMPI DUP1 SELFBALANCE PUSH2 0xCA7 SWAP2 SWAP1 PUSH2 0x1F8A JUMP JUMPDEST PUSH2 0xCC5 JUMP JUMPDEST DUP1 PUSH2 0xCBA DUP6 PUSH1 0x40 ADD MLOAD PUSH2 0x24A JUMP JUMPDEST PUSH2 0xCC4 SWAP2 SWAP1 PUSH2 0x1F8A JUMP JUMPDEST JUMPDEST SWAP2 POP DUP4 PUSH1 0x20 ADD MLOAD DUP4 GT ISZERO PUSH2 0xD12 JUMPI PUSH2 0xD11 ADDRESS DUP6 PUSH1 0x20 ADD MLOAD DUP6 PUSH2 0xCE7 SWAP2 SWAP1 PUSH2 0x1F8A JUMP JUMPDEST DUP7 PUSH1 0x0 ADD MLOAD PUSH20 0xFFFFFFFFFFFFFFFFFFFFFFFFFFFFFFFFFFFFFFFF AND PUSH2 0x1247 SWAP1 SWAP3 SWAP2 SWAP1 PUSH4 0xFFFFFFFF AND JUMP JUMPDEST JUMPDEST DUP4 PUSH1 0x40 ADD MLOAD PUSH20 0xFFFFFFFFFFFFFFFFFFFFFFFFFFFFFFFFFFFFFFFF AND DUP5 PUSH1 0x0 ADD MLOAD PUSH20 0xFFFFFFFFFFFFFFFFFFFFFFFFFFFFFFFFFFFFFFFF AND CALLER PUSH20 0xFFFFFFFFFFFFFFFFFFFFFFFFFFFFFFFFFFFFFFFF AND PUSH32 0xFFEBEBFB273923089A3ED6BAC0FD4686AC740307859BECADEB82F998E30DB614 DUP6 PUSH1 0x40 MLOAD PUSH2 0xD8E SWAP2 SWAP1 PUSH2 0x1DE8 JUMP JUMPDEST PUSH1 0x40 MLOAD DUP1 SWAP2 SUB SWAP1 LOG4 POP SWAP4 SWAP3 POP POP POP JUMP JUMPDEST PUSH1 0x0 DUP5 GT ISZERO PUSH2 0xE36 JUMPI PUSH20 0xEEEEEEEEEEEEEEEEEEEEEEEEEEEEEEEEEEEEEEEE PUSH20 0xFFFFFFFFFFFFFFFFFFFFFFFFFFFFFFFFFFFFFFFF AND DUP4 PUSH1 0x40 ADD MLOAD PUSH20 0xFFFFFFFFFFFFFFFFFFFFFFFFFFFFFFFFFFFFFFFF AND EQ PUSH2 0xE26 JUMPI PUSH2 0xE21 CALLER DUP6 DUP6 PUSH1 0x40 ADD MLOAD PUSH20 0xFFFFFFFFFFFFFFFFFFFFFFFFFFFFFFFFFFFFFFFF AND PUSH2 0x1247 SWAP1 SWAP3 SWAP2 SWAP1 PUSH4 0xFFFFFFFF AND JUMP JUMPDEST PUSH2 0xE31 JUMP JUMPDEST PUSH2 0xE30 CALLER DUP6 PUSH2 0x12CD JUMP JUMPDEST JUMPDEST PUSH2 0xE6C JUMP JUMPDEST PUSH1 0x0 DUP3 GT ISZERO PUSH2 0xE6B JUMPI PUSH2 0xE6A CALLER DUP4 DUP4 PUSH20 0xFFFFFFFFFFFFFFFFFFFFFFFFFFFFFFFFFFFFFFFF AND PUSH2 0x1247 SWAP1 SWAP3 SWAP2 SWAP1 PUSH4 0xFFFFFFFF AND JUMP JUMPDEST JUMPDEST JUMPDEST POP POP POP POP JUMP JUMPDEST PUSH1 0x0 DUP1 DUP4 GT PUSH2 0xE85 JUMPI DUP2 PUSH1 0x0 ADD MLOAD PUSH2 0xE87 JUMP JUMPDEST DUP3 JUMPDEST SWAP1 POP PUSH1 0x0 DUP4 EQ ISZERO PUSH2 0xEC4 JUMPI PUSH2 0xEC3 CALLER ADDRESS DUP4 DUP6 PUSH1 0x20 ADD MLOAD PUSH20 0xFFFFFFFFFFFFFFFFFFFFFFFFFFFFFFFFFFFFFFFF AND PUSH2 0x1145 SWAP1 SWAP4 SWAP3 SWAP2 SWAP1 PUSH4 0xFFFFFFFF AND JUMP JUMPDEST JUMPDEST DUP2 PUSH1 0x60 ADD MLOAD ISZERO PUSH2 0xFB2 JUMPI PUSH1 0x0 PUSH3 0x186A0 PUSH1 0x1 SLOAD DUP4 PUSH2 0xEE2 SWAP2 SWAP1 PUSH2 0x1F30 JUMP JUMPDEST PUSH2 0xEEC SWAP2 SWAP1 PUSH2 0x1EFF JUMP JUMPDEST SWAP1 POP DUP1 DUP3 PUSH2 0xEFA SWAP2 SWAP1 PUSH2 0x1F8A JUMP JUMPDEST SWAP2 POP DUP3 PUSH1 0x20 ADD MLOAD PUSH20 0xFFFFFFFFFFFFFFFFFFFFFFFFFFFFFFFFFFFFFFFF AND PUSH4 0xA9059CBB PUSH1 0x4 PUSH1 0x0 SWAP1 SLOAD SWAP1 PUSH2 0x100 EXP SWAP1 DIV PUSH20 0xFFFFFFFFFFFFFFFFFFFFFFFFFFFFFFFFFFFFFFFF AND DUP4 PUSH1 0x40 MLOAD DUP4 PUSH4 0xFFFFFFFF AND PUSH1 0xE0 SHL DUP2 MSTORE PUSH1 0x4 ADD PUSH2 0xF5D SWAP3 SWAP2 SWAP1 PUSH2 0x1BBB JUMP JUMPDEST PUSH1 0x20 PUSH1 0x40 MLOAD DUP1 DUP4 SUB DUP2 PUSH1 0x0 DUP8 DUP1 EXTCODESIZE ISZERO DUP1 ISZERO PUSH2 0xF77 JUMPI PUSH1 0x0 DUP1 REVERT JUMPDEST POP GAS CALL ISZERO DUP1 ISZERO PUSH2 0xF8B JUMPI RETURNDATASIZE PUSH1 0x0 DUP1 RETURNDATACOPY RETURNDATASIZE PUSH1 0x0 REVERT JUMPDEST POP POP POP POP PUSH1 0x40 MLOAD RETURNDATASIZE PUSH1 0x1F NOT PUSH1 0x1F DUP3 ADD AND DUP3 ADD DUP1 PUSH1 0x40 MSTORE POP DUP2 ADD SWAP1 PUSH2 0xFAF SWAP2 SWAP1 PUSH2 0x18EB JUMP JUMPDEST POP POP JUMPDEST PUSH1 0x2 PUSH1 0x0 SWAP1 SLOAD SWAP1 PUSH2 0x100 EXP SWAP1 DIV PUSH20 0xFFFFFFFFFFFFFFFFFFFFFFFFFFFFFFFFFFFFFFFF AND PUSH20 0xFFFFFFFFFFFFFFFFFFFFFFFFFFFFFFFFFFFFFFFF AND PUSH4 0x1B95E305 DUP4 PUSH1 0x20 ADD MLOAD PUSH1 0x40 MLOAD DUP3 PUSH4 0xFFFFFFFF AND PUSH1 0xE0 SHL DUP2 MSTORE PUSH1 0x4 ADD PUSH2 0x1011 SWAP2 SWAP1 PUSH2 0x1B85 JUMP JUMPDEST PUSH1 0x20 PUSH1 0x40 MLOAD DUP1 DUP4 SUB DUP2 DUP7 DUP1 EXTCODESIZE ISZERO DUP1 ISZERO PUSH2 0x1029 JUMPI PUSH1 0x0 DUP1 REVERT JUMPDEST POP GAS STATICCALL ISZERO DUP1 ISZERO PUSH2 0x103D JUMPI RETURNDATASIZE PUSH1 0x0 DUP1 RETURNDATACOPY RETURNDATASIZE PUSH1 0x0 REVERT JUMPDEST POP POP POP POP PUSH1 0x40 MLOAD RETURNDATASIZE PUSH1 0x1F NOT PUSH1 0x1F DUP3 ADD AND DUP3 ADD DUP1 PUSH1 0x40 MSTORE POP DUP2 ADD SWAP1 PUSH2 0x1061 SWAP2 SWAP1 PUSH2 0x1918 JUMP JUMPDEST PUSH20 0xFFFFFFFFFFFFFFFFFFFFFFFFFFFFFFFFFFFFFFFF AND PUSH4 0x38463CFF DUP4 PUSH1 0x40 ADD MLOAD DUP4 PUSH1 0x40 MLOAD DUP4 PUSH4 0xFFFFFFFF AND PUSH1 0xE0 SHL DUP2 MSTORE PUSH1 0x4 ADD PUSH2 0x109F SWAP3 SWAP2 SWAP1 PUSH2 0x1CBB JUMP JUMPDEST PUSH1 0x20 PUSH1 0x40 MLOAD DUP1 DUP4 SUB DUP2 PUSH1 0x0 DUP8 DUP1 EXTCODESIZE ISZERO DUP1 ISZERO PUSH2 0x10B9 JUMPI PUSH1 0x0 DUP1 REVERT JUMPDEST POP GAS CALL ISZERO DUP1 ISZERO PUSH2 0x10CD JUMPI RETURNDATASIZE PUSH1 0x0 DUP1 RETURNDATACOPY RETURNDATASIZE PUSH1 0x0 REVERT JUMPDEST POP POP POP POP PUSH1 0x40 MLOAD RETURNDATASIZE PUSH1 0x1F NOT PUSH1 0x1F DUP3 ADD AND DUP3 ADD DUP1 PUSH1 0x40 MSTORE POP DUP2 ADD SWAP1 PUSH2 0x10F1 SWAP2 SWAP1 PUSH2 0x1945 JUMP JUMPDEST POP CALLER PUSH20 0xFFFFFFFFFFFFFFFFFFFFFFFFFFFFFFFFFFFFFFFF AND PUSH32 0xCC16F5DBB4873280815C1EE09DBD06736CFFCC184412CF7A71A0FDB75D397CA5 DUP3 PUSH1 0x40 MLOAD PUSH2 0x1138 SWAP2 SWAP1 PUSH2 0x1DE8 JUMP JUMPDEST PUSH1 0x40 MLOAD DUP1 SWAP2 SUB SWAP1 LOG2 POP POP POP JUMP JUMPDEST PUSH2 0x11C8 DUP5 PUSH4 0x23B872DD PUSH1 0xE0 SHL DUP6 DUP6 DUP6 PUSH1 0x40 MLOAD PUSH1 0x24 ADD PUSH2 0x1166 SWAP4 SWAP3 SWAP2 SWAP1 PUSH2 0x1C0D JUMP JUMPDEST PUSH1 0x40 MLOAD PUSH1 0x20 DUP2 DUP4 SUB SUB DUP2 MSTORE SWAP1 PUSH1 0x40 MSTORE SWAP1 PUSH28 0xFFFFFFFFFFFFFFFFFFFFFFFFFFFFFFFFFFFFFFFFFFFFFFFFFFFFFFFF NOT AND PUSH1 0x20 DUP3 ADD DUP1 MLOAD PUSH28 0xFFFFFFFFFFFFFFFFFFFFFFFFFFFFFFFFFFFFFFFFFFFFFFFFFFFFFFFF DUP4 DUP2 DUP4 AND OR DUP4 MSTORE POP POP POP POP PUSH2 0x1318 JUMP JUMPDEST POP POP POP POP JUMP JUMPDEST PUSH1 0x60 PUSH2 0x1210 DUP4 DUP4 PUSH1 0x40 MLOAD DUP1 PUSH1 0x40 ADD PUSH1 0x40 MSTORE DUP1 PUSH1 0x1E DUP2 MSTORE PUSH1 0x20 ADD PUSH32 0x416464726573733A206C6F772D6C6576656C2063616C6C206661696C65640000 DUP2 MSTORE POP PUSH2 0x13DF JUMP JUMPDEST SWAP1 POP SWAP3 SWAP2 POP POP JUMP JUMPDEST PUSH1 0x60 PUSH2 0x123E DUP5 DUP5 DUP5 PUSH1 0x40 MLOAD DUP1 PUSH1 0x60 ADD PUSH1 0x40 MSTORE DUP1 PUSH1 0x29 DUP2 MSTORE PUSH1 0x20 ADD PUSH2 0x23CA PUSH1 0x29 SWAP2 CODECOPY PUSH2 0x13F7 JUMP JUMPDEST SWAP1 POP SWAP4 SWAP3 POP POP POP JUMP JUMPDEST PUSH2 0x12C8 DUP4 PUSH4 0xA9059CBB PUSH1 0xE0 SHL DUP5 DUP5 PUSH1 0x40 MLOAD PUSH1 0x24 ADD PUSH2 0x1266 SWAP3 SWAP2 SWAP1 PUSH2 0x1C44 JUMP JUMPDEST PUSH1 0x40 MLOAD PUSH1 0x20 DUP2 DUP4 SUB SUB DUP2 MSTORE SWAP1 PUSH1 0x40 MSTORE SWAP1 PUSH28 0xFFFFFFFFFFFFFFFFFFFFFFFFFFFFFFFFFFFFFFFFFFFFFFFFFFFFFFFF NOT AND PUSH1 0x20 DUP3 ADD DUP1 MLOAD PUSH28 0xFFFFFFFFFFFFFFFFFFFFFFFFFFFFFFFFFFFFFFFFFFFFFFFFFFFFFFFF DUP4 DUP2 DUP4 AND OR DUP4 MSTORE POP POP POP POP PUSH2 0x1318 JUMP JUMPDEST POP POP POP JUMP JUMPDEST DUP2 PUSH20 0xFFFFFFFFFFFFFFFFFFFFFFFFFFFFFFFFFFFFFFFF AND PUSH2 0x8FC DUP3 SWAP1 DUP2 ISZERO MUL SWAP1 PUSH1 0x40 MLOAD PUSH1 0x0 PUSH1 0x40 MLOAD DUP1 DUP4 SUB DUP2 DUP6 DUP9 DUP9 CALL SWAP4 POP POP POP POP ISZERO DUP1 ISZERO PUSH2 0x1313 JUMPI RETURNDATASIZE PUSH1 0x0 DUP1 RETURNDATACOPY RETURNDATASIZE PUSH1 0x0 REVERT JUMPDEST POP POP POP JUMP JUMPDEST PUSH1 0x0 PUSH2 0x137A DUP3 PUSH1 0x40 MLOAD DUP1 PUSH1 0x40 ADD PUSH1 0x40 MSTORE DUP1 PUSH1 0x20 DUP2 MSTORE PUSH1 0x20 ADD PUSH32 0x5361666545524332303A206C6F772D6C6576656C2063616C6C206661696C6564 DUP2 MSTORE POP DUP6 PUSH20 0xFFFFFFFFFFFFFFFFFFFFFFFFFFFFFFFFFFFFFFFF AND PUSH2 0x13DF SWAP1 SWAP3 SWAP2 SWAP1 PUSH4 0xFFFFFFFF AND JUMP JUMPDEST SWAP1 POP PUSH1 0x0 DUP2 MLOAD GT ISZERO PUSH2 0x13DA JUMPI DUP1 DUP1 PUSH1 0x20 ADD SWAP1 MLOAD DUP2 ADD SWAP1 PUSH2 0x139A SWAP2 SWAP1 PUSH2 0x18EB JUMP JUMPDEST PUSH2 0x13D9 JUMPI PUSH1 0x40 MLOAD PUSH32 0x8C379A000000000000000000000000000000000000000000000000000000000 DUP2 MSTORE PUSH1 0x4 ADD PUSH2 0x13D0 SWAP1 PUSH2 0x1DA8 JUMP JUMPDEST PUSH1 0x40 MLOAD DUP1 SWAP2 SUB SWAP1 REVERT JUMPDEST JUMPDEST POP POP POP JUMP JUMPDEST PUSH1 0x60 PUSH2 0x13EE DUP5 DUP5 PUSH1 0x0 DUP6 PUSH2 0x13F7 JUMP JUMPDEST SWAP1 POP SWAP4 SWAP3 POP POP POP JUMP JUMPDEST PUSH1 0x60 DUP3 SELFBALANCE LT ISZERO PUSH2 0x143C JUMPI PUSH1 0x40 MLOAD PUSH32 0x8C379A000000000000000000000000000000000000000000000000000000000 DUP2 MSTORE PUSH1 0x4 ADD PUSH2 0x1433 SWAP1 PUSH2 0x1D28 JUMP JUMPDEST PUSH1 0x40 MLOAD DUP1 SWAP2 SUB SWAP1 REVERT JUMPDEST PUSH2 0x1445 DUP6 PUSH2 0x150B JUMP JUMPDEST PUSH2 0x1484 JUMPI PUSH1 0x40 MLOAD PUSH32 0x8C379A000000000000000000000000000000000000000000000000000000000 DUP2 MSTORE PUSH1 0x4 ADD PUSH2 0x147B SWAP1 PUSH2 0x1D88 JUMP JUMPDEST PUSH1 0x40 MLOAD DUP1 SWAP2 SUB SWAP1 REVERT JUMPDEST PUSH1 0x0 DUP1 DUP7 PUSH20 0xFFFFFFFFFFFFFFFFFFFFFFFFFFFFFFFFFFFFFFFF AND DUP6 DUP8 PUSH1 0x40 MLOAD PUSH2 0x14AD SWAP2 SWAP1 PUSH2 0x1B6E JUMP JUMPDEST PUSH1 0x0 PUSH1 0x40 MLOAD DUP1 DUP4 SUB DUP2 DUP6 DUP8 GAS CALL SWAP3 POP POP POP RETURNDATASIZE DUP1 PUSH1 0x0 DUP2 EQ PUSH2 0x14EA JUMPI PUSH1 0x40 MLOAD SWAP2 POP PUSH1 0x1F NOT PUSH1 0x3F RETURNDATASIZE ADD AND DUP3 ADD PUSH1 0x40 MSTORE RETURNDATASIZE DUP3 MSTORE RETURNDATASIZE PUSH1 0x0 PUSH1 0x20 DUP5 ADD RETURNDATACOPY PUSH2 0x14EF JUMP JUMPDEST PUSH1 0x60 SWAP2 POP JUMPDEST POP SWAP2 POP SWAP2 POP PUSH2 0x14FF DUP3 DUP3 DUP7 PUSH2 0x151E JUMP JUMPDEST SWAP3 POP POP POP SWAP5 SWAP4 POP POP POP POP JUMP JUMPDEST PUSH1 0x0 DUP1 DUP3 EXTCODESIZE SWAP1 POP PUSH1 0x0 DUP2 GT SWAP2 POP POP SWAP2 SWAP1 POP JUMP JUMPDEST PUSH1 0x60 DUP4 ISZERO PUSH2 0x152E JUMPI DUP3 SWAP1 POP PUSH2 0x157E JUMP JUMPDEST PUSH1 0x0 DUP4 MLOAD GT ISZERO PUSH2 0x1541 JUMPI DUP3 MLOAD DUP1 DUP5 PUSH1 0x20 ADD REVERT JUMPDEST DUP2 PUSH1 0x40 MLOAD PUSH32 0x8C379A000000000000000000000000000000000000000000000000000000000 DUP2 MSTORE PUSH1 0x4 ADD PUSH2 0x1575 SWAP2 SWAP1 PUSH2 0x1D06 JUMP JUMPDEST PUSH1 0x40 MLOAD DUP1 SWAP2 SUB SWAP1 REVERT JUMPDEST SWAP4 SWAP3 POP POP POP JUMP JUMPDEST PUSH1 0x40 MLOAD DUP1 PUSH1 0x40 ADD PUSH1 0x40 MSTORE DUP1 PUSH1 0x0 DUP2 MSTORE PUSH1 0x20 ADD PUSH1 0x0 DUP2 MSTORE POP SWAP1 JUMP JUMPDEST PUSH1 0x0 PUSH2 0x15B2 PUSH2 0x15AD DUP5 PUSH2 0x1E8B JUMP JUMPDEST PUSH2 0x1E66 JUMP JUMPDEST SWAP1 POP DUP3 DUP2 MSTORE PUSH1 0x20 DUP2 ADD DUP5 DUP5 DUP5 ADD GT ISZERO PUSH2 0x15CE JUMPI PUSH2 0x15CD PUSH2 0x21CE JUMP JUMPDEST JUMPDEST PUSH2 0x15D9 DUP5 DUP3 DUP6 PUSH2 0x20A1 JUMP JUMPDEST POP SWAP4 SWAP3 POP POP POP JUMP JUMPDEST PUSH1 0x0 DUP2 CALLDATALOAD SWAP1 POP PUSH2 0x15F0 DUP2 PUSH2 0x2356 JUMP JUMPDEST SWAP3 SWAP2 POP POP JUMP JUMPDEST PUSH1 0x0 DUP2 MLOAD SWAP1 POP PUSH2 0x1605 DUP2 PUSH2 0x236D JUMP JUMPDEST SWAP3 SWAP2 POP POP JUMP JUMPDEST PUSH1 0x0 DUP2 CALLDATALOAD SWAP1 POP PUSH2 0x161A DUP2 PUSH2 0x2384 JUMP JUMPDEST SWAP3 SWAP2 POP POP JUMP JUMPDEST PUSH1 0x0 DUP1 DUP4 PUSH1 0x1F DUP5 ADD SLT PUSH2 0x1636 JUMPI PUSH2 0x1635 PUSH2 0x21A6 JUMP JUMPDEST JUMPDEST DUP3 CALLDATALOAD SWAP1 POP PUSH8 0xFFFFFFFFFFFFFFFF DUP2 GT ISZERO PUSH2 0x1653 JUMPI PUSH2 0x1652 PUSH2 0x21A1 JUMP JUMPDEST JUMPDEST PUSH1 0x20 DUP4 ADD SWAP2 POP DUP4 PUSH1 0x1 DUP3 MUL DUP4 ADD GT ISZERO PUSH2 0x166F JUMPI PUSH2 0x166E PUSH2 0x21C4 JUMP JUMPDEST JUMPDEST SWAP3 POP SWAP3 SWAP1 POP JUMP JUMPDEST PUSH1 0x0 DUP3 PUSH1 0x1F DUP4 ADD SLT PUSH2 0x168B JUMPI PUSH2 0x168A PUSH2 0x21A6 JUMP JUMPDEST JUMPDEST DUP2 CALLDATALOAD PUSH2 0x169B DUP5 DUP3 PUSH1 0x20 DUP7 ADD PUSH2 0x159F JUMP JUMPDEST SWAP2 POP POP SWAP3 SWAP2 POP POP JUMP JUMPDEST PUSH1 0x0 DUP2 MLOAD SWAP1 POP PUSH2 0x16B3 DUP2 PUSH2 0x239B JUMP JUMPDEST SWAP3 SWAP2 POP POP JUMP JUMPDEST PUSH1 0x0 PUSH1 0x80 DUP3 DUP5 SUB SLT ISZERO PUSH2 0x16CF JUMPI PUSH2 0x16CE PUSH2 0x21B0 JUMP JUMPDEST JUMPDEST DUP2 SWAP1 POP SWAP3 SWAP2 POP POP JUMP JUMPDEST PUSH1 0x0 PUSH1 0x80 DUP3 DUP5 SUB SLT ISZERO PUSH2 0x16EE JUMPI PUSH2 0x16ED PUSH2 0x21B5 JUMP JUMPDEST JUMPDEST PUSH2 0x16F8 PUSH1 0x80 PUSH2 0x1E66 JUMP JUMPDEST SWAP1 POP PUSH1 0x0 PUSH2 0x1708 DUP5 DUP3 DUP6 ADD PUSH2 0x15E1 JUMP JUMPDEST PUSH1 0x0 DUP4 ADD MSTORE POP PUSH1 0x20 PUSH2 0x171C DUP5 DUP3 DUP6 ADD PUSH2 0x176C JUMP JUMPDEST PUSH1 0x20 DUP4 ADD MSTORE POP PUSH1 0x40 PUSH2 0x1730 DUP5 DUP3 DUP6 ADD PUSH2 0x15E1 JUMP JUMPDEST PUSH1 0x40 DUP4 ADD MSTORE POP PUSH1 0x60 DUP3 ADD CALLDATALOAD PUSH8 0xFFFFFFFFFFFFFFFF DUP2 GT ISZERO PUSH2 0x1754 JUMPI PUSH2 0x1753 PUSH2 0x21BF JUMP JUMPDEST JUMPDEST PUSH2 0x1760 DUP5 DUP3 DUP6 ADD PUSH2 0x1676 JUMP JUMPDEST PUSH1 0x60 DUP4 ADD MSTORE POP SWAP3 SWAP2 POP POP JUMP JUMPDEST PUSH1 0x0 DUP2 CALLDATALOAD SWAP1 POP PUSH2 0x177B DUP2 PUSH2 0x23B2 JUMP JUMPDEST SWAP3 SWAP2 POP POP JUMP JUMPDEST PUSH1 0x0 DUP2 MLOAD SWAP1 POP PUSH2 0x1790 DUP2 PUSH2 0x23B2 JUMP JUMPDEST SWAP3 SWAP2 POP POP JUMP JUMPDEST PUSH1 0x0 PUSH1 0x20 DUP3 DUP5 SUB SLT ISZERO PUSH2 0x17AC JUMPI PUSH2 0x17AB PUSH2 0x21D8 JUMP JUMPDEST JUMPDEST PUSH1 0x0 PUSH2 0x17BA DUP5 DUP3 DUP6 ADD PUSH2 0x15E1 JUMP JUMPDEST SWAP2 POP POP SWAP3 SWAP2 POP POP JUMP JUMPDEST PUSH1 0x0 DUP1 PUSH1 0x0 DUP1 PUSH1 0x0 DUP1 PUSH1 0x0 DUP1 PUSH1 0x0 DUP1 PUSH1 0x0 PUSH2 0x120 DUP13 DUP15 SUB SLT ISZERO PUSH2 0x17E9 JUMPI PUSH2 0x17E8 PUSH2 0x21D8 JUMP JUMPDEST JUMPDEST PUSH1 0x0 PUSH2 0x17F7 DUP15 DUP3 DUP16 ADD PUSH2 0x15E1 JUMP JUMPDEST SWAP12 POP POP PUSH1 0x20 PUSH2 0x1808 DUP15 DUP3 DUP16 ADD PUSH2 0x15E1 JUMP JUMPDEST SWAP11 POP POP PUSH1 0x40 PUSH2 0x1819 DUP15 DUP3 DUP16 ADD PUSH2 0x15E1 JUMP JUMPDEST SWAP10 POP POP PUSH1 0x60 PUSH2 0x182A DUP15 DUP3 DUP16 ADD PUSH2 0x176C JUMP JUMPDEST SWAP9 POP POP PUSH1 0x80 DUP13 ADD CALLDATALOAD PUSH8 0xFFFFFFFFFFFFFFFF DUP2 GT ISZERO PUSH2 0x184B JUMPI PUSH2 0x184A PUSH2 0x21D3 JUMP JUMPDEST JUMPDEST PUSH2 0x1857 DUP15 DUP3 DUP16 ADD PUSH2 0x1620 JUMP JUMPDEST SWAP8 POP SWAP8 POP POP PUSH1 0xA0 DUP13 ADD CALLDATALOAD PUSH8 0xFFFFFFFFFFFFFFFF DUP2 GT ISZERO PUSH2 0x187A JUMPI PUSH2 0x1879 PUSH2 0x21D3 JUMP JUMPDEST JUMPDEST PUSH2 0x1886 DUP15 DUP3 DUP16 ADD PUSH2 0x16B9 JUMP JUMPDEST SWAP6 POP POP PUSH1 0xC0 PUSH2 0x1897 DUP15 DUP3 DUP16 ADD PUSH2 0x176C JUMP JUMPDEST SWAP5 POP POP PUSH1 0xE0 PUSH2 0x18A8 DUP15 DUP3 DUP16 ADD PUSH2 0x160B JUMP JUMPDEST SWAP4 POP POP PUSH2 0x100 DUP13 ADD CALLDATALOAD PUSH8 0xFFFFFFFFFFFFFFFF DUP2 GT ISZERO PUSH2 0x18CA JUMPI PUSH2 0x18C9 PUSH2 0x21D3 JUMP JUMPDEST JUMPDEST PUSH2 0x18D6 DUP15 DUP3 DUP16 ADD PUSH2 0x1620 JUMP JUMPDEST SWAP3 POP SWAP3 POP POP SWAP3 SWAP6 SWAP9 SWAP12 POP SWAP3 SWAP6 SWAP9 SWAP12 SWAP1 SWAP4 SWAP7 SWAP10 POP JUMP JUMPDEST PUSH1 0x0 PUSH1 0x20 DUP3 DUP5 SUB SLT ISZERO PUSH2 0x1901 JUMPI PUSH2 0x1900 PUSH2 0x21D8 JUMP JUMPDEST JUMPDEST PUSH1 0x0 PUSH2 0x190F DUP5 DUP3 DUP6 ADD PUSH2 0x15F6 JUMP JUMPDEST SWAP2 POP POP SWAP3 SWAP2 POP POP JUMP JUMPDEST PUSH1 0x0 PUSH1 0x20 DUP3 DUP5 SUB SLT ISZERO PUSH2 0x192E JUMPI PUSH2 0x192D PUSH2 0x21D8 JUMP JUMPDEST JUMPDEST PUSH1 0x0 PUSH2 0x193C DUP5 DUP3 DUP6 ADD PUSH2 0x16A4 JUMP JUMPDEST SWAP2 POP POP SWAP3 SWAP2 POP POP JUMP JUMPDEST PUSH1 0x0 PUSH1 0x20 DUP3 DUP5 SUB SLT ISZERO PUSH2 0x195B JUMPI PUSH2 0x195A PUSH2 0x21D8 JUMP JUMPDEST JUMPDEST PUSH1 0x0 PUSH2 0x1969 DUP5 DUP3 DUP6 ADD PUSH2 0x1781 JUMP JUMPDEST SWAP2 POP POP SWAP3 SWAP2 POP POP JUMP JUMPDEST PUSH2 0x197B DUP2 PUSH2 0x2034 JUMP JUMPDEST DUP3 MSTORE POP POP JUMP JUMPDEST PUSH2 0x198A DUP2 PUSH2 0x1FD0 JUMP JUMPDEST DUP3 MSTORE POP POP JUMP JUMPDEST PUSH2 0x1999 DUP2 PUSH2 0x1FBE JUMP JUMPDEST DUP3 MSTORE POP POP JUMP JUMPDEST PUSH2 0x19A8 DUP2 PUSH2 0x1FEE JUMP JUMPDEST DUP3 MSTORE POP POP JUMP JUMPDEST PUSH1 0x0 PUSH2 0x19BA DUP4 DUP6 PUSH2 0x1ED2 JUMP JUMPDEST SWAP4 POP PUSH2 0x19C7 DUP4 DUP6 DUP5 PUSH2 0x20A1 JUMP JUMPDEST PUSH2 0x19D0 DUP4 PUSH2 0x21DD JUMP JUMPDEST DUP5 ADD SWAP1 POP SWAP4 SWAP3 POP POP POP JUMP JUMPDEST PUSH1 0x0 PUSH2 0x19E6 DUP3 PUSH2 0x1EBC JUMP JUMPDEST PUSH2 0x19F0 DUP2 DUP6 PUSH2 0x1ED2 JUMP JUMPDEST SWAP4 POP PUSH2 0x1A00 DUP2 DUP6 PUSH1 0x20 DUP7 ADD PUSH2 0x20B0 JUMP JUMPDEST PUSH2 0x1A09 DUP2 PUSH2 0x21DD JUMP JUMPDEST DUP5 ADD SWAP2 POP POP SWAP3 SWAP2 POP POP JUMP JUMPDEST PUSH1 0x0 PUSH2 0x1A1F DUP3 PUSH2 0x1EBC JUMP JUMPDEST PUSH2 0x1A29 DUP2 DUP6 PUSH2 0x1EE3 JUMP JUMPDEST SWAP4 POP PUSH2 0x1A39 DUP2 DUP6 PUSH1 0x20 DUP7 ADD PUSH2 0x20B0 JUMP JUMPDEST DUP1 DUP5 ADD SWAP2 POP POP SWAP3 SWAP2 POP POP JUMP JUMPDEST PUSH2 0x1A4E DUP2 PUSH2 0x2046 JUMP JUMPDEST DUP3 MSTORE POP POP JUMP JUMPDEST PUSH1 0x0 PUSH2 0x1A5F DUP3 PUSH2 0x1EC7 JUMP JUMPDEST PUSH2 0x1A69 DUP2 DUP6 PUSH2 0x1EEE JUMP JUMPDEST SWAP4 POP PUSH2 0x1A79 DUP2 DUP6 PUSH1 0x20 DUP7 ADD PUSH2 0x20B0 JUMP JUMPDEST PUSH2 0x1A82 DUP2 PUSH2 0x21DD JUMP JUMPDEST DUP5 ADD SWAP2 POP POP SWAP3 SWAP2 POP POP JUMP JUMPDEST PUSH1 0x0 PUSH2 0x1A9A PUSH1 0x26 DUP4 PUSH2 0x1EEE JUMP JUMPDEST SWAP2 POP PUSH2 0x1AA5 DUP3 PUSH2 0x21EE JUMP JUMPDEST PUSH1 0x40 DUP3 ADD SWAP1 POP SWAP2 SWAP1 POP JUMP JUMPDEST PUSH1 0x0 PUSH2 0x1ABD PUSH1 0x15 DUP4 PUSH2 0x1EEE JUMP JUMPDEST SWAP2 POP PUSH2 0x1AC8 DUP3 PUSH2 0x223D JUMP JUMPDEST PUSH1 0x20 DUP3 ADD SWAP1 POP SWAP2 SWAP1 POP JUMP JUMPDEST PUSH1 0x0 PUSH2 0x1AE0 PUSH1 0x23 DUP4 PUSH2 0x1EEE JUMP JUMPDEST SWAP2 POP PUSH2 0x1AEB DUP3 PUSH2 0x2266 JUMP JUMPDEST PUSH1 0x40 DUP3 ADD SWAP1 POP SWAP2 SWAP1 POP JUMP JUMPDEST PUSH1 0x0 PUSH2 0x1B03 PUSH1 0x1D DUP4 PUSH2 0x1EEE JUMP JUMPDEST SWAP2 POP PUSH2 0x1B0E DUP3 PUSH2 0x22B5 JUMP JUMPDEST PUSH1 0x20 DUP3 ADD SWAP1 POP SWAP2 SWAP1 POP JUMP JUMPDEST PUSH1 0x0 PUSH2 0x1B26 PUSH1 0x2A DUP4 PUSH2 0x1EEE JUMP JUMPDEST SWAP2 POP PUSH2 0x1B31 DUP3 PUSH2 0x22DE JUMP JUMPDEST PUSH1 0x40 DUP3 ADD SWAP1 POP SWAP2 SWAP1 POP JUMP JUMPDEST PUSH1 0x0 PUSH2 0x1B49 PUSH1 0x1F DUP4 PUSH2 0x1EEE JUMP JUMPDEST SWAP2 POP PUSH2 0x1B54 DUP3 PUSH2 0x232D JUMP JUMPDEST PUSH1 0x20 DUP3 ADD SWAP1 POP SWAP2 SWAP1 POP JUMP JUMPDEST PUSH2 0x1B68 DUP2 PUSH2 0x202A JUMP JUMPDEST DUP3 MSTORE POP POP JUMP JUMPDEST PUSH1 0x0 PUSH2 0x1B7A DUP3 DUP5 PUSH2 0x1A14 JUMP JUMPDEST SWAP2 POP DUP2 SWAP1 POP SWAP3 SWAP2 POP POP JUMP JUMPDEST PUSH1 0x0 PUSH1 0x20 DUP3 ADD SWAP1 POP PUSH2 0x1B9A PUSH1 0x0 DUP4 ADD DUP5 PUSH2 0x1990 JUMP JUMPDEST SWAP3 SWAP2 POP POP JUMP JUMPDEST PUSH1 0x0 PUSH1 0x20 DUP3 ADD SWAP1 POP PUSH2 0x1BB5 PUSH1 0x0 DUP4 ADD DUP5 PUSH2 0x1981 JUMP JUMPDEST SWAP3 SWAP2 POP POP JUMP JUMPDEST PUSH1 0x0 PUSH1 0x40 DUP3 ADD SWAP1 POP PUSH2 0x1BD0 PUSH1 0x0 DUP4 ADD DUP6 PUSH2 0x1972 JUMP JUMPDEST PUSH2 0x1BDD PUSH1 0x20 DUP4 ADD DUP5 PUSH2 0x1B5F JUMP JUMPDEST SWAP4 SWAP3 POP POP POP JUMP JUMPDEST PUSH1 0x0 PUSH1 0x40 DUP3 ADD SWAP1 POP PUSH2 0x1BF9 PUSH1 0x0 DUP4 ADD DUP6 PUSH2 0x1990 JUMP JUMPDEST PUSH2 0x1C06 PUSH1 0x20 DUP4 ADD DUP5 PUSH2 0x1990 JUMP JUMPDEST SWAP4 SWAP3 POP POP POP JUMP JUMPDEST PUSH1 0x0 PUSH1 0x60 DUP3 ADD SWAP1 POP PUSH2 0x1C22 PUSH1 0x0 DUP4 ADD DUP7 PUSH2 0x1990 JUMP JUMPDEST PUSH2 0x1C2F PUSH1 0x20 DUP4 ADD DUP6 PUSH2 0x1990 JUMP JUMPDEST PUSH2 0x1C3C PUSH1 0x40 DUP4 ADD DUP5 PUSH2 0x1B5F JUMP JUMPDEST SWAP5 SWAP4 POP POP POP POP JUMP JUMPDEST PUSH1 0x0 PUSH1 0x40 DUP3 ADD SWAP1 POP PUSH2 0x1C59 PUSH1 0x0 DUP4 ADD DUP6 PUSH2 0x1990 JUMP JUMPDEST PUSH2 0x1C66 PUSH1 0x20 DUP4 ADD DUP5 PUSH2 0x1B5F JUMP JUMPDEST SWAP4 SWAP3 POP POP POP JUMP JUMPDEST PUSH1 0x0 PUSH1 0x80 DUP3 ADD SWAP1 POP PUSH2 0x1C82 PUSH1 0x0 DUP4 ADD DUP9 PUSH2 0x199F JUMP JUMPDEST PUSH2 0x1C8F PUSH1 0x20 DUP4 ADD DUP8 PUSH2 0x1B5F JUMP JUMPDEST PUSH2 0x1C9C PUSH1 0x40 DUP4 ADD DUP7 PUSH2 0x199F JUMP JUMPDEST DUP2 DUP2 SUB PUSH1 0x60 DUP4 ADD MSTORE PUSH2 0x1CAF DUP2 DUP5 DUP7 PUSH2 0x19AE JUMP JUMPDEST SWAP1 POP SWAP7 SWAP6 POP POP POP POP POP POP JUMP JUMPDEST PUSH1 0x0 PUSH1 0x40 DUP3 ADD SWAP1 POP DUP2 DUP2 SUB PUSH1 0x0 DUP4 ADD MSTORE PUSH2 0x1CD5 DUP2 DUP6 PUSH2 0x19DB JUMP JUMPDEST SWAP1 POP PUSH2 0x1CE4 PUSH1 0x20 DUP4 ADD DUP5 PUSH2 0x1B5F JUMP JUMPDEST SWAP4 SWAP3 POP POP POP JUMP JUMPDEST PUSH1 0x0 PUSH1 0x20 DUP3 ADD SWAP1 POP PUSH2 0x1D00 PUSH1 0x0 DUP4 ADD DUP5 PUSH2 0x1A45 JUMP JUMPDEST SWAP3 SWAP2 POP POP JUMP JUMPDEST PUSH1 0x0 PUSH1 0x20 DUP3 ADD SWAP1 POP DUP2 DUP2 SUB PUSH1 0x0 DUP4 ADD MSTORE PUSH2 0x1D20 DUP2 DUP5 PUSH2 0x1A54 JUMP JUMPDEST SWAP1 POP SWAP3 SWAP2 POP POP JUMP JUMPDEST PUSH1 0x0 PUSH1 0x20 DUP3 ADD SWAP1 POP DUP2 DUP2 SUB PUSH1 0x0 DUP4 ADD MSTORE PUSH2 0x1D41 DUP2 PUSH2 0x1A8D JUMP JUMPDEST SWAP1 POP SWAP2 SWAP1 POP JUMP JUMPDEST PUSH1 0x0 PUSH1 0x20 DUP3 ADD SWAP1 POP DUP2 DUP2 SUB PUSH1 0x0 DUP4 ADD MSTORE PUSH2 0x1D61 DUP2 PUSH2 0x1AB0 JUMP JUMPDEST SWAP1 POP SWAP2 SWAP1 POP JUMP JUMPDEST PUSH1 0x0 PUSH1 0x20 DUP3 ADD SWAP1 POP DUP2 DUP2 SUB PUSH1 0x0 DUP4 ADD MSTORE PUSH2 0x1D81 DUP2 PUSH2 0x1AD3 JUMP JUMPDEST SWAP1 POP SWAP2 SWAP1 POP JUMP JUMPDEST PUSH1 0x0 PUSH1 0x20 DUP3 ADD SWAP1 POP DUP2 DUP2 SUB PUSH1 0x0 DUP4 ADD MSTORE PUSH2 0x1DA1 DUP2 PUSH2 0x1AF6 JUMP JUMPDEST SWAP1 POP SWAP2 SWAP1 POP JUMP JUMPDEST PUSH1 0x0 PUSH1 0x20 DUP3 ADD SWAP1 POP DUP2 DUP2 SUB PUSH1 0x0 DUP4 ADD MSTORE PUSH2 0x1DC1 DUP2 PUSH2 0x1B19 JUMP JUMPDEST SWAP1 POP SWAP2 SWAP1 POP JUMP JUMPDEST PUSH1 0x0 PUSH1 0x20 DUP3 ADD SWAP1 POP DUP2 DUP2 SUB PUSH1 0x0 DUP4 ADD MSTORE PUSH2 0x1DE1 DUP2 PUSH2 0x1B3C JUMP JUMPDEST SWAP1 POP SWAP2 SWAP1 POP JUMP JUMPDEST PUSH1 0x0 PUSH1 0x20 DUP3 ADD SWAP1 POP PUSH2 0x1DFD PUSH1 0x0 DUP4 ADD DUP5 PUSH2 0x1B5F JUMP JUMPDEST SWAP3 SWAP2 POP POP JUMP JUMPDEST PUSH1 0x0 DUP1 DUP4 CALLDATALOAD PUSH1 0x1 PUSH1 0x20 SUB DUP5 CALLDATASIZE SUB SUB DUP2 SLT PUSH2 0x1E20 JUMPI PUSH2 0x1E1F PUSH2 0x21BA JUMP JUMPDEST JUMPDEST DUP1 DUP5 ADD SWAP3 POP DUP3 CALLDATALOAD SWAP2 POP PUSH8 0xFFFFFFFFFFFFFFFF DUP3 GT ISZERO PUSH2 0x1E42 JUMPI PUSH2 0x1E41 PUSH2 0x21AB JUMP JUMPDEST JUMPDEST PUSH1 0x20 DUP4 ADD SWAP3 POP PUSH1 0x1 DUP3 MUL CALLDATASIZE SUB DUP4 SGT ISZERO PUSH2 0x1E5E JUMPI PUSH2 0x1E5D PUSH2 0x21C9 JUMP JUMPDEST JUMPDEST POP SWAP3 POP SWAP3 SWAP1 POP JUMP JUMPDEST PUSH1 0x0 PUSH2 0x1E70 PUSH2 0x1E81 JUMP JUMPDEST SWAP1 POP PUSH2 0x1E7C DUP3 DUP3 PUSH2 0x20E3 JUMP JUMPDEST SWAP2 SWAP1 POP JUMP JUMPDEST PUSH1 0x0 PUSH1 0x40 MLOAD SWAP1 POP SWAP1 JUMP JUMPDEST PUSH1 0x0 PUSH8 0xFFFFFFFFFFFFFFFF DUP3 GT ISZERO PUSH2 0x1EA6 JUMPI PUSH2 0x1EA5 PUSH2 0x2172 JUMP JUMPDEST JUMPDEST PUSH2 0x1EAF DUP3 PUSH2 0x21DD JUMP JUMPDEST SWAP1 POP PUSH1 0x20 DUP2 ADD SWAP1 POP SWAP2 SWAP1 POP JUMP JUMPDEST PUSH1 0x0 DUP2 MLOAD SWAP1 POP SWAP2 SWAP1 POP JUMP JUMPDEST PUSH1 0x0 DUP2 MLOAD SWAP1 POP SWAP2 SWAP1 POP JUMP JUMPDEST PUSH1 0x0 DUP3 DUP3 MSTORE PUSH1 0x20 DUP3 ADD SWAP1 POP SWAP3 SWAP2 POP POP JUMP JUMPDEST PUSH1 0x0 DUP2 SWAP1 POP SWAP3 SWAP2 POP POP JUMP JUMPDEST PUSH1 0x0 DUP3 DUP3 MSTORE PUSH1 0x20 DUP3 ADD SWAP1 POP SWAP3 SWAP2 POP POP JUMP JUMPDEST PUSH1 0x0 PUSH2 0x1F0A DUP3 PUSH2 0x202A JUMP JUMPDEST SWAP2 POP PUSH2 0x1F15 DUP4 PUSH2 0x202A JUMP JUMPDEST SWAP3 POP DUP3 PUSH2 0x1F25 JUMPI PUSH2 0x1F24 PUSH2 0x2143 JUMP JUMPDEST JUMPDEST DUP3 DUP3 DIV SWAP1 POP SWAP3 SWAP2 POP POP JUMP JUMPDEST PUSH1 0x0 PUSH2 0x1F3B DUP3 PUSH2 0x202A JUMP JUMPDEST SWAP2 POP PUSH2 0x1F46 DUP4 PUSH2 0x202A JUMP JUMPDEST SWAP3 POP DUP2 PUSH32 0xFFFFFFFFFFFFFFFFFFFFFFFFFFFFFFFFFFFFFFFFFFFFFFFFFFFFFFFFFFFFFFFF DIV DUP4 GT DUP3 ISZERO ISZERO AND ISZERO PUSH2 0x1F7F JUMPI PUSH2 0x1F7E PUSH2 0x2114 JUMP JUMPDEST JUMPDEST DUP3 DUP3 MUL SWAP1 POP SWAP3 SWAP2 POP POP JUMP JUMPDEST PUSH1 0x0 PUSH2 0x1F95 DUP3 PUSH2 0x202A JUMP JUMPDEST SWAP2 POP PUSH2 0x1FA0 DUP4 PUSH2 0x202A JUMP JUMPDEST SWAP3 POP DUP3 DUP3 LT ISZERO PUSH2 0x1FB3 JUMPI PUSH2 0x1FB2 PUSH2 0x2114 JUMP JUMPDEST JUMPDEST DUP3 DUP3 SUB SWAP1 POP SWAP3 SWAP2 POP POP JUMP JUMPDEST PUSH1 0x0 PUSH2 0x1FC9 DUP3 PUSH2 0x200A JUMP JUMPDEST SWAP1 POP SWAP2 SWAP1 POP JUMP JUMPDEST PUSH1 0x0 PUSH2 0x1FDB DUP3 PUSH2 0x200A JUMP JUMPDEST SWAP1 POP SWAP2 SWAP1 POP JUMP JUMPDEST PUSH1 0x0 DUP2 ISZERO ISZERO SWAP1 POP SWAP2 SWAP1 POP JUMP JUMPDEST PUSH1 0x0 DUP2 SWAP1 POP SWAP2 SWAP1 POP JUMP JUMPDEST PUSH1 0x0 PUSH2 0x2003 DUP3 PUSH2 0x1FBE JUMP JUMPDEST SWAP1 POP SWAP2 SWAP1 POP JUMP JUMPDEST PUSH1 0x0 PUSH20 0xFFFFFFFFFFFFFFFFFFFFFFFFFFFFFFFFFFFFFFFF DUP3 AND SWAP1 POP SWAP2 SWAP1 POP JUMP JUMPDEST PUSH1 0x0 DUP2 SWAP1 POP SWAP2 SWAP1 POP JUMP JUMPDEST PUSH1 0x0 PUSH2 0x203F DUP3 PUSH2 0x207D JUMP JUMPDEST SWAP1 POP SWAP2 SWAP1 POP JUMP JUMPDEST PUSH1 0x0 PUSH2 0x2051 DUP3 PUSH2 0x2058 JUMP JUMPDEST SWAP1 POP SWAP2 SWAP1 POP JUMP JUMPDEST PUSH1 0x0 PUSH2 0x2063 DUP3 PUSH2 0x200A JUMP JUMPDEST SWAP1 POP SWAP2 SWAP1 POP JUMP JUMPDEST PUSH1 0x0 PUSH2 0x2076 CALLDATASIZE DUP4 PUSH2 0x16D8 JUMP JUMPDEST SWAP1 POP SWAP2 SWAP1 POP JUMP JUMPDEST PUSH1 0x0 PUSH2 0x2088 DUP3 PUSH2 0x208F JUMP JUMPDEST SWAP1 POP SWAP2 SWAP1 POP JUMP JUMPDEST PUSH1 0x0 PUSH2 0x209A DUP3 PUSH2 0x200A JUMP JUMPDEST SWAP1 POP SWAP2 SWAP1 POP JUMP JUMPDEST DUP3 DUP2 DUP4 CALLDATACOPY PUSH1 0x0 DUP4 DUP4 ADD MSTORE POP POP POP JUMP JUMPDEST PUSH1 0x0 JUMPDEST DUP4 DUP2 LT ISZERO PUSH2 0x20CE JUMPI DUP1 DUP3 ADD MLOAD DUP2 DUP5 ADD MSTORE PUSH1 0x20 DUP2 ADD SWAP1 POP PUSH2 0x20B3 JUMP JUMPDEST DUP4 DUP2 GT ISZERO PUSH2 0x20DD JUMPI PUSH1 0x0 DUP5 DUP5 ADD MSTORE JUMPDEST POP POP POP POP JUMP JUMPDEST PUSH2 0x20EC DUP3 PUSH2 0x21DD JUMP JUMPDEST DUP2 ADD DUP2 DUP2 LT PUSH8 0xFFFFFFFFFFFFFFFF DUP3 GT OR ISZERO PUSH2 0x210B JUMPI PUSH2 0x210A PUSH2 0x2172 JUMP JUMPDEST JUMPDEST DUP1 PUSH1 0x40 MSTORE POP POP POP JUMP JUMPDEST PUSH32 0x4E487B7100000000000000000000000000000000000000000000000000000000 PUSH1 0x0 MSTORE PUSH1 0x11 PUSH1 0x4 MSTORE PUSH1 0x24 PUSH1 0x0 REVERT JUMPDEST PUSH32 0x4E487B7100000000000000000000000000000000000000000000000000000000 PUSH1 0x0 MSTORE PUSH1 0x12 PUSH1 0x4 MSTORE PUSH1 0x24 PUSH1 0x0 REVERT JUMPDEST PUSH32 0x4E487B7100000000000000000000000000000000000000000000000000000000 PUSH1 0x0 MSTORE PUSH1 0x41 PUSH1 0x4 MSTORE PUSH1 0x24 PUSH1 0x0 REVERT JUMPDEST PUSH1 0x0 DUP1 REVERT JUMPDEST PUSH1 0x0 DUP1 REVERT JUMPDEST PUSH1 0x0 DUP1 REVERT JUMPDEST PUSH1 0x0 DUP1 REVERT JUMPDEST PUSH1 0x0 DUP1 REVERT JUMPDEST PUSH1 0x0 DUP1 REVERT JUMPDEST PUSH1 0x0 DUP1 REVERT JUMPDEST PUSH1 0x0 DUP1 REVERT JUMPDEST PUSH1 0x0 DUP1 REVERT JUMPDEST PUSH1 0x0 DUP1 REVERT JUMPDEST PUSH1 0x0 DUP1 REVERT JUMPDEST PUSH1 0x0 DUP1 REVERT JUMPDEST PUSH1 0x0 PUSH1 0x1F NOT PUSH1 0x1F DUP4 ADD AND SWAP1 POP SWAP2 SWAP1 POP JUMP JUMPDEST PUSH32 0x416464726573733A20696E73756666696369656E742062616C616E636520666F PUSH1 0x0 DUP3 ADD MSTORE PUSH32 0x722063616C6C0000000000000000000000000000000000000000000000000000 PUSH1 0x20 DUP3 ADD MSTORE POP JUMP JUMPDEST PUSH32 0x5468652063616C6C657220697320756E6B6E6F776E0000000000000000000000 PUSH1 0x0 DUP3 ADD MSTORE POP JUMP JUMPDEST PUSH32 0x43616E6E6F74206D696E7420616E64206275726E207468652073616D6520746F PUSH1 0x0 DUP3 ADD MSTORE PUSH32 0x6B656E0000000000000000000000000000000000000000000000000000000000 PUSH1 0x20 DUP3 ADD MSTORE POP JUMP JUMPDEST PUSH32 0x416464726573733A2063616C6C20746F206E6F6E2D636F6E7472616374000000 PUSH1 0x0 DUP3 ADD MSTORE POP JUMP JUMPDEST PUSH32 0x5361666545524332303A204552433230206F7065726174696F6E20646964206E PUSH1 0x0 DUP3 ADD MSTORE PUSH32 0x6F74207375636365656400000000000000000000000000000000000000000000 PUSH1 0x20 DUP3 ADD MSTORE POP JUMP JUMPDEST PUSH32 0x5265656E7472616E637947756172643A207265656E7472616E742063616C6C00 PUSH1 0x0 DUP3 ADD MSTORE POP JUMP JUMPDEST PUSH2 0x235F DUP2 PUSH2 0x1FBE JUMP JUMPDEST DUP2 EQ PUSH2 0x236A JUMPI PUSH1 0x0 DUP1 REVERT JUMPDEST POP JUMP JUMPDEST PUSH2 0x2376 DUP2 PUSH2 0x1FE2 JUMP JUMPDEST DUP2 EQ PUSH2 0x2381 JUMPI PUSH1 0x0 DUP1 REVERT JUMPDEST POP JUMP JUMPDEST PUSH2 0x238D DUP2 PUSH2 0x1FEE JUMP JUMPDEST DUP2 EQ PUSH2 0x2398 JUMPI PUSH1 0x0 DUP1 REVERT JUMPDEST POP JUMP JUMPDEST PUSH2 0x23A4 DUP2 PUSH2 0x1FF8 JUMP JUMPDEST DUP2 EQ PUSH2 0x23AF JUMPI PUSH1 0x0 DUP1 REVERT JUMPDEST POP JUMP JUMPDEST PUSH2 0x23BB DUP2 PUSH2 0x202A JUMP JUMPDEST DUP2 EQ PUSH2 0x23C6 JUMPI PUSH1 0x0 DUP1 REVERT JUMPDEST POP JUMP INVALID COINBASE PUSH5 0x6472657373 GASPRICE KECCAK256 PUSH13 0x6F772D6C6576656C2063616C6C KECCAK256 PUSH24 0x6974682076616C7565206661696C6564A264697066735822 SLT KECCAK256 STOP 0x49 0xED PUSH14 0x4B5C8342C0DCE9A4E51CF4484612 SWAP15 PUSH15 0xDDC9064172E11E08CDDA300264736F PUSH13 0x63430008060033000000000000 "
        },
        "gasEstimates": {
          "creation": {
            "codeDepositCost": "1851200",
            "executionCost": "infinite",
            "totalCost": "infinite"
          },
          "external": {
            "ETH_REPRESENTING_ADDRESS()": "379",
            "FEE()": "2451",
            "PERCENTAGE_DIVIDER()": "329",
            "currentBalance(address)": "infinite",
            "devWallet()": "2559",
            "registry()": "2580",
            "router()": "2580",
            "swap(address,address,address,uint256,bytes,(address,uint256,address,bytes),uint256,bytes32,bytes)": "infinite"
          },
          "internal": {
            "_swap(address,struct VarenRouter.SwapVars memory,uint256)": "infinite",
            "burnRenToken(uint256,struct VarenRouter.BurnVars memory)": "infinite",
            "mintRenToken(address,address,uint256,bytes32,bytes calldata)": "infinite",
            "safeTransferETH(address,uint256)": "infinite",
            "transferTokenOrETH(uint256,struct VarenRouter.SwapVars memory,uint256,address)": "infinite"
          }
        },
        "methodIdentifiers": {
          "ETH_REPRESENTING_ADDRESS()": "06693fec",
          "FEE()": "c57981b5",
          "PERCENTAGE_DIVIDER()": "bb60aaa7",
          "currentBalance(address)": "9e546c38",
          "devWallet()": "8ea5220f",
          "registry()": "7b103999",
          "router()": "f887ea40",
          "swap(address,address,address,uint256,bytes,(address,uint256,address,bytes),uint256,bytes32,bytes)": "d4142b5f"
        }
      },
      "storageLayout": {
        "storage": [
          {
            "astId": 10,
            "contract": "contracts/VarenRouter.sol:VarenRouter",
            "label": "_status",
            "offset": 0,
            "slot": "0",
            "type": "t_uint256"
          },
          {
            "astId": 1253,
            "contract": "contracts/VarenRouter.sol:VarenRouter",
            "label": "FEE",
            "offset": 0,
            "slot": "1",
            "type": "t_uint256"
          },
          {
            "astId": 1259,
            "contract": "contracts/VarenRouter.sol:VarenRouter",
            "label": "registry",
            "offset": 0,
            "slot": "2",
            "type": "t_contract(IGatewayRegistry)1917"
          },
          {
            "astId": 1261,
            "contract": "contracts/VarenRouter.sol:VarenRouter",
            "label": "router",
            "offset": 0,
            "slot": "3",
            "type": "t_address"
          },
          {
            "astId": 1263,
            "contract": "contracts/VarenRouter.sol:VarenRouter",
            "label": "devWallet",
            "offset": 0,
            "slot": "4",
            "type": "t_address_payable"
          }
        ],
        "types": {
          "t_address": {
            "encoding": "inplace",
            "label": "address",
            "numberOfBytes": "20"
          },
          "t_address_payable": {
            "encoding": "inplace",
            "label": "address payable",
            "numberOfBytes": "20"
          },
          "t_contract(IGatewayRegistry)1917": {
            "encoding": "inplace",
            "label": "contract IGatewayRegistry",
            "numberOfBytes": "20"
          },
          "t_uint256": {
            "encoding": "inplace",
            "label": "uint256",
            "numberOfBytes": "32"
          }
        }
      },
      "userdoc": {
        "kind": "user",
        "methods": {},
        "version": 1
      }
    }
  }
}