{
  "_format": "hh-sol-artifact-1",
  "contractName": "VarenRouter",
  "sourceName": "contracts/VarenSwap.sol",
  "abi": [
    {
      "inputs": [
        {
          "internalType": "address",
          "name": "_controller",
          "type": "address"
        },
        {
          "internalType": "address",
          "name": "_router",
          "type": "address"
        },
        {
          "internalType": "address",
          "name": "_registry",
          "type": "address"
        },
        {
          "internalType": "address payable",
          "name": "_devWallet",
          "type": "address"
        },
        {
          "internalType": "uint256",
          "name": "_blockTimeout",
          "type": "uint256"
        }
      ],
      "stateMutability": "nonpayable",
      "type": "constructor"
    },
    {
      "anonymous": false,
      "inputs": [
        {
          "indexed": true,
          "internalType": "address",
          "name": "sender",
          "type": "address"
        },
        {
          "indexed": false,
          "internalType": "uint256",
          "name": "amount",
          "type": "uint256"
        }
      ],
      "name": "Burn",
      "type": "event"
    },
    {
      "anonymous": false,
      "inputs": [
        {
          "indexed": true,
          "internalType": "address",
          "name": "sender",
          "type": "address"
        },
        {
          "indexed": false,
          "internalType": "uint256",
          "name": "amount",
          "type": "uint256"
        }
      ],
      "name": "Mint",
      "type": "event"
    },
    {
      "anonymous": false,
      "inputs": [
        {
          "indexed": true,
          "internalType": "address",
          "name": "sender",
          "type": "address"
        },
        {
          "indexed": true,
          "internalType": "address",
          "name": "from",
          "type": "address"
        },
        {
          "indexed": true,
          "internalType": "address",
          "name": "to",
          "type": "address"
        },
        {
          "indexed": false,
          "internalType": "uint256",
          "name": "amount",
          "type": "uint256"
        }
      ],
      "name": "Swap",
      "type": "event"
    },
    {
      "inputs": [],
      "name": "FEE",
      "outputs": [
        {
          "internalType": "uint256",
          "name": "",
          "type": "uint256"
        }
      ],
      "stateMutability": "view",
      "type": "function"
    },
    {
      "inputs": [],
      "name": "PERCENTAGE_DIVIDER",
      "outputs": [
        {
          "internalType": "uint256",
          "name": "",
          "type": "uint256"
        }
      ],
      "stateMutability": "view",
      "type": "function"
    },
    {
      "inputs": [],
      "name": "blockTimeout",
      "outputs": [
        {
          "internalType": "uint256",
          "name": "",
          "type": "uint256"
        }
      ],
      "stateMutability": "view",
      "type": "function"
    },
    {
      "inputs": [],
      "name": "controller",
      "outputs": [
        {
          "internalType": "address",
          "name": "",
          "type": "address"
        }
      ],
      "stateMutability": "view",
      "type": "function"
    },
    {
      "inputs": [
        {
          "internalType": "address",
          "name": "_token",
          "type": "address"
        }
      ],
      "name": "currentBalance",
      "outputs": [
        {
          "internalType": "uint256",
          "name": "balance",
          "type": "uint256"
        }
      ],
      "stateMutability": "view",
      "type": "function"
    },
    {
      "inputs": [
        {
          "internalType": "uint256",
          "name": "_nonce",
          "type": "uint256"
        }
      ],
      "name": "defaultLoan",
      "outputs": [],
      "stateMutability": "nonpayable",
      "type": "function"
    },
    {
      "inputs": [],
      "name": "devWallet",
      "outputs": [
        {
          "internalType": "address payable",
          "name": "",
          "type": "address"
        }
      ],
      "stateMutability": "view",
      "type": "function"
    },
    {
      "inputs": [
        {
          "internalType": "address",
          "name": "_to",
          "type": "address"
        },
        {
          "internalType": "address",
          "name": "_inToken",
          "type": "address"
        },
        {
          "internalType": "uint256",
          "name": "_amount",
          "type": "uint256"
        },
        {
          "internalType": "uint256",
          "name": "_nonce",
          "type": "uint256"
        },
        {
          "internalType": "bytes",
          "name": "_data",
          "type": "bytes"
        }
      ],
      "name": "receiveLoan",
      "outputs": [],
      "stateMutability": "nonpayable",
      "type": "function"
    },
    {
      "inputs": [
        {
          "internalType": "uint256",
          "name": "",
          "type": "uint256"
        }
      ],
      "name": "records",
      "outputs": [
        {
          "internalType": "address",
          "name": "inToken",
          "type": "address"
        },
        {
          "internalType": "address",
          "name": "outToken",
          "type": "address"
        },
        {
          "internalType": "address",
          "name": "to",
          "type": "address"
        },
        {
          "internalType": "uint256",
          "name": "when",
          "type": "uint256"
        },
        {
          "internalType": "uint256",
          "name": "qty",
          "type": "uint256"
        },
        {
          "internalType": "uint256",
          "name": "qtyFee",
          "type": "uint256"
        },
        {
          "internalType": "bytes",
          "name": "burnSendTo",
          "type": "bytes"
        }
      ],
      "stateMutability": "view",
      "type": "function"
    },
    {
      "inputs": [],
      "name": "registry",
      "outputs": [
        {
          "internalType": "contract IGatewayRegistry",
          "name": "",
          "type": "address"
        }
      ],
      "stateMutability": "view",
      "type": "function"
    },
    {
      "inputs": [
        {
          "internalType": "address",
          "name": "",
          "type": "address"
        },
        {
          "internalType": "address",
          "name": "",
          "type": "address"
        },
        {
          "internalType": "uint256",
          "name": "",
          "type": "uint256"
        },
        {
          "internalType": "uint256",
          "name": "_nonce",
          "type": "uint256"
        },
        {
          "internalType": "bytes",
          "name": "",
          "type": "bytes"
        }
      ],
      "name": "repayLoan",
      "outputs": [],
      "stateMutability": "nonpayable",
      "type": "function"
    },
    {
      "inputs": [],
      "name": "router",
      "outputs": [
        {
          "internalType": "address",
          "name": "",
          "type": "address"
        }
      ],
      "stateMutability": "view",
      "type": "function"
    },
    {
      "inputs": [],
      "name": "sushiRouter",
      "outputs": [
        {
          "internalType": "address",
          "name": "",
          "type": "address"
        }
      ],
      "stateMutability": "view",
      "type": "function"
    },
    {
      "inputs": [],
      "name": "weth",
      "outputs": [
        {
          "internalType": "address",
          "name": "",
          "type": "address"
        }
      ],
      "stateMutability": "view",
      "type": "function"
    },
    {
      "stateMutability": "payable",
      "type": "receive"
    }
  ],
  "bytecode": "0x61012060405260326001553480156200001757600080fd5b5060405162002bf138038062002bf183398181016040528101906200003d91906200017a565b60016000819055508473ffffffffffffffffffffffffffffffffffffffff166101008173ffffffffffffffffffffffffffffffffffffffff1660601b815250508373ffffffffffffffffffffffffffffffffffffffff1660a08173ffffffffffffffffffffffffffffffffffffffff1660601b815250508273ffffffffffffffffffffffffffffffffffffffff1660808173ffffffffffffffffffffffffffffffffffffffff1660601b815250508173ffffffffffffffffffffffffffffffffffffffff1660c08173ffffffffffffffffffffffffffffffffffffffff1660601b815250508060e081815250505050505050620002a7565b600081519050620001468162000259565b92915050565b6000815190506200015d8162000273565b92915050565b60008151905062000174816200028d565b92915050565b600080600080600060a0868803121562000199576200019862000254565b5b6000620001a98882890162000135565b9550506020620001bc8882890162000135565b9450506040620001cf8882890162000135565b9350506060620001e2888289016200014c565b9250506080620001f58882890162000163565b9150509295509295909350565b60006200020f826200022a565b9050919050565b600062000223826200022a565b9050919050565b600073ffffffffffffffffffffffffffffffffffffffff82169050919050565b6000819050919050565b600080fd5b620002648162000202565b81146200027057600080fd5b50565b6200027e8162000216565b81146200028a57600080fd5b50565b62000298816200024a565b8114620002a457600080fd5b50565b60805160601c60a05160601c60c05160601c60e0516101005160601c6128ba620003376000396000818161036d01528181610a6401528181610cab0152610cf30152600081816109d00152610bc4015260008181610be80152610e88015260008181610507015281816105bb015281816106710152610ccf015260008181610ba0015261134c01526128ba6000f3fe6080604052600436106100e15760003560e01c80638ea5220f1161007f578063c57981b511610059578063c57981b5146102c1578063f77c4791146102ec578063f887ea4014610317578063fd8e915414610342576100e8565b80638ea5220f1461022e5780639e546c3814610259578063bb60aaa714610296576100e8565b806367bf61c4116100bb57806367bf61c4146101845780636d13582c146101ad5780637b103999146101d857806380e7165514610203576100e8565b80631639743b146100ed57806334461067146101165780633fc8cef314610159576100e8565b366100e857005b600080fd5b3480156100f957600080fd5b50610114600480360381019061010f9190611ba7565b61036b565b005b34801561012257600080fd5b5061013d60048036038101906101389190611ce1565b610875565b6040516101509796959493929190612053565b60405180910390f35b34801561016557600080fd5b5061016e61099f565b60405161017b9190611ff4565b60405180910390f35b34801561019057600080fd5b506101ab60048036038101906101a69190611ce1565b6109b7565b005b3480156101b957600080fd5b506101c2610b86565b6040516101cf9190611ff4565b60405180910390f35b3480156101e457600080fd5b506101ed610b9e565b6040516101fa9190612122565b60405180910390f35b34801561020f57600080fd5b50610218610bc2565b60405161022591906121ff565b60405180910390f35b34801561023a57600080fd5b50610243610be6565b604051610250919061200f565b60405180910390f35b34801561026557600080fd5b50610280600480360381019061027b9190611aef565b610c0a565b60405161028d91906121ff565b60405180910390f35b3480156102a257600080fd5b506102ab610c9c565b6040516102b891906121ff565b60405180910390f35b3480156102cd57600080fd5b506102d6610ca3565b6040516102e391906121ff565b60405180910390f35b3480156102f857600080fd5b50610301610ca9565b60405161030e9190611ff4565b60405180910390f35b34801561032357600080fd5b5061032c610ccd565b6040516103399190611ff4565b60405180910390f35b34801561034e57600080fd5b5061036960048036038101906103649190611ba7565b610cf1565b005b7f000000000000000000000000000000000000000000000000000000000000000073ffffffffffffffffffffffffffffffffffffffff163373ffffffffffffffffffffffffffffffffffffffff16146103f9576040517f08c379a00000000000000000000000000000000000000000000000000000000081526004016103f09061215f565b60405180910390fd5b610401611791565b4381606001818152505085816040019073ffffffffffffffffffffffffffffffffffffffff16908173ffffffffffffffffffffffffffffffffffffffff168152505084816000019073ffffffffffffffffffffffffffffffffffffffff16908173ffffffffffffffffffffffffffffffffffffffff16815250506060828060200190518101906104919190611b1c565b846020018560c0018295508390528373ffffffffffffffffffffffffffffffffffffffff1673ffffffffffffffffffffffffffffffffffffffff1681525050505060006104e18360200151610c0a565b905085836000015173ffffffffffffffffffffffffffffffffffffffff1663dd62ed3e307f00000000000000000000000000000000000000000000000000000000000000006040518363ffffffff1660e01b815260040161054392919061202a565b60206040518083038186803b15801561055b57600080fd5b505afa15801561056f573d6000803e3d6000fd5b505050506040513d601f19601f820116820180604052508101906105939190611d0e565b101561066c57826000015173ffffffffffffffffffffffffffffffffffffffff1663095ea7b37f00000000000000000000000000000000000000000000000000000000000000007fffffffffffffffffffffffffffffffffffffffffffffffffffffffffffffffff6040518363ffffffff1660e01b81526004016106189291906120c9565b602060405180830381600087803b15801561063257600080fd5b505af1158015610646573d6000803e3d6000fd5b505050506040513d601f19601f8201168201806040525081019061066a9190611c87565b505b6106967f000000000000000000000000000000000000000000000000000000000000000083610f98565b50806106a58460200151610c0a565b6106af9190612468565b836080018181525050826002600087815260200190815260200160002060008201518160000160006101000a81548173ffffffffffffffffffffffffffffffffffffffff021916908373ffffffffffffffffffffffffffffffffffffffff16021790555060208201518160010160006101000a81548173ffffffffffffffffffffffffffffffffffffffff021916908373ffffffffffffffffffffffffffffffffffffffff16021790555060408201518160020160006101000a81548173ffffffffffffffffffffffffffffffffffffffff021916908373ffffffffffffffffffffffffffffffffffffffff160217905550606082015181600301556080820151816004015560a0820151816005015560c08201518160060190805190602001906107db929190611810565b50905050826020015173ffffffffffffffffffffffffffffffffffffffff16836000015173ffffffffffffffffffffffffffffffffffffffff16846040015173ffffffffffffffffffffffffffffffffffffffff167fffebebfb273923089a3ed6bac0fd4686ac740307859becadeb82f998e30db614866080015160405161086391906121ff565b60405180910390a45050505050505050565b60026020528060005260406000206000915090508060000160009054906101000a900473ffffffffffffffffffffffffffffffffffffffff16908060010160009054906101000a900473ffffffffffffffffffffffffffffffffffffffff16908060020160009054906101000a900473ffffffffffffffffffffffffffffffffffffffff169080600301549080600401549080600501549080600601805461091c90612580565b80601f016020809104026020016040519081016040528092919081815260200182805461094890612580565b80156109955780601f1061096a57610100808354040283529160200191610995565b820191906000526020600020905b81548152906001019060200180831161097857829003601f168201915b5050505050905087565b730d500b1d8e8ef31e21c99d1db9a6444d3adf127081565b60006002600083815260200190815260200160002090507f000000000000000000000000000000000000000000000000000000000000000081600301546109fe9190612387565b431015610a0a57600080fd5b600081600401541415610a52576040517f08c379a0000000000000000000000000000000000000000000000000000000008152600401610a499061219f565b60405180910390fd5b6000610a5d82610fe2565b9050610ace7f0000000000000000000000000000000000000000000000000000000000000000828460010160009054906101000a900473ffffffffffffffffffffffffffffffffffffffff1673ffffffffffffffffffffffffffffffffffffffff166110429092919063ffffffff16565b60026000848152602001908152602001600020600080820160006101000a81549073ffffffffffffffffffffffffffffffffffffffff02191690556001820160006101000a81549073ffffffffffffffffffffffffffffffffffffffff02191690556002820160006101000a81549073ffffffffffffffffffffffffffffffffffffffff0219169055600382016000905560048201600090556005820160009055600682016000610b7f9190611896565b5050505050565b731b02da8cb0d097eb8d57a175b88c7d8b4799750681565b7f000000000000000000000000000000000000000000000000000000000000000081565b7f000000000000000000000000000000000000000000000000000000000000000081565b7f000000000000000000000000000000000000000000000000000000000000000081565b60008173ffffffffffffffffffffffffffffffffffffffff166370a08231306040518263ffffffff1660e01b8152600401610c459190611ff4565b60206040518083038186803b158015610c5d57600080fd5b505afa158015610c71573d6000803e3d6000fd5b505050506040513d601f19601f82011682018060405250810190610c959190611d0e565b9050919050565b620186a081565b60015481565b7f000000000000000000000000000000000000000000000000000000000000000081565b7f000000000000000000000000000000000000000000000000000000000000000081565b7f000000000000000000000000000000000000000000000000000000000000000073ffffffffffffffffffffffffffffffffffffffff163373ffffffffffffffffffffffffffffffffffffffff1614610d7f576040517f08c379a0000000000000000000000000000000000000000000000000000000008152600401610d769061215f565b60405180910390fd5b6000600260008481526020019081526020016000209050600081600401541415610dde576040517f08c379a0000000000000000000000000000000000000000000000000000000008152600401610dd59061219f565b60405180910390fd5b6000816004015490506000610e13620186a0610e05846001546110c890919063ffffffff16565b6110de90919063ffffffff16565b90506000610e2a82846110f490919063ffffffff16565b90506000610e818560010160009054906101000a900473ffffffffffffffffffffffffffffffffffffffff168660000160009054906101000a900473ffffffffffffffffffffffffffffffffffffffff168561110a565b9050610ef27f0000000000000000000000000000000000000000000000000000000000000000828760000160009054906101000a900473ffffffffffffffffffffffffffffffffffffffff1673ffffffffffffffffffffffffffffffffffffffff166110429092919063ffffffff16565b6000856006018054610f0390612580565b905014610f1857610f138561134a565b610f8c565b610f8b8560020160009054906101000a900473ffffffffffffffffffffffffffffffffffffffff16838760010160009054906101000a900473ffffffffffffffffffffffffffffffffffffffff1673ffffffffffffffffffffffffffffffffffffffff166110429092919063ffffffff16565b5b50505050505050505050565b6060610fda83836040518060400160405280601e81526020017f416464726573733a206c6f772d6c6576656c2063616c6c206661696c65640000815250611524565b905092915050565b600061103b8260010160009054906101000a900473ffffffffffffffffffffffffffffffffffffffff168360000160009054906101000a900473ffffffffffffffffffffffffffffffffffffffff16846004015461110a565b9050919050565b6110c38363a9059cbb60e01b84846040516024016110619291906120c9565b604051602081830303815290604052907bffffffffffffffffffffffffffffffffffffffffffffffffffffffff19166020820180517bffffffffffffffffffffffffffffffffffffffffffffffffffffffff838183161783525050505061153c565b505050565b600081836110d6919061240e565b905092915050565b600081836110ec91906123dd565b905092915050565b600081836111029190612468565b905092915050565b600080600367ffffffffffffffff8111156111285761112761269f565b5b6040519080825280602002602001820160405280156111565781602001602082028036833780820191505090505b509050848160008151811061116e5761116d612670565b5b602002602001019073ffffffffffffffffffffffffffffffffffffffff16908173ffffffffffffffffffffffffffffffffffffffff1681525050730d500b1d8e8ef31e21c99d1db9a6444d3adf1270816001815181106111d1576111d0612670565b5b602002602001019073ffffffffffffffffffffffffffffffffffffffff16908173ffffffffffffffffffffffffffffffffffffffff168152505083816002815181106112205761121f612670565b5b602002602001019073ffffffffffffffffffffffffffffffffffffffff16908173ffffffffffffffffffffffffffffffffffffffff16815250506000731b02da8cb0d097eb8d57a175b88c7d8b4799750673ffffffffffffffffffffffffffffffffffffffff166338ed1739856001853060014261129e9190612387565b6040518663ffffffff1660e01b81526004016112be95949392919061221a565b600060405180830381600087803b1580156112d857600080fd5b505af11580156112ec573d6000803e3d6000fd5b505050506040513d6000823e3d601f19601f820116820180604052508101906113159190611c3e565b905080600182516113269190612468565b8151811061133757611336612670565b5b6020026020010151925050509392505050565b7f000000000000000000000000000000000000000000000000000000000000000073ffffffffffffffffffffffffffffffffffffffff16631b95e3058260010160009054906101000a900473ffffffffffffffffffffffffffffffffffffffff166040518263ffffffff1660e01b81526004016113c79190611ff4565b60206040518083038186803b1580156113df57600080fd5b505afa1580156113f3573d6000803e3d6000fd5b505050506040513d601f19601f820116820180604052508101906114179190611cb4565b73ffffffffffffffffffffffffffffffffffffffff166338463cff8260060183600401546040518363ffffffff1660e01b81526004016114589291906120f2565b602060405180830381600087803b15801561147257600080fd5b505af1158015611486573d6000803e3d6000fd5b505050506040513d601f19601f820116820180604052508101906114aa9190611d0e565b508060020160009054906101000a900473ffffffffffffffffffffffffffffffffffffffff1673ffffffffffffffffffffffffffffffffffffffff167fcc16f5dbb4873280815c1ee09dbd06736cffcc184412cf7a71a0fdb75d397ca5826004015460405161151991906121ff565b60405180910390a250565b60606115338484600085611603565b90509392505050565b600061159e826040518060400160405280602081526020017f5361666545524332303a206c6f772d6c6576656c2063616c6c206661696c65648152508573ffffffffffffffffffffffffffffffffffffffff166115249092919063ffffffff16565b90506000815111156115fe57808060200190518101906115be9190611c87565b6115fd576040517f08c379a00000000000000000000000000000000000000000000000000000000081526004016115f4906121df565b60405180910390fd5b5b505050565b606082471015611648576040517f08c379a000000000000000000000000000000000000000000000000000000000815260040161163f9061217f565b60405180910390fd5b61165185611717565b611690576040517f08c379a0000000000000000000000000000000000000000000000000000000008152600401611687906121bf565b60405180910390fd5b6000808673ffffffffffffffffffffffffffffffffffffffff1685876040516116b99190611fdd565b60006040518083038185875af1925050503d80600081146116f6576040519150601f19603f3d011682016040523d82523d6000602084013e6116fb565b606091505b509150915061170b82828661172a565b92505050949350505050565b600080823b905060008111915050919050565b6060831561173a5782905061178a565b60008351111561174d5782518084602001fd5b816040517f08c379a0000000000000000000000000000000000000000000000000000000008152600401611781919061213d565b60405180910390fd5b9392505050565b6040518060e00160405280600073ffffffffffffffffffffffffffffffffffffffff168152602001600073ffffffffffffffffffffffffffffffffffffffff168152602001600073ffffffffffffffffffffffffffffffffffffffff168152602001600081526020016000815260200160008152602001606081525090565b82805461181c90612580565b90600052602060002090601f01602090048101928261183e5760008555611885565b82601f1061185757805160ff1916838001178555611885565b82800160010185558215611885579182015b82811115611884578251825591602001919060010190611869565b5b50905061189291906118d6565b5090565b5080546118a290612580565b6000825580601f106118b457506118d3565b601f0160209004906000526020600020908101906118d291906118d6565b5b50565b5b808211156118ef5760008160009055506001016118d7565b5090565b600061190661190184612299565b612274565b90508083825260208201905082856020860282011115611929576119286126d3565b5b60005b85811015611959578161193f8882611ada565b84526020840193506020830192505060018101905061192c565b5050509392505050565b6000611976611971846122c5565b612274565b905082815260208101848484011115611992576119916126d8565b5b61199d84828561253e565b509392505050565b60006119b86119b3846122c5565b612274565b9050828152602081018484840111156119d4576119d36126d8565b5b6119df84828561254d565b509392505050565b6000813590506119f681612811565b92915050565b600081519050611a0b81612828565b92915050565b600082601f830112611a2657611a256126ce565b5b8151611a368482602086016118f3565b91505092915050565b600081519050611a4e8161283f565b92915050565b600082601f830112611a6957611a686126ce565b5b8135611a79848260208601611963565b91505092915050565b600082601f830112611a9757611a966126ce565b5b8151611aa78482602086016119a5565b91505092915050565b600081519050611abf81612856565b92915050565b600081359050611ad48161286d565b92915050565b600081519050611ae98161286d565b92915050565b600060208284031215611b0557611b046126e2565b5b6000611b13848285016119e7565b91505092915050565b600080600060608486031215611b3557611b346126e2565b5b6000611b43868287016119fc565b935050602084015167ffffffffffffffff811115611b6457611b636126dd565b5b611b7086828701611a82565b925050604084015167ffffffffffffffff811115611b9157611b906126dd565b5b611b9d86828701611a82565b9150509250925092565b600080600080600060a08688031215611bc357611bc26126e2565b5b6000611bd1888289016119e7565b9550506020611be2888289016119e7565b9450506040611bf388828901611ac5565b9350506060611c0488828901611ac5565b925050608086013567ffffffffffffffff811115611c2557611c246126dd565b5b611c3188828901611a54565b9150509295509295909350565b600060208284031215611c5457611c536126e2565b5b600082015167ffffffffffffffff811115611c7257611c716126dd565b5b611c7e84828501611a11565b91505092915050565b600060208284031215611c9d57611c9c6126e2565b5b6000611cab84828501611a3f565b91505092915050565b600060208284031215611cca57611cc96126e2565b5b6000611cd884828501611ab0565b91505092915050565b600060208284031215611cf757611cf66126e2565b5b6000611d0584828501611ac5565b91505092915050565b600060208284031215611d2457611d236126e2565b5b6000611d3284828501611ada565b91505092915050565b6000611d478383611d62565b60208301905092915050565b611d5c816124ae565b82525050565b611d6b8161249c565b82525050565b611d7a8161249c565b82525050565b6000611d8b8261231b565b611d958185612349565b9350611da0836122f6565b8060005b83811015611dd1578151611db88882611d3b565b9750611dc38361233c565b925050600181019050611da4565b5085935050505092915050565b6000611de982612326565b611df3818561235a565b9350611e0381856020860161254d565b611e0c816126e7565b840191505092915050565b6000611e2282612326565b611e2c818561236b565b9350611e3c81856020860161254d565b80840191505092915050565b60008154611e5581612580565b611e5f818661235a565b94506001821660008114611e7a5760018114611e8c57611ebf565b60ff1983168652602086019350611ebf565b611e9585612306565b60005b83811015611eb757815481890152600182019150602081019050611e98565b808801955050505b50505092915050565b611ed181612508565b82525050565b611ee08161252c565b82525050565b6000611ef182612331565b611efb8185612376565b9350611f0b81856020860161254d565b611f14816126e7565b840191505092915050565b6000611f2c600b83612376565b9150611f37826126f8565b602082019050919050565b6000611f4f602683612376565b9150611f5a82612721565b604082019050919050565b6000611f72600c83612376565b9150611f7d82612770565b602082019050919050565b6000611f95601d83612376565b9150611fa082612799565b602082019050919050565b6000611fb8602a83612376565b9150611fc3826127c2565b604082019050919050565b611fd7816124fe565b82525050565b6000611fe98284611e17565b915081905092915050565b60006020820190506120096000830184611d71565b92915050565b60006020820190506120246000830184611d53565b92915050565b600060408201905061203f6000830185611d71565b61204c6020830184611d71565b9392505050565b600060e082019050612068600083018a611d71565b6120756020830189611d71565b6120826040830188611d71565b61208f6060830187611fce565b61209c6080830186611fce565b6120a960a0830185611fce565b81810360c08301526120bb8184611dde565b905098975050505050505050565b60006040820190506120de6000830185611d71565b6120eb6020830184611fce565b9392505050565b6000604082019050818103600083015261210c8185611e48565b905061211b6020830184611fce565b9392505050565b60006020820190506121376000830184611ec8565b92915050565b600060208201905081810360008301526121578184611ee6565b905092915050565b6000602082019050818103600083015261217881611f1f565b9050919050565b6000602082019050818103600083015261219881611f42565b9050919050565b600060208201905081810360008301526121b881611f65565b9050919050565b600060208201905081810360008301526121d881611f88565b9050919050565b600060208201905081810360008301526121f881611fab565b9050919050565b60006020820190506122146000830184611fce565b92915050565b600060a08201905061222f6000830188611fce565b61223c6020830187611ed7565b818103604083015261224e8186611d80565b905061225d6060830185611d71565b61226a6080830184611fce565b9695505050505050565b600061227e61228f565b905061228a82826125b2565b919050565b6000604051905090565b600067ffffffffffffffff8211156122b4576122b361269f565b5b602082029050602081019050919050565b600067ffffffffffffffff8211156122e0576122df61269f565b5b6122e9826126e7565b9050602081019050919050565b6000819050602082019050919050565b60008190508160005260206000209050919050565b600081519050919050565b600081519050919050565b600081519050919050565b6000602082019050919050565b600082825260208201905092915050565b600082825260208201905092915050565b600081905092915050565b600082825260208201905092915050565b6000612392826124fe565b915061239d836124fe565b9250827fffffffffffffffffffffffffffffffffffffffffffffffffffffffffffffffff038211156123d2576123d16125e3565b5b828201905092915050565b60006123e8826124fe565b91506123f3836124fe565b92508261240357612402612612565b5b828204905092915050565b6000612419826124fe565b9150612424836124fe565b9250817fffffffffffffffffffffffffffffffffffffffffffffffffffffffffffffffff048311821515161561245d5761245c6125e3565b5b828202905092915050565b6000612473826124fe565b915061247e836124fe565b925082821015612491576124906125e3565b5b828203905092915050565b60006124a7826124de565b9050919050565b60006124b9826124de565b9050919050565b60008115159050919050565b60006124d78261249c565b9050919050565b600073ffffffffffffffffffffffffffffffffffffffff82169050919050565b6000819050919050565b60006125138261251a565b9050919050565b6000612525826124de565b9050919050565b6000612537826124fe565b9050919050565b82818337600083830152505050565b60005b8381101561256b578082015181840152602081019050612550565b8381111561257a576000848401525b50505050565b6000600282049050600182168061259857607f821691505b602082108114156125ac576125ab612641565b5b50919050565b6125bb826126e7565b810181811067ffffffffffffffff821117156125da576125d961269f565b5b80604052505050565b7f4e487b7100000000000000000000000000000000000000000000000000000000600052601160045260246000fd5b7f4e487b7100000000000000000000000000000000000000000000000000000000600052601260045260246000fd5b7f4e487b7100000000000000000000000000000000000000000000000000000000600052602260045260246000fd5b7f4e487b7100000000000000000000000000000000000000000000000000000000600052603260045260246000fd5b7f4e487b7100000000000000000000000000000000000000000000000000000000600052604160045260246000fd5b600080fd5b600080fd5b600080fd5b600080fd5b600080fd5b6000601f19601f8301169050919050565b7f21636f6e74726f6c6c6572000000000000000000000000000000000000000000600082015250565b7f416464726573733a20696e73756666696369656e742062616c616e636520666f60008201527f722063616c6c0000000000000000000000000000000000000000000000000000602082015250565b7f216f75747374616e64696e670000000000000000000000000000000000000000600082015250565b7f416464726573733a2063616c6c20746f206e6f6e2d636f6e7472616374000000600082015250565b7f5361666545524332303a204552433230206f7065726174696f6e20646964206e60008201527f6f74207375636365656400000000000000000000000000000000000000000000602082015250565b61281a8161249c565b811461282557600080fd5b50565b612831816124ae565b811461283c57600080fd5b50565b612848816124c0565b811461285357600080fd5b50565b61285f816124cc565b811461286a57600080fd5b50565b612876816124fe565b811461288157600080fd5b5056fea2646970667358221220e6feb76e9526c971fed4ef47965793309eb3db8cb957e250e1b6c9d61d05201464736f6c63430008060033",
  "linkReferences": {},
  "deployedLinkReferences": {}
}