{
  "_format": "hh-sol-artifact-1",
  "contractName": "VarenRouter",
  "sourceName": "contracts/VarenSwap.sol",
  "abi": [
    {
      "inputs": [
        {
          "internalType": "address",
          "name": "_controller",
          "type": "address"
        },
        {
          "internalType": "address",
          "name": "_router",
          "type": "address"
        },
        {
          "internalType": "address",
          "name": "_registry",
          "type": "address"
        },
        {
          "internalType": "address payable",
          "name": "_devWallet",
          "type": "address"
        },
        {
          "internalType": "uint256",
          "name": "_blockTimeout",
          "type": "uint256"
        }
      ],
      "stateMutability": "nonpayable",
      "type": "constructor"
    },
    {
      "anonymous": false,
      "inputs": [
        {
          "indexed": true,
          "internalType": "address",
          "name": "sender",
          "type": "address"
        },
        {
          "indexed": false,
          "internalType": "uint256",
          "name": "amount",
          "type": "uint256"
        }
      ],
      "name": "Burn",
      "type": "event"
    },
    {
      "anonymous": false,
      "inputs": [
        {
          "indexed": true,
          "internalType": "address",
          "name": "sender",
          "type": "address"
        },
        {
          "indexed": false,
          "internalType": "uint256",
          "name": "amount",
          "type": "uint256"
        }
      ],
      "name": "Mint",
      "type": "event"
    },
    {
      "anonymous": false,
      "inputs": [
        {
          "indexed": true,
          "internalType": "address",
          "name": "sender",
          "type": "address"
        },
        {
          "indexed": true,
          "internalType": "address",
          "name": "from",
          "type": "address"
        },
        {
          "indexed": true,
          "internalType": "address",
          "name": "to",
          "type": "address"
        },
        {
          "indexed": false,
          "internalType": "uint256",
          "name": "amount",
          "type": "uint256"
        }
      ],
      "name": "Swap",
      "type": "event"
    },
    {
      "inputs": [],
      "name": "FEE",
      "outputs": [
        {
          "internalType": "uint256",
          "name": "",
          "type": "uint256"
        }
      ],
      "stateMutability": "view",
      "type": "function"
    },
    {
      "inputs": [],
      "name": "PERCENTAGE_DIVIDER",
      "outputs": [
        {
          "internalType": "uint256",
          "name": "",
          "type": "uint256"
        }
      ],
      "stateMutability": "view",
      "type": "function"
    },
    {
      "inputs": [],
      "name": "blockTimeout",
      "outputs": [
        {
          "internalType": "uint256",
          "name": "",
          "type": "uint256"
        }
      ],
      "stateMutability": "view",
      "type": "function"
    },
    {
      "inputs": [],
      "name": "controller",
      "outputs": [
        {
          "internalType": "address",
          "name": "",
          "type": "address"
        }
      ],
      "stateMutability": "view",
      "type": "function"
    },
    {
      "inputs": [
        {
          "internalType": "address",
          "name": "_token",
          "type": "address"
        }
      ],
      "name": "currentBalance",
      "outputs": [
        {
          "internalType": "uint256",
          "name": "balance",
          "type": "uint256"
        }
      ],
      "stateMutability": "view",
      "type": "function"
    },
    {
      "inputs": [
        {
          "internalType": "uint256",
          "name": "_nonce",
          "type": "uint256"
        }
      ],
      "name": "defaultLoan",
      "outputs": [],
      "stateMutability": "nonpayable",
      "type": "function"
    },
    {
      "inputs": [],
      "name": "devWallet",
      "outputs": [
        {
          "internalType": "address payable",
          "name": "",
          "type": "address"
        }
      ],
      "stateMutability": "view",
      "type": "function"
    },
    {
      "inputs": [
        {
          "internalType": "address",
          "name": "_to",
          "type": "address"
        },
        {
          "internalType": "address",
          "name": "_inToken",
          "type": "address"
        },
        {
          "internalType": "uint256",
          "name": "_amount",
          "type": "uint256"
        },
        {
          "internalType": "uint256",
          "name": "_nonce",
          "type": "uint256"
        },
        {
          "internalType": "bytes",
          "name": "_data",
          "type": "bytes"
        }
      ],
      "name": "receiveLoan",
      "outputs": [],
      "stateMutability": "nonpayable",
      "type": "function"
    },
    {
      "inputs": [
        {
          "internalType": "uint256",
          "name": "",
          "type": "uint256"
        }
      ],
      "name": "records",
      "outputs": [
        {
          "internalType": "address",
          "name": "inToken",
          "type": "address"
        },
        {
          "internalType": "address",
          "name": "outToken",
          "type": "address"
        },
        {
          "internalType": "address",
          "name": "to",
          "type": "address"
        },
        {
          "internalType": "uint256",
          "name": "when",
          "type": "uint256"
        },
        {
          "internalType": "uint256",
          "name": "qty",
          "type": "uint256"
        },
        {
          "internalType": "bytes",
          "name": "burnSendTo",
          "type": "bytes"
        }
      ],
      "stateMutability": "view",
      "type": "function"
    },
    {
      "inputs": [],
      "name": "registry",
      "outputs": [
        {
          "internalType": "contract IGatewayRegistry",
          "name": "",
          "type": "address"
        }
      ],
      "stateMutability": "view",
      "type": "function"
    },
    {
      "inputs": [
        {
          "internalType": "address",
          "name": "",
          "type": "address"
        },
        {
          "internalType": "address",
          "name": "",
          "type": "address"
        },
        {
          "internalType": "uint256",
          "name": "",
          "type": "uint256"
        },
        {
          "internalType": "uint256",
          "name": "_nonce",
          "type": "uint256"
        },
        {
          "internalType": "bytes",
          "name": "",
          "type": "bytes"
        }
      ],
      "name": "repayLoan",
      "outputs": [],
      "stateMutability": "nonpayable",
      "type": "function"
    },
    {
      "inputs": [],
      "name": "router",
      "outputs": [
        {
          "internalType": "address",
          "name": "",
          "type": "address"
        }
      ],
      "stateMutability": "view",
      "type": "function"
    },
    {
      "inputs": [],
      "name": "sushiRouter",
      "outputs": [
        {
          "internalType": "address",
          "name": "",
          "type": "address"
        }
      ],
      "stateMutability": "view",
      "type": "function"
    },
    {
      "inputs": [],
      "name": "weth",
      "outputs": [
        {
          "internalType": "address",
          "name": "",
          "type": "address"
        }
      ],
      "stateMutability": "view",
      "type": "function"
    },
    {
      "stateMutability": "payable",
      "type": "receive"
    }
  ],
  "bytecode": "0x61012060405260326001553480156200001757600080fd5b50604051620029963803806200299683398181016040528101906200003d91906200017a565b60016000819055508473ffffffffffffffffffffffffffffffffffffffff166101008173ffffffffffffffffffffffffffffffffffffffff1660601b815250508373ffffffffffffffffffffffffffffffffffffffff1660a08173ffffffffffffffffffffffffffffffffffffffff1660601b815250508273ffffffffffffffffffffffffffffffffffffffff1660808173ffffffffffffffffffffffffffffffffffffffff1660601b815250508173ffffffffffffffffffffffffffffffffffffffff1660c08173ffffffffffffffffffffffffffffffffffffffff1660601b815250508060e081815250505050505050620002a7565b600081519050620001468162000259565b92915050565b6000815190506200015d8162000273565b92915050565b60008151905062000174816200028d565b92915050565b600080600080600060a0868803121562000199576200019862000254565b5b6000620001a98882890162000135565b9550506020620001bc8882890162000135565b9450506040620001cf8882890162000135565b9350506060620001e2888289016200014c565b9250506080620001f58882890162000163565b9150509295509295909350565b60006200020f826200022a565b9050919050565b600062000223826200022a565b9050919050565b600073ffffffffffffffffffffffffffffffffffffffff82169050919050565b6000819050919050565b600080fd5b620002648162000202565b81146200027057600080fd5b50565b6200027e8162000216565b81146200028a57600080fd5b50565b62000298816200024a565b8114620002a457600080fd5b50565b60805160601c60a05160601c60c05160601c60e0516101005160601c612666620003306000396000818161036c01528181610a5301528181610c920152610cda0152600081816109bf0152610bab01526000610bcf015260008181610506015281816105ba015281816106700152610cb6015260008181610b8701526111c701526126666000f3fe6080604052600436106100e15760003560e01c80638ea5220f1161007f578063c57981b511610059578063c57981b5146102c0578063f77c4791146102eb578063f887ea4014610316578063fd8e915414610341576100e8565b80638ea5220f1461022d5780639e546c3814610258578063bb60aaa714610295576100e8565b806367bf61c4116100bb57806367bf61c4146101835780636d13582c146101ac5780637b103999146101d757806380e7165514610202576100e8565b80631639743b146100ed57806334461067146101165780633fc8cef314610158576100e8565b366100e857005b600080fd5b3480156100f957600080fd5b50610114600480360381019061010f9190611a1b565b61036a565b005b34801561012257600080fd5b5061013d60048036038101906101389190611b55565b61086a565b60405161014f96959493929190611ec7565b60405180910390f35b34801561016457600080fd5b5061016d61098e565b60405161017a9190611e68565b60405180910390f35b34801561018f57600080fd5b506101aa60048036038101906101a59190611b55565b6109a6565b005b3480156101b857600080fd5b506101c1610b6d565b6040516101ce9190611e68565b60405180910390f35b3480156101e357600080fd5b506101ec610b85565b6040516101f99190611f88565b60405180910390f35b34801561020e57600080fd5b50610217610ba9565b6040516102249190612065565b60405180910390f35b34801561023957600080fd5b50610242610bcd565b60405161024f9190611e83565b60405180910390f35b34801561026457600080fd5b5061027f600480360381019061027a9190611963565b610bf1565b60405161028c9190612065565b60405180910390f35b3480156102a157600080fd5b506102aa610c83565b6040516102b79190612065565b60405180910390f35b3480156102cc57600080fd5b506102d5610c8a565b6040516102e29190612065565b60405180910390f35b3480156102f757600080fd5b50610300610c90565b60405161030d9190611e68565b60405180910390f35b34801561032257600080fd5b5061032b610cb4565b6040516103389190611e68565b60405180910390f35b34801561034d57600080fd5b5061036860048036038101906103639190611a1b565b610cd8565b005b7f000000000000000000000000000000000000000000000000000000000000000073ffffffffffffffffffffffffffffffffffffffff163373ffffffffffffffffffffffffffffffffffffffff16146103f8576040517f08c379a00000000000000000000000000000000000000000000000000000000081526004016103ef90611fc5565b60405180910390fd5b61040061160c565b4381606001818152505085816040019073ffffffffffffffffffffffffffffffffffffffff16908173ffffffffffffffffffffffffffffffffffffffff168152505084816000019073ffffffffffffffffffffffffffffffffffffffff16908173ffffffffffffffffffffffffffffffffffffffff16815250506060828060200190518101906104909190611990565b846020018560a0018295508390528373ffffffffffffffffffffffffffffffffffffffff1673ffffffffffffffffffffffffffffffffffffffff1681525050505060006104e08360200151610bf1565b905085836000015173ffffffffffffffffffffffffffffffffffffffff1663dd62ed3e307f00000000000000000000000000000000000000000000000000000000000000006040518363ffffffff1660e01b8152600401610542929190611e9e565b60206040518083038186803b15801561055a57600080fd5b505afa15801561056e573d6000803e3d6000fd5b505050506040513d601f19601f820116820180604052508101906105929190611b82565b101561066b57826000015173ffffffffffffffffffffffffffffffffffffffff1663095ea7b37f00000000000000000000000000000000000000000000000000000000000000007fffffffffffffffffffffffffffffffffffffffffffffffffffffffffffffffff6040518363ffffffff1660e01b8152600401610617929190611f2f565b602060405180830381600087803b15801561063157600080fd5b505af1158015610645573d6000803e3d6000fd5b505050506040513d601f19601f820116820180604052508101906106699190611afb565b505b6106957f000000000000000000000000000000000000000000000000000000000000000083610e6b565b50806106a48460200151610bf1565b6106ae9190612243565b836080018181525050826002600087815260200190815260200160002060008201518160000160006101000a81548173ffffffffffffffffffffffffffffffffffffffff021916908373ffffffffffffffffffffffffffffffffffffffff16021790555060208201518160010160006101000a81548173ffffffffffffffffffffffffffffffffffffffff021916908373ffffffffffffffffffffffffffffffffffffffff16021790555060408201518160020160006101000a81548173ffffffffffffffffffffffffffffffffffffffff021916908373ffffffffffffffffffffffffffffffffffffffff160217905550606082015181600301556080820151816004015560a08201518160050190805190602001906107d0929190611684565b50905050826020015173ffffffffffffffffffffffffffffffffffffffff16836000015173ffffffffffffffffffffffffffffffffffffffff16846040015173ffffffffffffffffffffffffffffffffffffffff167fffebebfb273923089a3ed6bac0fd4686ac740307859becadeb82f998e30db61486608001516040516108589190612065565b60405180910390a45050505050505050565b60026020528060005260406000206000915090508060000160009054906101000a900473ffffffffffffffffffffffffffffffffffffffff16908060010160009054906101000a900473ffffffffffffffffffffffffffffffffffffffff16908060020160009054906101000a900473ffffffffffffffffffffffffffffffffffffffff169080600301549080600401549080600501805461090b9061235b565b80601f01602080910402602001604051908101604052809291908181526020018280546109379061235b565b80156109845780601f1061095957610100808354040283529160200191610984565b820191906000526020600020905b81548152906001019060200180831161096757829003601f168201915b5050505050905086565b730d500b1d8e8ef31e21c99d1db9a6444d3adf127081565b60006002600083815260200190815260200160002090507f000000000000000000000000000000000000000000000000000000000000000081600301546109ed91906121ed565b4310156109f957600080fd5b600081600401541415610a41576040517f08c379a0000000000000000000000000000000000000000000000000000000008152600401610a3890612005565b60405180910390fd5b6000610a4c82610eb5565b9050610abd7f0000000000000000000000000000000000000000000000000000000000000000828460010160009054906101000a900473ffffffffffffffffffffffffffffffffffffffff1673ffffffffffffffffffffffffffffffffffffffff1661113f9092919063ffffffff16565b60026000848152602001908152602001600020600080820160006101000a81549073ffffffffffffffffffffffffffffffffffffffff02191690556001820160006101000a81549073ffffffffffffffffffffffffffffffffffffffff02191690556002820160006101000a81549073ffffffffffffffffffffffffffffffffffffffff021916905560038201600090556004820160009055600582016000610b66919061170a565b5050505050565b731b02da8cb0d097eb8d57a175b88c7d8b4799750681565b7f000000000000000000000000000000000000000000000000000000000000000081565b7f000000000000000000000000000000000000000000000000000000000000000081565b7f000000000000000000000000000000000000000000000000000000000000000081565b60008173ffffffffffffffffffffffffffffffffffffffff166370a08231306040518263ffffffff1660e01b8152600401610c2c9190611e68565b60206040518083038186803b158015610c4457600080fd5b505afa158015610c58573d6000803e3d6000fd5b505050506040513d601f19601f82011682018060405250810190610c7c9190611b82565b9050919050565b620186a081565b60015481565b7f000000000000000000000000000000000000000000000000000000000000000081565b7f000000000000000000000000000000000000000000000000000000000000000081565b7f000000000000000000000000000000000000000000000000000000000000000073ffffffffffffffffffffffffffffffffffffffff163373ffffffffffffffffffffffffffffffffffffffff1614610d66576040517f08c379a0000000000000000000000000000000000000000000000000000000008152600401610d5d90611fc5565b60405180910390fd5b6000600260008481526020019081526020016000209050600081600401541415610dc5576040517f08c379a0000000000000000000000000000000000000000000000000000000008152600401610dbc90612005565b60405180910390fd5b6000816005018054610dd69061235b565b905014610deb57610de6816111c5565b610e63565b610e628160020160009054906101000a900473ffffffffffffffffffffffffffffffffffffffff1682600401548360010160009054906101000a900473ffffffffffffffffffffffffffffffffffffffff1673ffffffffffffffffffffffffffffffffffffffff1661113f9092919063ffffffff16565b5b505050505050565b6060610ead83836040518060400160405280601e81526020017f416464726573733a206c6f772d6c6576656c2063616c6c206661696c6564000081525061139f565b905092915050565b600080600367ffffffffffffffff811115610ed357610ed261244b565b5b604051908082528060200260200182016040528015610f015781602001602082028036833780820191505090505b5090508260010160009054906101000a900473ffffffffffffffffffffffffffffffffffffffff1681600081518110610f3d57610f3c61241c565b5b602002602001019073ffffffffffffffffffffffffffffffffffffffff16908173ffffffffffffffffffffffffffffffffffffffff1681525050730d500b1d8e8ef31e21c99d1db9a6444d3adf127081600181518110610fa057610f9f61241c565b5b602002602001019073ffffffffffffffffffffffffffffffffffffffff16908173ffffffffffffffffffffffffffffffffffffffff16815250508260000160009054906101000a900473ffffffffffffffffffffffffffffffffffffffff16816002815181106110135761101261241c565b5b602002602001019073ffffffffffffffffffffffffffffffffffffffff16908173ffffffffffffffffffffffffffffffffffffffff16815250506000731b02da8cb0d097eb8d57a175b88c7d8b4799750673ffffffffffffffffffffffffffffffffffffffff166338ed173985600401546001853060014261109591906121ed565b6040518663ffffffff1660e01b81526004016110b5959493929190612080565b600060405180830381600087803b1580156110cf57600080fd5b505af11580156110e3573d6000803e3d6000fd5b505050506040513d6000823e3d601f19601f8201168201806040525081019061110c9190611ab2565b9050806001825161111d9190612243565b8151811061112e5761112d61241c565b5b602002602001015192505050919050565b6111c08363a9059cbb60e01b848460405160240161115e929190611f2f565b604051602081830303815290604052907bffffffffffffffffffffffffffffffffffffffffffffffffffffffff19166020820180517bffffffffffffffffffffffffffffffffffffffffffffffffffffffff83818316178352505050506113b7565b505050565b7f000000000000000000000000000000000000000000000000000000000000000073ffffffffffffffffffffffffffffffffffffffff16631b95e3058260010160009054906101000a900473ffffffffffffffffffffffffffffffffffffffff166040518263ffffffff1660e01b81526004016112429190611e68565b60206040518083038186803b15801561125a57600080fd5b505afa15801561126e573d6000803e3d6000fd5b505050506040513d601f19601f820116820180604052508101906112929190611b28565b73ffffffffffffffffffffffffffffffffffffffff166338463cff8260050183600401546040518363ffffffff1660e01b81526004016112d3929190611f58565b602060405180830381600087803b1580156112ed57600080fd5b505af1158015611301573d6000803e3d6000fd5b505050506040513d601f19601f820116820180604052508101906113259190611b82565b508060020160009054906101000a900473ffffffffffffffffffffffffffffffffffffffff1673ffffffffffffffffffffffffffffffffffffffff167fcc16f5dbb4873280815c1ee09dbd06736cffcc184412cf7a71a0fdb75d397ca582600401546040516113949190612065565b60405180910390a250565b60606113ae848460008561147e565b90509392505050565b6000611419826040518060400160405280602081526020017f5361666545524332303a206c6f772d6c6576656c2063616c6c206661696c65648152508573ffffffffffffffffffffffffffffffffffffffff1661139f9092919063ffffffff16565b905060008151111561147957808060200190518101906114399190611afb565b611478576040517f08c379a000000000000000000000000000000000000000000000000000000000815260040161146f90612045565b60405180910390fd5b5b505050565b6060824710156114c3576040517f08c379a00000000000000000000000000000000000000000000000000000000081526004016114ba90611fe5565b60405180910390fd5b6114cc85611592565b61150b576040517f08c379a000000000000000000000000000000000000000000000000000000000815260040161150290612025565b60405180910390fd5b6000808673ffffffffffffffffffffffffffffffffffffffff1685876040516115349190611e51565b60006040518083038185875af1925050503d8060008114611571576040519150601f19603f3d011682016040523d82523d6000602084013e611576565b606091505b50915091506115868282866115a5565b92505050949350505050565b600080823b905060008111915050919050565b606083156115b557829050611605565b6000835111156115c85782518084602001fd5b816040517f08c379a00000000000000000000000000000000000000000000000000000000081526004016115fc9190611fa3565b60405180910390fd5b9392505050565b6040518060c00160405280600073ffffffffffffffffffffffffffffffffffffffff168152602001600073ffffffffffffffffffffffffffffffffffffffff168152602001600073ffffffffffffffffffffffffffffffffffffffff1681526020016000815260200160008152602001606081525090565b8280546116909061235b565b90600052602060002090601f0160209004810192826116b257600085556116f9565b82601f106116cb57805160ff19168380011785556116f9565b828001600101855582156116f9579182015b828111156116f85782518255916020019190600101906116dd565b5b509050611706919061174a565b5090565b5080546117169061235b565b6000825580601f106117285750611747565b601f016020900490600052602060002090810190611746919061174a565b5b50565b5b8082111561176357600081600090555060010161174b565b5090565b600061177a611775846120ff565b6120da565b9050808382526020820190508285602086028201111561179d5761179c61247f565b5b60005b858110156117cd57816117b3888261194e565b8452602084019350602083019250506001810190506117a0565b5050509392505050565b60006117ea6117e58461212b565b6120da565b90508281526020810184848401111561180657611805612484565b5b611811848285612319565b509392505050565b600061182c6118278461212b565b6120da565b90508281526020810184848401111561184857611847612484565b5b611853848285612328565b509392505050565b60008135905061186a816125bd565b92915050565b60008151905061187f816125d4565b92915050565b600082601f83011261189a5761189961247a565b5b81516118aa848260208601611767565b91505092915050565b6000815190506118c2816125eb565b92915050565b600082601f8301126118dd576118dc61247a565b5b81356118ed8482602086016117d7565b91505092915050565b600082601f83011261190b5761190a61247a565b5b815161191b848260208601611819565b91505092915050565b60008151905061193381612602565b92915050565b60008135905061194881612619565b92915050565b60008151905061195d81612619565b92915050565b6000602082840312156119795761197861248e565b5b60006119878482850161185b565b91505092915050565b6000806000606084860312156119a9576119a861248e565b5b60006119b786828701611870565b935050602084015167ffffffffffffffff8111156119d8576119d7612489565b5b6119e4868287016118f6565b925050604084015167ffffffffffffffff811115611a0557611a04612489565b5b611a11868287016118f6565b9150509250925092565b600080600080600060a08688031215611a3757611a3661248e565b5b6000611a458882890161185b565b9550506020611a568882890161185b565b9450506040611a6788828901611939565b9350506060611a7888828901611939565b925050608086013567ffffffffffffffff811115611a9957611a98612489565b5b611aa5888289016118c8565b9150509295509295909350565b600060208284031215611ac857611ac761248e565b5b600082015167ffffffffffffffff811115611ae657611ae5612489565b5b611af284828501611885565b91505092915050565b600060208284031215611b1157611b1061248e565b5b6000611b1f848285016118b3565b91505092915050565b600060208284031215611b3e57611b3d61248e565b5b6000611b4c84828501611924565b91505092915050565b600060208284031215611b6b57611b6a61248e565b5b6000611b7984828501611939565b91505092915050565b600060208284031215611b9857611b9761248e565b5b6000611ba68482850161194e565b91505092915050565b6000611bbb8383611bd6565b60208301905092915050565b611bd081612289565b82525050565b611bdf81612277565b82525050565b611bee81612277565b82525050565b6000611bff82612181565b611c0981856121af565b9350611c148361215c565b8060005b83811015611c45578151611c2c8882611baf565b9750611c37836121a2565b925050600181019050611c18565b5085935050505092915050565b6000611c5d8261218c565b611c6781856121c0565b9350611c77818560208601612328565b611c8081612493565b840191505092915050565b6000611c968261218c565b611ca081856121d1565b9350611cb0818560208601612328565b80840191505092915050565b60008154611cc98161235b565b611cd381866121c0565b94506001821660008114611cee5760018114611d0057611d33565b60ff1983168652602086019350611d33565b611d098561216c565b60005b83811015611d2b57815481890152600182019150602081019050611d0c565b808801955050505b50505092915050565b611d45816122e3565b82525050565b611d5481612307565b82525050565b6000611d6582612197565b611d6f81856121dc565b9350611d7f818560208601612328565b611d8881612493565b840191505092915050565b6000611da0600b836121dc565b9150611dab826124a4565b602082019050919050565b6000611dc36026836121dc565b9150611dce826124cd565b604082019050919050565b6000611de6600c836121dc565b9150611df18261251c565b602082019050919050565b6000611e09601d836121dc565b9150611e1482612545565b602082019050919050565b6000611e2c602a836121dc565b9150611e378261256e565b604082019050919050565b611e4b816122d9565b82525050565b6000611e5d8284611c8b565b915081905092915050565b6000602082019050611e7d6000830184611be5565b92915050565b6000602082019050611e986000830184611bc7565b92915050565b6000604082019050611eb36000830185611be5565b611ec06020830184611be5565b9392505050565b600060c082019050611edc6000830189611be5565b611ee96020830188611be5565b611ef66040830187611be5565b611f036060830186611e42565b611f106080830185611e42565b81810360a0830152611f228184611c52565b9050979650505050505050565b6000604082019050611f446000830185611be5565b611f516020830184611e42565b9392505050565b60006040820190508181036000830152611f728185611cbc565b9050611f816020830184611e42565b9392505050565b6000602082019050611f9d6000830184611d3c565b92915050565b60006020820190508181036000830152611fbd8184611d5a565b905092915050565b60006020820190508181036000830152611fde81611d93565b9050919050565b60006020820190508181036000830152611ffe81611db6565b9050919050565b6000602082019050818103600083015261201e81611dd9565b9050919050565b6000602082019050818103600083015261203e81611dfc565b9050919050565b6000602082019050818103600083015261205e81611e1f565b9050919050565b600060208201905061207a6000830184611e42565b92915050565b600060a0820190506120956000830188611e42565b6120a26020830187611d4b565b81810360408301526120b48186611bf4565b90506120c36060830185611be5565b6120d06080830184611e42565b9695505050505050565b60006120e46120f5565b90506120f0828261238d565b919050565b6000604051905090565b600067ffffffffffffffff82111561211a5761211961244b565b5b602082029050602081019050919050565b600067ffffffffffffffff8211156121465761214561244b565b5b61214f82612493565b9050602081019050919050565b6000819050602082019050919050565b60008190508160005260206000209050919050565b600081519050919050565b600081519050919050565b600081519050919050565b6000602082019050919050565b600082825260208201905092915050565b600082825260208201905092915050565b600081905092915050565b600082825260208201905092915050565b60006121f8826122d9565b9150612203836122d9565b9250827fffffffffffffffffffffffffffffffffffffffffffffffffffffffffffffffff03821115612238576122376123be565b5b828201905092915050565b600061224e826122d9565b9150612259836122d9565b92508282101561226c5761226b6123be565b5b828203905092915050565b6000612282826122b9565b9050919050565b6000612294826122b9565b9050919050565b60008115159050919050565b60006122b282612277565b9050919050565b600073ffffffffffffffffffffffffffffffffffffffff82169050919050565b6000819050919050565b60006122ee826122f5565b9050919050565b6000612300826122b9565b9050919050565b6000612312826122d9565b9050919050565b82818337600083830152505050565b60005b8381101561234657808201518184015260208101905061232b565b83811115612355576000848401525b50505050565b6000600282049050600182168061237357607f821691505b60208210811415612387576123866123ed565b5b50919050565b61239682612493565b810181811067ffffffffffffffff821117156123b5576123b461244b565b5b80604052505050565b7f4e487b7100000000000000000000000000000000000000000000000000000000600052601160045260246000fd5b7f4e487b7100000000000000000000000000000000000000000000000000000000600052602260045260246000fd5b7f4e487b7100000000000000000000000000000000000000000000000000000000600052603260045260246000fd5b7f4e487b7100000000000000000000000000000000000000000000000000000000600052604160045260246000fd5b600080fd5b600080fd5b600080fd5b600080fd5b600080fd5b6000601f19601f8301169050919050565b7f21636f6e74726f6c6c6572000000000000000000000000000000000000000000600082015250565b7f416464726573733a20696e73756666696369656e742062616c616e636520666f60008201527f722063616c6c0000000000000000000000000000000000000000000000000000602082015250565b7f216f75747374616e64696e670000000000000000000000000000000000000000600082015250565b7f416464726573733a2063616c6c20746f206e6f6e2d636f6e7472616374000000600082015250565b7f5361666545524332303a204552433230206f7065726174696f6e20646964206e60008201527f6f74207375636365656400000000000000000000000000000000000000000000602082015250565b6125c681612277565b81146125d157600080fd5b50565b6125dd81612289565b81146125e857600080fd5b50565b6125f48161229b565b81146125ff57600080fd5b50565b61260b816122a7565b811461261657600080fd5b50565b612622816122d9565b811461262d57600080fd5b5056fea26469706673582212206029a7ca3aa436f013fd4beeee3fa45a29cc8de0afc25362c0e64dada350abc864736f6c63430008060033",
  "linkReferences": {},
  "deployedLinkReferences": {}
}