{
  "_format": "hh-sol-artifact-1",
  "contractName": "VarenRouter",
  "sourceName": "contracts/VarenSwap.sol",
  "abi": [
    {
      "inputs": [
        {
          "internalType": "address",
          "name": "_controller",
          "type": "address"
        },
        {
          "internalType": "address",
          "name": "_router",
          "type": "address"
        },
        {
          "internalType": "address",
          "name": "_registry",
          "type": "address"
        },
        {
          "internalType": "address payable",
          "name": "_devWallet",
          "type": "address"
        },
        {
          "internalType": "uint256",
          "name": "_blockTimeout",
          "type": "uint256"
        }
      ],
      "stateMutability": "nonpayable",
      "type": "constructor"
    },
    {
      "anonymous": false,
      "inputs": [
        {
          "indexed": true,
          "internalType": "address",
          "name": "sender",
          "type": "address"
        },
        {
          "indexed": false,
          "internalType": "uint256",
          "name": "amount",
          "type": "uint256"
        }
      ],
      "name": "Burn",
      "type": "event"
    },
    {
      "anonymous": false,
      "inputs": [
        {
          "indexed": true,
          "internalType": "address",
          "name": "sender",
          "type": "address"
        },
        {
          "indexed": false,
          "internalType": "uint256",
          "name": "amount",
          "type": "uint256"
        }
      ],
      "name": "Mint",
      "type": "event"
    },
    {
      "anonymous": false,
      "inputs": [
        {
          "indexed": true,
          "internalType": "address",
          "name": "sender",
          "type": "address"
        },
        {
          "indexed": true,
          "internalType": "address",
          "name": "from",
          "type": "address"
        },
        {
          "indexed": true,
          "internalType": "address",
          "name": "to",
          "type": "address"
        },
        {
          "indexed": false,
          "internalType": "uint256",
          "name": "amount",
          "type": "uint256"
        }
      ],
      "name": "Swap",
      "type": "event"
    },
    {
      "inputs": [],
      "name": "FEE",
      "outputs": [
        {
          "internalType": "uint256",
          "name": "",
          "type": "uint256"
        }
      ],
      "stateMutability": "view",
      "type": "function"
    },
    {
      "inputs": [],
      "name": "PERCENTAGE_DIVIDER",
      "outputs": [
        {
          "internalType": "uint256",
          "name": "",
          "type": "uint256"
        }
      ],
      "stateMutability": "view",
      "type": "function"
    },
    {
      "inputs": [],
      "name": "blockTimeout",
      "outputs": [
        {
          "internalType": "uint256",
          "name": "",
          "type": "uint256"
        }
      ],
      "stateMutability": "view",
      "type": "function"
    },
    {
      "inputs": [
        {
          "internalType": "uint256",
          "name": "_in",
          "type": "uint256"
        }
      ],
      "name": "computeReserveRequirement",
      "outputs": [
        {
          "internalType": "uint256",
          "name": "",
          "type": "uint256"
        }
      ],
      "stateMutability": "pure",
      "type": "function"
    },
    {
      "inputs": [],
      "name": "controller",
      "outputs": [
        {
          "internalType": "address",
          "name": "",
          "type": "address"
        }
      ],
      "stateMutability": "view",
      "type": "function"
    },
    {
      "inputs": [
        {
          "internalType": "address",
          "name": "_token",
          "type": "address"
        }
      ],
      "name": "currentBalance",
      "outputs": [
        {
          "internalType": "uint256",
          "name": "balance",
          "type": "uint256"
        }
      ],
      "stateMutability": "view",
      "type": "function"
    },
    {
      "inputs": [
        {
          "internalType": "uint256",
          "name": "_nonce",
          "type": "uint256"
        }
      ],
      "name": "defaultLoan",
      "outputs": [],
      "stateMutability": "nonpayable",
      "type": "function"
    },
    {
      "inputs": [],
      "name": "devWallet",
      "outputs": [
        {
          "internalType": "address payable",
          "name": "",
          "type": "address"
        }
      ],
      "stateMutability": "view",
      "type": "function"
    },
    {
      "inputs": [
        {
          "internalType": "address",
          "name": "_to",
          "type": "address"
        },
        {
          "internalType": "address",
          "name": "_inToken",
          "type": "address"
        },
        {
          "internalType": "uint256",
          "name": "_amount",
          "type": "uint256"
        },
        {
          "internalType": "uint256",
          "name": "_nonce",
          "type": "uint256"
        },
        {
          "internalType": "bytes",
          "name": "_data",
          "type": "bytes"
        }
      ],
      "name": "receiveLoan",
      "outputs": [],
      "stateMutability": "nonpayable",
      "type": "function"
    },
    {
      "inputs": [
        {
          "internalType": "uint256",
          "name": "",
          "type": "uint256"
        }
      ],
      "name": "records",
      "outputs": [
        {
          "internalType": "address",
          "name": "inToken",
          "type": "address"
        },
        {
          "internalType": "address",
          "name": "outToken",
          "type": "address"
        },
        {
          "internalType": "address",
          "name": "to",
          "type": "address"
        },
        {
          "internalType": "uint256",
          "name": "when",
          "type": "uint256"
        },
        {
          "internalType": "uint256",
          "name": "qty",
          "type": "uint256"
        },
        {
          "internalType": "uint256",
          "name": "qtyFee",
          "type": "uint256"
        },
        {
          "internalType": "bytes",
          "name": "burnSendTo",
          "type": "bytes"
        }
      ],
      "stateMutability": "view",
      "type": "function"
    },
    {
      "inputs": [],
      "name": "registry",
      "outputs": [
        {
          "internalType": "contract IGatewayRegistry",
          "name": "",
          "type": "address"
        }
      ],
      "stateMutability": "view",
      "type": "function"
    },
    {
      "inputs": [
        {
          "internalType": "address",
          "name": "",
          "type": "address"
        },
        {
          "internalType": "address",
          "name": "",
          "type": "address"
        },
        {
          "internalType": "uint256",
          "name": "",
          "type": "uint256"
        },
        {
          "internalType": "uint256",
          "name": "_nonce",
          "type": "uint256"
        },
        {
          "internalType": "bytes",
          "name": "",
          "type": "bytes"
        }
      ],
      "name": "repayLoan",
      "outputs": [],
      "stateMutability": "nonpayable",
      "type": "function"
    },
    {
      "inputs": [],
      "name": "router",
      "outputs": [
        {
          "internalType": "address",
          "name": "",
          "type": "address"
        }
      ],
      "stateMutability": "view",
      "type": "function"
    },
    {
      "inputs": [],
      "name": "sushiRouter",
      "outputs": [
        {
          "internalType": "address",
          "name": "",
          "type": "address"
        }
      ],
      "stateMutability": "view",
      "type": "function"
    },
    {
      "inputs": [],
      "name": "weth",
      "outputs": [
        {
          "internalType": "address",
          "name": "",
          "type": "address"
        }
      ],
      "stateMutability": "view",
      "type": "function"
    },
    {
      "stateMutability": "payable",
      "type": "receive"
    }
  ],
  "bytecode": "0x61012060405260326001553480156200001757600080fd5b5060405162002c7738038062002c7783398181016040528101906200003d91906200017a565b60016000819055508473ffffffffffffffffffffffffffffffffffffffff166101008173ffffffffffffffffffffffffffffffffffffffff1660601b815250508373ffffffffffffffffffffffffffffffffffffffff1660a08173ffffffffffffffffffffffffffffffffffffffff1660601b815250508273ffffffffffffffffffffffffffffffffffffffff1660808173ffffffffffffffffffffffffffffffffffffffff1660601b815250508173ffffffffffffffffffffffffffffffffffffffff1660c08173ffffffffffffffffffffffffffffffffffffffff1660601b815250508060e081815250505050505050620002a7565b600081519050620001468162000259565b92915050565b6000815190506200015d8162000273565b92915050565b60008151905062000174816200028d565b92915050565b600080600080600060a0868803121562000199576200019862000254565b5b6000620001a98882890162000135565b9550506020620001bc8882890162000135565b9450506040620001cf8882890162000135565b9350506060620001e2888289016200014c565b9250506080620001f58882890162000163565b9150509295509295909350565b60006200020f826200022a565b9050919050565b600062000223826200022a565b9050919050565b600073ffffffffffffffffffffffffffffffffffffffff82169050919050565b6000819050919050565b600080fd5b620002648162000202565b81146200027057600080fd5b50565b6200027e8162000216565b81146200028a57600080fd5b50565b62000298816200024a565b8114620002a457600080fd5b50565b60805160601c60a05160601c60c05160601c60e0516101005160601c61294062000337600039600081816103b501528181610aac01528181610d310152610d79015260008181610a180152610c4a015260008181610c6e0152610f0e01526000818161054f01528181610603015281816106b90152610d55015260008181610c2601526113d201526129406000f3fe6080604052600436106100ec5760003560e01c806380e716551161008a578063c57981b511610059578063c57981b514610309578063f77c479114610334578063f887ea401461035f578063fd8e91541461038a576100f3565b806380e716551461024b5780638ea5220f146102765780639e546c38146102a1578063bb60aaa7146102de576100f3565b806367bf61c4116100c657806367bf61c41461018f5780636d13582c146101b857806373883a2b146101e35780637b10399914610220576100f3565b80631639743b146100f857806334461067146101215780633fc8cef314610164576100f3565b366100f357005b600080fd5b34801561010457600080fd5b5061011f600480360381019061011a9190611c2d565b6103b3565b005b34801561012d57600080fd5b5061014860048036038101906101439190611d67565b6108bd565b60405161015b97969594939291906120d9565b60405180910390f35b34801561017057600080fd5b506101796109e7565b604051610186919061207a565b60405180910390f35b34801561019b57600080fd5b506101b660048036038101906101b19190611d67565b6109ff565b005b3480156101c457600080fd5b506101cd610bce565b6040516101da919061207a565b60405180910390f35b3480156101ef57600080fd5b5061020a60048036038101906102059190611d67565b610be6565b6040516102179190612285565b60405180910390f35b34801561022c57600080fd5b50610235610c24565b60405161024291906121a8565b60405180910390f35b34801561025757600080fd5b50610260610c48565b60405161026d9190612285565b60405180910390f35b34801561028257600080fd5b5061028b610c6c565b6040516102989190612095565b60405180910390f35b3480156102ad57600080fd5b506102c860048036038101906102c39190611b75565b610c90565b6040516102d59190612285565b60405180910390f35b3480156102ea57600080fd5b506102f3610d22565b6040516103009190612285565b60405180910390f35b34801561031557600080fd5b5061031e610d29565b60405161032b9190612285565b60405180910390f35b34801561034057600080fd5b50610349610d2f565b604051610356919061207a565b60405180910390f35b34801561036b57600080fd5b50610374610d53565b604051610381919061207a565b60405180910390f35b34801561039657600080fd5b506103b160048036038101906103ac9190611c2d565b610d77565b005b7f000000000000000000000000000000000000000000000000000000000000000073ffffffffffffffffffffffffffffffffffffffff163373ffffffffffffffffffffffffffffffffffffffff1614610441576040517f08c379a0000000000000000000000000000000000000000000000000000000008152600401610438906121e5565b60405180910390fd5b610449611817565b4381606001818152505085816040019073ffffffffffffffffffffffffffffffffffffffff16908173ffffffffffffffffffffffffffffffffffffffff168152505084816000019073ffffffffffffffffffffffffffffffffffffffff16908173ffffffffffffffffffffffffffffffffffffffff16815250506060828060200190518101906104d99190611ba2565b846020018560c0018295508390528373ffffffffffffffffffffffffffffffffffffffff1673ffffffffffffffffffffffffffffffffffffffff1681525050505060006105298360200151610c90565b905085836000015173ffffffffffffffffffffffffffffffffffffffff1663dd62ed3e307f00000000000000000000000000000000000000000000000000000000000000006040518363ffffffff1660e01b815260040161058b9291906120b0565b60206040518083038186803b1580156105a357600080fd5b505afa1580156105b7573d6000803e3d6000fd5b505050506040513d601f19601f820116820180604052508101906105db9190611d94565b10156106b457826000015173ffffffffffffffffffffffffffffffffffffffff1663095ea7b37f00000000000000000000000000000000000000000000000000000000000000007fffffffffffffffffffffffffffffffffffffffffffffffffffffffffffffffff6040518363ffffffff1660e01b815260040161066092919061214f565b602060405180830381600087803b15801561067a57600080fd5b505af115801561068e573d6000803e3d6000fd5b505050506040513d601f19601f820116820180604052508101906106b29190611d0d565b505b6106de7f00000000000000000000000000000000000000000000000000000000000000008361101e565b50806106ed8460200151610c90565b6106f791906124ee565b836080018181525050826002600087815260200190815260200160002060008201518160000160006101000a81548173ffffffffffffffffffffffffffffffffffffffff021916908373ffffffffffffffffffffffffffffffffffffffff16021790555060208201518160010160006101000a81548173ffffffffffffffffffffffffffffffffffffffff021916908373ffffffffffffffffffffffffffffffffffffffff16021790555060408201518160020160006101000a81548173ffffffffffffffffffffffffffffffffffffffff021916908373ffffffffffffffffffffffffffffffffffffffff160217905550606082015181600301556080820151816004015560a0820151816005015560c0820151816006019080519060200190610823929190611896565b50905050826020015173ffffffffffffffffffffffffffffffffffffffff16836000015173ffffffffffffffffffffffffffffffffffffffff16846040015173ffffffffffffffffffffffffffffffffffffffff167fffebebfb273923089a3ed6bac0fd4686ac740307859becadeb82f998e30db61486608001516040516108ab9190612285565b60405180910390a45050505050505050565b60026020528060005260406000206000915090508060000160009054906101000a900473ffffffffffffffffffffffffffffffffffffffff16908060010160009054906101000a900473ffffffffffffffffffffffffffffffffffffffff16908060020160009054906101000a900473ffffffffffffffffffffffffffffffffffffffff169080600301549080600401549080600501549080600601805461096490612606565b80601f016020809104026020016040519081016040528092919081815260200182805461099090612606565b80156109dd5780601f106109b2576101008083540402835291602001916109dd565b820191906000526020600020905b8154815290600101906020018083116109c057829003601f168201915b5050505050905087565b730d500b1d8e8ef31e21c99d1db9a6444d3adf127081565b60006002600083815260200190815260200160002090507f00000000000000000000000000000000000000000000000000000000000000008160030154610a46919061240d565b431015610a5257600080fd5b600081600401541415610a9a576040517f08c379a0000000000000000000000000000000000000000000000000000000008152600401610a9190612225565b60405180910390fd5b6000610aa582611068565b9050610b167f0000000000000000000000000000000000000000000000000000000000000000828460010160009054906101000a900473ffffffffffffffffffffffffffffffffffffffff1673ffffffffffffffffffffffffffffffffffffffff166110c89092919063ffffffff16565b60026000848152602001908152602001600020600080820160006101000a81549073ffffffffffffffffffffffffffffffffffffffff02191690556001820160006101000a81549073ffffffffffffffffffffffffffffffffffffffff02191690556002820160006101000a81549073ffffffffffffffffffffffffffffffffffffffff0219169055600382016000905560048201600090556005820160009055600682016000610bc7919061191c565b5050505050565b731b02da8cb0d097eb8d57a175b88c7d8b4799750681565b6000610c1d670de0b6b3a7640000610c0f67016345785d8a00008561114e90919063ffffffff16565b61116490919063ffffffff16565b9050919050565b7f000000000000000000000000000000000000000000000000000000000000000081565b7f000000000000000000000000000000000000000000000000000000000000000081565b7f000000000000000000000000000000000000000000000000000000000000000081565b60008173ffffffffffffffffffffffffffffffffffffffff166370a08231306040518263ffffffff1660e01b8152600401610ccb919061207a565b60206040518083038186803b158015610ce357600080fd5b505afa158015610cf7573d6000803e3d6000fd5b505050506040513d601f19601f82011682018060405250810190610d1b9190611d94565b9050919050565b620186a081565b60015481565b7f000000000000000000000000000000000000000000000000000000000000000081565b7f000000000000000000000000000000000000000000000000000000000000000081565b7f000000000000000000000000000000000000000000000000000000000000000073ffffffffffffffffffffffffffffffffffffffff163373ffffffffffffffffffffffffffffffffffffffff1614610e05576040517f08c379a0000000000000000000000000000000000000000000000000000000008152600401610dfc906121e5565b60405180910390fd5b6000600260008481526020019081526020016000209050600081600401541415610e64576040517f08c379a0000000000000000000000000000000000000000000000000000000008152600401610e5b90612225565b60405180910390fd5b6000816004015490506000610e99620186a0610e8b8460015461114e90919063ffffffff16565b61116490919063ffffffff16565b90506000610eb0828461117a90919063ffffffff16565b90506000610f078560010160009054906101000a900473ffffffffffffffffffffffffffffffffffffffff168660000160009054906101000a900473ffffffffffffffffffffffffffffffffffffffff1685611190565b9050610f787f0000000000000000000000000000000000000000000000000000000000000000828760000160009054906101000a900473ffffffffffffffffffffffffffffffffffffffff1673ffffffffffffffffffffffffffffffffffffffff166110c89092919063ffffffff16565b6000856006018054610f8990612606565b905014610f9e57610f99856113d0565b611012565b6110118560020160009054906101000a900473ffffffffffffffffffffffffffffffffffffffff16838760010160009054906101000a900473ffffffffffffffffffffffffffffffffffffffff1673ffffffffffffffffffffffffffffffffffffffff166110c89092919063ffffffff16565b5b50505050505050505050565b606061106083836040518060400160405280601e81526020017f416464726573733a206c6f772d6c6576656c2063616c6c206661696c656400008152506115aa565b905092915050565b60006110c18260010160009054906101000a900473ffffffffffffffffffffffffffffffffffffffff168360000160009054906101000a900473ffffffffffffffffffffffffffffffffffffffff168460040154611190565b9050919050565b6111498363a9059cbb60e01b84846040516024016110e792919061214f565b604051602081830303815290604052907bffffffffffffffffffffffffffffffffffffffffffffffffffffffff19166020820180517bffffffffffffffffffffffffffffffffffffffffffffffffffffffff83818316178352505050506115c2565b505050565b6000818361115c9190612494565b905092915050565b600081836111729190612463565b905092915050565b6000818361118891906124ee565b905092915050565b600080600367ffffffffffffffff8111156111ae576111ad612725565b5b6040519080825280602002602001820160405280156111dc5781602001602082028036833780820191505090505b50905084816000815181106111f4576111f36126f6565b5b602002602001019073ffffffffffffffffffffffffffffffffffffffff16908173ffffffffffffffffffffffffffffffffffffffff1681525050730d500b1d8e8ef31e21c99d1db9a6444d3adf127081600181518110611257576112566126f6565b5b602002602001019073ffffffffffffffffffffffffffffffffffffffff16908173ffffffffffffffffffffffffffffffffffffffff168152505083816002815181106112a6576112a56126f6565b5b602002602001019073ffffffffffffffffffffffffffffffffffffffff16908173ffffffffffffffffffffffffffffffffffffffff16815250506000731b02da8cb0d097eb8d57a175b88c7d8b4799750673ffffffffffffffffffffffffffffffffffffffff166338ed17398560018530600142611324919061240d565b6040518663ffffffff1660e01b81526004016113449594939291906122a0565b600060405180830381600087803b15801561135e57600080fd5b505af1158015611372573d6000803e3d6000fd5b505050506040513d6000823e3d601f19601f8201168201806040525081019061139b9190611cc4565b905080600182516113ac91906124ee565b815181106113bd576113bc6126f6565b5b6020026020010151925050509392505050565b7f000000000000000000000000000000000000000000000000000000000000000073ffffffffffffffffffffffffffffffffffffffff16631b95e3058260010160009054906101000a900473ffffffffffffffffffffffffffffffffffffffff166040518263ffffffff1660e01b815260040161144d919061207a565b60206040518083038186803b15801561146557600080fd5b505afa158015611479573d6000803e3d6000fd5b505050506040513d601f19601f8201168201806040525081019061149d9190611d3a565b73ffffffffffffffffffffffffffffffffffffffff166338463cff8260060183600401546040518363ffffffff1660e01b81526004016114de929190612178565b602060405180830381600087803b1580156114f857600080fd5b505af115801561150c573d6000803e3d6000fd5b505050506040513d601f19601f820116820180604052508101906115309190611d94565b508060020160009054906101000a900473ffffffffffffffffffffffffffffffffffffffff1673ffffffffffffffffffffffffffffffffffffffff167fcc16f5dbb4873280815c1ee09dbd06736cffcc184412cf7a71a0fdb75d397ca5826004015460405161159f9190612285565b60405180910390a250565b60606115b98484600085611689565b90509392505050565b6000611624826040518060400160405280602081526020017f5361666545524332303a206c6f772d6c6576656c2063616c6c206661696c65648152508573ffffffffffffffffffffffffffffffffffffffff166115aa9092919063ffffffff16565b905060008151111561168457808060200190518101906116449190611d0d565b611683576040517f08c379a000000000000000000000000000000000000000000000000000000000815260040161167a90612265565b60405180910390fd5b5b505050565b6060824710156116ce576040517f08c379a00000000000000000000000000000000000000000000000000000000081526004016116c590612205565b60405180910390fd5b6116d78561179d565b611716576040517f08c379a000000000000000000000000000000000000000000000000000000000815260040161170d90612245565b60405180910390fd5b6000808673ffffffffffffffffffffffffffffffffffffffff16858760405161173f9190612063565b60006040518083038185875af1925050503d806000811461177c576040519150601f19603f3d011682016040523d82523d6000602084013e611781565b606091505b50915091506117918282866117b0565b92505050949350505050565b600080823b905060008111915050919050565b606083156117c057829050611810565b6000835111156117d35782518084602001fd5b816040517f08c379a000000000000000000000000000000000000000000000000000000000815260040161180791906121c3565b60405180910390fd5b9392505050565b6040518060e00160405280600073ffffffffffffffffffffffffffffffffffffffff168152602001600073ffffffffffffffffffffffffffffffffffffffff168152602001600073ffffffffffffffffffffffffffffffffffffffff168152602001600081526020016000815260200160008152602001606081525090565b8280546118a290612606565b90600052602060002090601f0160209004810192826118c4576000855561190b565b82601f106118dd57805160ff191683800117855561190b565b8280016001018555821561190b579182015b8281111561190a5782518255916020019190600101906118ef565b5b509050611918919061195c565b5090565b50805461192890612606565b6000825580601f1061193a5750611959565b601f016020900490600052602060002090810190611958919061195c565b5b50565b5b8082111561197557600081600090555060010161195d565b5090565b600061198c6119878461231f565b6122fa565b905080838252602082019050828560208602820111156119af576119ae612759565b5b60005b858110156119df57816119c58882611b60565b8452602084019350602083019250506001810190506119b2565b5050509392505050565b60006119fc6119f78461234b565b6122fa565b905082815260208101848484011115611a1857611a1761275e565b5b611a238482856125c4565b509392505050565b6000611a3e611a398461234b565b6122fa565b905082815260208101848484011115611a5a57611a5961275e565b5b611a658482856125d3565b509392505050565b600081359050611a7c81612897565b92915050565b600081519050611a91816128ae565b92915050565b600082601f830112611aac57611aab612754565b5b8151611abc848260208601611979565b91505092915050565b600081519050611ad4816128c5565b92915050565b600082601f830112611aef57611aee612754565b5b8135611aff8482602086016119e9565b91505092915050565b600082601f830112611b1d57611b1c612754565b5b8151611b2d848260208601611a2b565b91505092915050565b600081519050611b45816128dc565b92915050565b600081359050611b5a816128f3565b92915050565b600081519050611b6f816128f3565b92915050565b600060208284031215611b8b57611b8a612768565b5b6000611b9984828501611a6d565b91505092915050565b600080600060608486031215611bbb57611bba612768565b5b6000611bc986828701611a82565b935050602084015167ffffffffffffffff811115611bea57611be9612763565b5b611bf686828701611b08565b925050604084015167ffffffffffffffff811115611c1757611c16612763565b5b611c2386828701611b08565b9150509250925092565b600080600080600060a08688031215611c4957611c48612768565b5b6000611c5788828901611a6d565b9550506020611c6888828901611a6d565b9450506040611c7988828901611b4b565b9350506060611c8a88828901611b4b565b925050608086013567ffffffffffffffff811115611cab57611caa612763565b5b611cb788828901611ada565b9150509295509295909350565b600060208284031215611cda57611cd9612768565b5b600082015167ffffffffffffffff811115611cf857611cf7612763565b5b611d0484828501611a97565b91505092915050565b600060208284031215611d2357611d22612768565b5b6000611d3184828501611ac5565b91505092915050565b600060208284031215611d5057611d4f612768565b5b6000611d5e84828501611b36565b91505092915050565b600060208284031215611d7d57611d7c612768565b5b6000611d8b84828501611b4b565b91505092915050565b600060208284031215611daa57611da9612768565b5b6000611db884828501611b60565b91505092915050565b6000611dcd8383611de8565b60208301905092915050565b611de281612534565b82525050565b611df181612522565b82525050565b611e0081612522565b82525050565b6000611e11826123a1565b611e1b81856123cf565b9350611e268361237c565b8060005b83811015611e57578151611e3e8882611dc1565b9750611e49836123c2565b925050600181019050611e2a565b5085935050505092915050565b6000611e6f826123ac565b611e7981856123e0565b9350611e898185602086016125d3565b611e928161276d565b840191505092915050565b6000611ea8826123ac565b611eb281856123f1565b9350611ec28185602086016125d3565b80840191505092915050565b60008154611edb81612606565b611ee581866123e0565b94506001821660008114611f005760018114611f1257611f45565b60ff1983168652602086019350611f45565b611f1b8561238c565b60005b83811015611f3d57815481890152600182019150602081019050611f1e565b808801955050505b50505092915050565b611f578161258e565b82525050565b611f66816125b2565b82525050565b6000611f77826123b7565b611f8181856123fc565b9350611f918185602086016125d3565b611f9a8161276d565b840191505092915050565b6000611fb2600b836123fc565b9150611fbd8261277e565b602082019050919050565b6000611fd56026836123fc565b9150611fe0826127a7565b604082019050919050565b6000611ff8600c836123fc565b9150612003826127f6565b602082019050919050565b600061201b601d836123fc565b91506120268261281f565b602082019050919050565b600061203e602a836123fc565b915061204982612848565b604082019050919050565b61205d81612584565b82525050565b600061206f8284611e9d565b915081905092915050565b600060208201905061208f6000830184611df7565b92915050565b60006020820190506120aa6000830184611dd9565b92915050565b60006040820190506120c56000830185611df7565b6120d26020830184611df7565b9392505050565b600060e0820190506120ee600083018a611df7565b6120fb6020830189611df7565b6121086040830188611df7565b6121156060830187612054565b6121226080830186612054565b61212f60a0830185612054565b81810360c08301526121418184611e64565b905098975050505050505050565b60006040820190506121646000830185611df7565b6121716020830184612054565b9392505050565b600060408201905081810360008301526121928185611ece565b90506121a16020830184612054565b9392505050565b60006020820190506121bd6000830184611f4e565b92915050565b600060208201905081810360008301526121dd8184611f6c565b905092915050565b600060208201905081810360008301526121fe81611fa5565b9050919050565b6000602082019050818103600083015261221e81611fc8565b9050919050565b6000602082019050818103600083015261223e81611feb565b9050919050565b6000602082019050818103600083015261225e8161200e565b9050919050565b6000602082019050818103600083015261227e81612031565b9050919050565b600060208201905061229a6000830184612054565b92915050565b600060a0820190506122b56000830188612054565b6122c26020830187611f5d565b81810360408301526122d48186611e06565b90506122e36060830185611df7565b6122f06080830184612054565b9695505050505050565b6000612304612315565b90506123108282612638565b919050565b6000604051905090565b600067ffffffffffffffff82111561233a57612339612725565b5b602082029050602081019050919050565b600067ffffffffffffffff82111561236657612365612725565b5b61236f8261276d565b9050602081019050919050565b6000819050602082019050919050565b60008190508160005260206000209050919050565b600081519050919050565b600081519050919050565b600081519050919050565b6000602082019050919050565b600082825260208201905092915050565b600082825260208201905092915050565b600081905092915050565b600082825260208201905092915050565b600061241882612584565b915061242383612584565b9250827fffffffffffffffffffffffffffffffffffffffffffffffffffffffffffffffff0382111561245857612457612669565b5b828201905092915050565b600061246e82612584565b915061247983612584565b92508261248957612488612698565b5b828204905092915050565b600061249f82612584565b91506124aa83612584565b9250817fffffffffffffffffffffffffffffffffffffffffffffffffffffffffffffffff04831182151516156124e3576124e2612669565b5b828202905092915050565b60006124f982612584565b915061250483612584565b92508282101561251757612516612669565b5b828203905092915050565b600061252d82612564565b9050919050565b600061253f82612564565b9050919050565b60008115159050919050565b600061255d82612522565b9050919050565b600073ffffffffffffffffffffffffffffffffffffffff82169050919050565b6000819050919050565b6000612599826125a0565b9050919050565b60006125ab82612564565b9050919050565b60006125bd82612584565b9050919050565b82818337600083830152505050565b60005b838110156125f15780820151818401526020810190506125d6565b83811115612600576000848401525b50505050565b6000600282049050600182168061261e57607f821691505b60208210811415612632576126316126c7565b5b50919050565b6126418261276d565b810181811067ffffffffffffffff821117156126605761265f612725565b5b80604052505050565b7f4e487b7100000000000000000000000000000000000000000000000000000000600052601160045260246000fd5b7f4e487b7100000000000000000000000000000000000000000000000000000000600052601260045260246000fd5b7f4e487b7100000000000000000000000000000000000000000000000000000000600052602260045260246000fd5b7f4e487b7100000000000000000000000000000000000000000000000000000000600052603260045260246000fd5b7f4e487b7100000000000000000000000000000000000000000000000000000000600052604160045260246000fd5b600080fd5b600080fd5b600080fd5b600080fd5b600080fd5b6000601f19601f8301169050919050565b7f21636f6e74726f6c6c6572000000000000000000000000000000000000000000600082015250565b7f416464726573733a20696e73756666696369656e742062616c616e636520666f60008201527f722063616c6c0000000000000000000000000000000000000000000000000000602082015250565b7f216f75747374616e64696e670000000000000000000000000000000000000000600082015250565b7f416464726573733a2063616c6c20746f206e6f6e2d636f6e7472616374000000600082015250565b7f5361666545524332303a204552433230206f7065726174696f6e20646964206e60008201527f6f74207375636365656400000000000000000000000000000000000000000000602082015250565b6128a081612522565b81146128ab57600080fd5b50565b6128b781612534565b81146128c257600080fd5b50565b6128ce81612546565b81146128d957600080fd5b50565b6128e581612552565b81146128f057600080fd5b50565b6128fc81612584565b811461290757600080fd5b5056fea2646970667358221220fb40ef04ef375d966d1e52724d76ddd33de01d3a888ec8c9644979f5ee6ef5e464736f6c63430008060033",
  "linkReferences": {},
  "deployedLinkReferences": {}
}