{
  "_format": "hh-sol-artifact-1",
  "contractName": "VarenRouter",
  "sourceName": "contracts/VarenRouter.sol",
  "abi": [
    {
      "inputs": [
        {
          "internalType": "address",
          "name": "_router",
          "type": "address"
        },
        {
          "internalType": "address",
          "name": "_registry",
          "type": "address"
        },
        {
          "internalType": "address payable",
          "name": "_devWallet",
          "type": "address"
        }
      ],
      "stateMutability": "nonpayable",
      "type": "constructor"
    },
    {
      "anonymous": false,
      "inputs": [
        {
          "indexed": true,
          "internalType": "address",
          "name": "sender",
          "type": "address"
        },
        {
          "indexed": false,
          "internalType": "uint256",
          "name": "amount",
          "type": "uint256"
        }
      ],
      "name": "Burn",
      "type": "event"
    },
    {
      "anonymous": false,
      "inputs": [
        {
          "indexed": true,
          "internalType": "address",
          "name": "sender",
          "type": "address"
        },
        {
          "indexed": false,
          "internalType": "uint256",
          "name": "amount",
          "type": "uint256"
        }
      ],
      "name": "Mint",
      "type": "event"
    },
    {
      "anonymous": false,
      "inputs": [
        {
          "indexed": true,
          "internalType": "address",
          "name": "sender",
          "type": "address"
        },
        {
          "indexed": true,
          "internalType": "address",
          "name": "from",
          "type": "address"
        },
        {
          "indexed": true,
          "internalType": "address",
          "name": "to",
          "type": "address"
        },
        {
          "indexed": false,
          "internalType": "uint256",
          "name": "amount",
          "type": "uint256"
        }
      ],
      "name": "Swap",
      "type": "event"
    },
    {
      "inputs": [],
      "name": "ETH_REPRESENTING_ADDRESS",
      "outputs": [
        {
          "internalType": "address",
          "name": "",
          "type": "address"
        }
      ],
      "stateMutability": "view",
      "type": "function"
    },
    {
      "inputs": [],
      "name": "FEE",
      "outputs": [
        {
          "internalType": "uint256",
          "name": "",
          "type": "uint256"
        }
      ],
      "stateMutability": "view",
      "type": "function"
    },
    {
      "inputs": [],
      "name": "PERCENTAGE_DIVIDER",
      "outputs": [
        {
          "internalType": "uint256",
          "name": "",
          "type": "uint256"
        }
      ],
      "stateMutability": "view",
      "type": "function"
    },
    {
      "inputs": [
        {
          "internalType": "address",
          "name": "_token",
          "type": "address"
        }
      ],
      "name": "currentBalance",
      "outputs": [
        {
          "internalType": "uint256",
          "name": "balance",
          "type": "uint256"
        }
      ],
      "stateMutability": "view",
      "type": "function"
    },
    {
      "inputs": [],
      "name": "devWallet",
      "outputs": [
        {
          "internalType": "address payable",
          "name": "",
          "type": "address"
        }
      ],
      "stateMutability": "view",
      "type": "function"
    },
    {
      "inputs": [],
      "name": "registry",
      "outputs": [
        {
          "internalType": "contract IGatewayRegistry",
          "name": "",
          "type": "address"
        }
      ],
      "stateMutability": "view",
      "type": "function"
    },
    {
      "inputs": [],
      "name": "router",
      "outputs": [
        {
          "internalType": "address",
          "name": "",
          "type": "address"
        }
      ],
      "stateMutability": "view",
      "type": "function"
    },
    {
      "inputs": [
        {
          "internalType": "address",
          "name": "sender",
          "type": "address"
        },
        {
          "internalType": "address",
          "name": "mintToken",
          "type": "address"
        },
        {
          "internalType": "address",
          "name": "burnToken",
          "type": "address"
        },
        {
          "internalType": "uint256",
          "name": "burnAmount",
          "type": "uint256"
        },
        {
          "internalType": "bytes",
          "name": "burnSendTo",
          "type": "bytes"
        },
        {
          "components": [
            {
              "internalType": "address",
              "name": "srcToken",
              "type": "address"
            },
            {
              "internalType": "uint256",
              "name": "srcAmount",
              "type": "uint256"
            },
            {
              "internalType": "address",
              "name": "destToken",
              "type": "address"
            },
            {
              "internalType": "bytes",
              "name": "data",
              "type": "bytes"
            }
          ],
          "internalType": "struct VarenRouter.SwapVars",
          "name": "swapVars",
          "type": "tuple"
        },
        {
          "internalType": "uint256",
          "name": "_amount",
          "type": "uint256"
        },
        {
          "internalType": "bytes32",
          "name": "_nHash",
          "type": "bytes32"
        },
        {
          "internalType": "bytes",
          "name": "_sig",
          "type": "bytes"
        }
      ],
      "name": "swap",
      "outputs": [],
      "stateMutability": "payable",
      "type": "function"
    },
    {
      "stateMutability": "payable",
      "type": "receive"
    }
  ],
  "bytecode": "0x608060405260326001553480156200001657600080fd5b50604051620026533803806200265383398181016040528101906200003c91906200013e565b600160008190555082600360006101000a81548173ffffffffffffffffffffffffffffffffffffffff021916908373ffffffffffffffffffffffffffffffffffffffff16021790555081600260006101000a81548173ffffffffffffffffffffffffffffffffffffffff021916908373ffffffffffffffffffffffffffffffffffffffff16021790555080600460006101000a81548173ffffffffffffffffffffffffffffffffffffffff021916908373ffffffffffffffffffffffffffffffffffffffff1602179055505050506200021b565b6000815190506200012181620001e7565b92915050565b600081519050620001388162000201565b92915050565b6000806000606084860312156200015a5762000159620001e2565b5b60006200016a8682870162000110565b93505060206200017d8682870162000110565b9250506040620001908682870162000127565b9150509250925092565b6000620001a782620001c2565b9050919050565b6000620001bb82620001c2565b9050919050565b600073ffffffffffffffffffffffffffffffffffffffff82169050919050565b600080fd5b620001f2816200019a565b8114620001fe57600080fd5b50565b6200020c81620001ae565b81146200021857600080fd5b50565b612428806200022b6000396000f3fe60806040526004361061007f5760003560e01c8063bb60aaa71161004e578063bb60aaa714610149578063c57981b514610174578063d4142b5f1461019f578063f887ea40146101bb57610086565b806306693fec1461008b5780637b103999146100b65780638ea5220f146100e15780639e546c381461010c57610086565b3661008657005b600080fd5b34801561009757600080fd5b506100a06101e6565b6040516100ad9190611b85565b60405180910390f35b3480156100c257600080fd5b506100cb6101fe565b6040516100d89190611ceb565b60405180910390f35b3480156100ed57600080fd5b506100f6610224565b6040516101039190611ba0565b60405180910390f35b34801561011857600080fd5b50610133600480360381019061012e9190611796565b61024a565b6040516101409190611de8565b60405180910390f35b34801561015557600080fd5b5061015e6102dc565b60405161016b9190611de8565b60405180910390f35b34801561018057600080fd5b506101896102e3565b6040516101969190611de8565b60405180910390f35b6101b960048036038101906101b491906117c3565b6102e9565b005b3480156101c757600080fd5b506101d0610602565b6040516101dd9190611b85565b60405180910390f35b73eeeeeeeeeeeeeeeeeeeeeeeeeeeeeeeeeeeeeeee81565b600260009054906101000a900473ffffffffffffffffffffffffffffffffffffffff1681565b600460009054906101000a900473ffffffffffffffffffffffffffffffffffffffff1681565b60008173ffffffffffffffffffffffffffffffffffffffff166370a08231306040518263ffffffff1660e01b81526004016102859190611b85565b60206040518083038186803b15801561029d57600080fd5b505afa1580156102b1573d6000803e3d6000fd5b505050506040513d601f19601f820116820180604052508101906102d59190611945565b9050919050565b620186a081565b60015481565b6002600054141561032f576040517f08c379a000000000000000000000000000000000000000000000000000000000815260040161032690611dc8565b60405180910390fd5b60026000819055508a73ffffffffffffffffffffffffffffffffffffffff163373ffffffffffffffffffffffffffffffffffffffff16146103a5576040517f08c379a000000000000000000000000000000000000000000000000000000000815260040161039c90611d48565b60405180910390fd5b8973ffffffffffffffffffffffffffffffffffffffff168973ffffffffffffffffffffffffffffffffffffffff1614158061040c5750600073ffffffffffffffffffffffffffffffffffffffff168a73ffffffffffffffffffffffffffffffffffffffff16145b61044b576040517f08c379a000000000000000000000000000000000000000000000000000000000815260040161044290611d68565b60405180910390fd5b610453611585565b600073ffffffffffffffffffffffffffffffffffffffff168b73ffffffffffffffffffffffffffffffffffffffff161461049f576104958b8d87878787610628565b8160000181815250505b60008680606001906104b19190611e03565b905011156104db576104d18b876104c79061206a565b83600001516108ee565b8160200181815250505b600073ffffffffffffffffffffffffffffffffffffffff168a73ffffffffffffffffffffffffffffffffffffffff1614156105325761052d8160200151876105229061206a565b83600001518e610d9e565b6105ec565b6105eb816020015160405180608001604052808c81526020018d73ffffffffffffffffffffffffffffffffffffffff1681526020018b8b8080601f016020809104026020016040519081016040528093929190818152602001838380828437600081840152601f19601f820116905080830192505050505050508152602001600073ffffffffffffffffffffffffffffffffffffffff168f73ffffffffffffffffffffffffffffffffffffffff16141515815250610e72565b5b5060016000819055505050505050505050505050565b600360009054906101000a900473ffffffffffffffffffffffffffffffffffffffff1681565b6000806106348861024a565b90506000876040516020016106499190611b85565b604051602081830303815290604052805190602001209050600260009054906101000a900473ffffffffffffffffffffffffffffffffffffffff1673ffffffffffffffffffffffffffffffffffffffff16631b95e3058a6040518263ffffffff1660e01b81526004016106bc9190611b85565b60206040518083038186803b1580156106d457600080fd5b505afa1580156106e8573d6000803e3d6000fd5b505050506040513d601f19601f8201168201806040525081019061070c9190611918565b73ffffffffffffffffffffffffffffffffffffffff1663159ab14d82898989896040518663ffffffff1660e01b815260040161074c959493929190611c6d565b602060405180830381600087803b15801561076657600080fd5b505af115801561077a573d6000803e3d6000fd5b505050506040513d601f19601f8201168201806040525081019061079e9190611945565b50816107a98a61024a565b6107b39190611f8a565b92506000620186a0600154856107c99190611f30565b6107d39190611eff565b905080846107e19190611f8a565b93508973ffffffffffffffffffffffffffffffffffffffff1663a9059cbb600460009054906101000a900473ffffffffffffffffffffffffffffffffffffffff16836040518363ffffffff1660e01b8152600401610840929190611bbb565b602060405180830381600087803b15801561085a57600080fd5b505af115801561086e573d6000803e3d6000fd5b505050506040513d601f19601f8201168201806040525081019061089291906118eb565b508873ffffffffffffffffffffffffffffffffffffffff167f0f6798a560793a54c3bcfe86a93cde1e73087d944c0ea20544137d4121396885856040516108d99190611de8565b60405180910390a25050509695505050505050565b60008073ffffffffffffffffffffffffffffffffffffffff168473ffffffffffffffffffffffffffffffffffffffff1614156109a65773eeeeeeeeeeeeeeeeeeeeeeeeeeeeeeeeeeeeeeee73ffffffffffffffffffffffffffffffffffffffff16836000015173ffffffffffffffffffffffffffffffffffffffff16146109a5576109a433308560200151866000015173ffffffffffffffffffffffffffffffffffffffff16611145909392919063ffffffff16565b5b5b600073eeeeeeeeeeeeeeeeeeeeeeeeeeeeeeeeeeeeeeee73ffffffffffffffffffffffffffffffffffffffff16846040015173ffffffffffffffffffffffffffffffffffffffff1614156109fa5747610a08565b610a07846040015161024a565b5b905073eeeeeeeeeeeeeeeeeeeeeeeeeeeeeeeeeeeeeeee73ffffffffffffffffffffffffffffffffffffffff16846000015173ffffffffffffffffffffffffffffffffffffffff1614610c1c578360200151846000015173ffffffffffffffffffffffffffffffffffffffff1663dd62ed3e30600360009054906101000a900473ffffffffffffffffffffffffffffffffffffffff166040518363ffffffff1660e01b8152600401610abb929190611be4565b60206040518083038186803b158015610ad357600080fd5b505afa158015610ae7573d6000803e3d6000fd5b505050506040513d601f19601f82011682018060405250810190610b0b9190611945565b1015610be657836000015173ffffffffffffffffffffffffffffffffffffffff1663095ea7b3600360009054906101000a900473ffffffffffffffffffffffffffffffffffffffff167fffffffffffffffffffffffffffffffffffffffffffffffffffffffffffffffff6040518363ffffffff1660e01b8152600401610b92929190611c44565b602060405180830381600087803b158015610bac57600080fd5b505af1158015610bc0573d6000803e3d6000fd5b505050506040513d601f19601f82011682018060405250810190610be491906118eb565b505b610c16600360009054906101000a900473ffffffffffffffffffffffffffffffffffffffff1685606001516111ce565b50610c4f565b610c4d600360009054906101000a900473ffffffffffffffffffffffffffffffffffffffff16856060015134611218565b505b73eeeeeeeeeeeeeeeeeeeeeeeeeeeeeeeeeeeeeeee73ffffffffffffffffffffffffffffffffffffffff16846040015173ffffffffffffffffffffffffffffffffffffffff161415610cac578047610ca79190611f8a565b610cc5565b80610cba856040015161024a565b610cc49190611f8a565b5b91508360200151831115610d1257610d1130856020015185610ce79190611f8a565b866000015173ffffffffffffffffffffffffffffffffffffffff166112479092919063ffffffff16565b5b836040015173ffffffffffffffffffffffffffffffffffffffff16846000015173ffffffffffffffffffffffffffffffffffffffff163373ffffffffffffffffffffffffffffffffffffffff167fffebebfb273923089a3ed6bac0fd4686ac740307859becadeb82f998e30db61485604051610d8e9190611de8565b60405180910390a4509392505050565b6000841115610e365773eeeeeeeeeeeeeeeeeeeeeeeeeeeeeeeeeeeeeeee73ffffffffffffffffffffffffffffffffffffffff16836040015173ffffffffffffffffffffffffffffffffffffffff1614610e2657610e213385856040015173ffffffffffffffffffffffffffffffffffffffff166112479092919063ffffffff16565b610e31565b610e3033856112cd565b5b610e6c565b6000821115610e6b57610e6a33838373ffffffffffffffffffffffffffffffffffffffff166112479092919063ffffffff16565b5b5b50505050565b6000808311610e85578160000151610e87565b825b90506000831415610ec457610ec3333083856020015173ffffffffffffffffffffffffffffffffffffffff16611145909392919063ffffffff16565b5b816060015115610fb2576000620186a060015483610ee29190611f30565b610eec9190611eff565b90508082610efa9190611f8a565b9150826020015173ffffffffffffffffffffffffffffffffffffffff1663a9059cbb600460009054906101000a900473ffffffffffffffffffffffffffffffffffffffff16836040518363ffffffff1660e01b8152600401610f5d929190611bbb565b602060405180830381600087803b158015610f7757600080fd5b505af1158015610f8b573d6000803e3d6000fd5b505050506040513d601f19601f82011682018060405250810190610faf91906118eb565b50505b600260009054906101000a900473ffffffffffffffffffffffffffffffffffffffff1673ffffffffffffffffffffffffffffffffffffffff16631b95e30583602001516040518263ffffffff1660e01b81526004016110119190611b85565b60206040518083038186803b15801561102957600080fd5b505afa15801561103d573d6000803e3d6000fd5b505050506040513d601f19601f820116820180604052508101906110619190611918565b73ffffffffffffffffffffffffffffffffffffffff166338463cff8360400151836040518363ffffffff1660e01b815260040161109f929190611cbb565b602060405180830381600087803b1580156110b957600080fd5b505af11580156110cd573d6000803e3d6000fd5b505050506040513d601f19601f820116820180604052508101906110f19190611945565b503373ffffffffffffffffffffffffffffffffffffffff167fcc16f5dbb4873280815c1ee09dbd06736cffcc184412cf7a71a0fdb75d397ca5826040516111389190611de8565b60405180910390a2505050565b6111c8846323b872dd60e01b85858560405160240161116693929190611c0d565b604051602081830303815290604052907bffffffffffffffffffffffffffffffffffffffffffffffffffffffff19166020820180517bffffffffffffffffffffffffffffffffffffffffffffffffffffffff8381831617835250505050611318565b50505050565b606061121083836040518060400160405280601e81526020017f416464726573733a206c6f772d6c6576656c2063616c6c206661696c656400008152506113df565b905092915050565b606061123e8484846040518060600160405280602981526020016123ca602991396113f7565b90509392505050565b6112c88363a9059cbb60e01b8484604051602401611266929190611c44565b604051602081830303815290604052907bffffffffffffffffffffffffffffffffffffffffffffffffffffffff19166020820180517bffffffffffffffffffffffffffffffffffffffffffffffffffffffff8381831617835250505050611318565b505050565b8173ffffffffffffffffffffffffffffffffffffffff166108fc829081150290604051600060405180830381858888f19350505050158015611313573d6000803e3d6000fd5b505050565b600061137a826040518060400160405280602081526020017f5361666545524332303a206c6f772d6c6576656c2063616c6c206661696c65648152508573ffffffffffffffffffffffffffffffffffffffff166113df9092919063ffffffff16565b90506000815111156113da578080602001905181019061139a91906118eb565b6113d9576040517f08c379a00000000000000000000000000000000000000000000000000000000081526004016113d090611da8565b60405180910390fd5b5b505050565b60606113ee84846000856113f7565b90509392505050565b60608247101561143c576040517f08c379a000000000000000000000000000000000000000000000000000000000815260040161143390611d28565b60405180910390fd5b6114458561150b565b611484576040517f08c379a000000000000000000000000000000000000000000000000000000000815260040161147b90611d88565b60405180910390fd5b6000808673ffffffffffffffffffffffffffffffffffffffff1685876040516114ad9190611b6e565b60006040518083038185875af1925050503d80600081146114ea576040519150601f19603f3d011682016040523d82523d6000602084013e6114ef565b606091505b50915091506114ff82828661151e565b92505050949350505050565b600080823b905060008111915050919050565b6060831561152e5782905061157e565b6000835111156115415782518084602001fd5b816040517f08c379a00000000000000000000000000000000000000000000000000000000081526004016115759190611d06565b60405180910390fd5b9392505050565b604051806040016040528060008152602001600081525090565b60006115b26115ad84611e8b565b611e66565b9050828152602081018484840111156115ce576115cd6121ce565b5b6115d98482856120a1565b509392505050565b6000813590506115f081612356565b92915050565b6000815190506116058161236d565b92915050565b60008135905061161a81612384565b92915050565b60008083601f840112611636576116356121a6565b5b8235905067ffffffffffffffff811115611653576116526121a1565b5b60208301915083600182028301111561166f5761166e6121c4565b5b9250929050565b600082601f83011261168b5761168a6121a6565b5b813561169b84826020860161159f565b91505092915050565b6000815190506116b38161239b565b92915050565b6000608082840312156116cf576116ce6121b0565b5b81905092915050565b6000608082840312156116ee576116ed6121b5565b5b6116f86080611e66565b90506000611708848285016115e1565b600083015250602061171c8482850161176c565b6020830152506040611730848285016115e1565b604083015250606082013567ffffffffffffffff811115611754576117536121bf565b5b61176084828501611676565b60608301525092915050565b60008135905061177b816123b2565b92915050565b600081519050611790816123b2565b92915050565b6000602082840312156117ac576117ab6121d8565b5b60006117ba848285016115e1565b91505092915050565b60008060008060008060008060008060006101208c8e0312156117e9576117e86121d8565b5b60006117f78e828f016115e1565b9b505060206118088e828f016115e1565b9a505060406118198e828f016115e1565b995050606061182a8e828f0161176c565b98505060808c013567ffffffffffffffff81111561184b5761184a6121d3565b5b6118578e828f01611620565b975097505060a08c013567ffffffffffffffff81111561187a576118796121d3565b5b6118868e828f016116b9565b95505060c06118978e828f0161176c565b94505060e06118a88e828f0161160b565b9350506101008c013567ffffffffffffffff8111156118ca576118c96121d3565b5b6118d68e828f01611620565b92509250509295989b509295989b9093969950565b600060208284031215611901576119006121d8565b5b600061190f848285016115f6565b91505092915050565b60006020828403121561192e5761192d6121d8565b5b600061193c848285016116a4565b91505092915050565b60006020828403121561195b5761195a6121d8565b5b600061196984828501611781565b91505092915050565b61197b81612034565b82525050565b61198a81611fd0565b82525050565b61199981611fbe565b82525050565b6119a881611fee565b82525050565b60006119ba8385611ed2565b93506119c78385846120a1565b6119d0836121dd565b840190509392505050565b60006119e682611ebc565b6119f08185611ed2565b9350611a008185602086016120b0565b611a09816121dd565b840191505092915050565b6000611a1f82611ebc565b611a298185611ee3565b9350611a398185602086016120b0565b80840191505092915050565b611a4e81612046565b82525050565b6000611a5f82611ec7565b611a698185611eee565b9350611a798185602086016120b0565b611a82816121dd565b840191505092915050565b6000611a9a602683611eee565b9150611aa5826121ee565b604082019050919050565b6000611abd601583611eee565b9150611ac88261223d565b602082019050919050565b6000611ae0602383611eee565b9150611aeb82612266565b604082019050919050565b6000611b03601d83611eee565b9150611b0e826122b5565b602082019050919050565b6000611b26602a83611eee565b9150611b31826122de565b604082019050919050565b6000611b49601f83611eee565b9150611b548261232d565b602082019050919050565b611b688161202a565b82525050565b6000611b7a8284611a14565b915081905092915050565b6000602082019050611b9a6000830184611990565b92915050565b6000602082019050611bb56000830184611981565b92915050565b6000604082019050611bd06000830185611972565b611bdd6020830184611b5f565b9392505050565b6000604082019050611bf96000830185611990565b611c066020830184611990565b9392505050565b6000606082019050611c226000830186611990565b611c2f6020830185611990565b611c3c6040830184611b5f565b949350505050565b6000604082019050611c596000830185611990565b611c666020830184611b5f565b9392505050565b6000608082019050611c82600083018861199f565b611c8f6020830187611b5f565b611c9c604083018661199f565b8181036060830152611caf8184866119ae565b90509695505050505050565b60006040820190508181036000830152611cd581856119db565b9050611ce46020830184611b5f565b9392505050565b6000602082019050611d006000830184611a45565b92915050565b60006020820190508181036000830152611d208184611a54565b905092915050565b60006020820190508181036000830152611d4181611a8d565b9050919050565b60006020820190508181036000830152611d6181611ab0565b9050919050565b60006020820190508181036000830152611d8181611ad3565b9050919050565b60006020820190508181036000830152611da181611af6565b9050919050565b60006020820190508181036000830152611dc181611b19565b9050919050565b60006020820190508181036000830152611de181611b3c565b9050919050565b6000602082019050611dfd6000830184611b5f565b92915050565b60008083356001602003843603038112611e2057611e1f6121ba565b5b80840192508235915067ffffffffffffffff821115611e4257611e416121ab565b5b602083019250600182023603831315611e5e57611e5d6121c9565b5b509250929050565b6000611e70611e81565b9050611e7c82826120e3565b919050565b6000604051905090565b600067ffffffffffffffff821115611ea657611ea5612172565b5b611eaf826121dd565b9050602081019050919050565b600081519050919050565b600081519050919050565b600082825260208201905092915050565b600081905092915050565b600082825260208201905092915050565b6000611f0a8261202a565b9150611f158361202a565b925082611f2557611f24612143565b5b828204905092915050565b6000611f3b8261202a565b9150611f468361202a565b9250817fffffffffffffffffffffffffffffffffffffffffffffffffffffffffffffffff0483118215151615611f7f57611f7e612114565b5b828202905092915050565b6000611f958261202a565b9150611fa08361202a565b925082821015611fb357611fb2612114565b5b828203905092915050565b6000611fc98261200a565b9050919050565b6000611fdb8261200a565b9050919050565b60008115159050919050565b6000819050919050565b600061200382611fbe565b9050919050565b600073ffffffffffffffffffffffffffffffffffffffff82169050919050565b6000819050919050565b600061203f8261207d565b9050919050565b600061205182612058565b9050919050565b60006120638261200a565b9050919050565b600061207636836116d8565b9050919050565b60006120888261208f565b9050919050565b600061209a8261200a565b9050919050565b82818337600083830152505050565b60005b838110156120ce5780820151818401526020810190506120b3565b838111156120dd576000848401525b50505050565b6120ec826121dd565b810181811067ffffffffffffffff8211171561210b5761210a612172565b5b80604052505050565b7f4e487b7100000000000000000000000000000000000000000000000000000000600052601160045260246000fd5b7f4e487b7100000000000000000000000000000000000000000000000000000000600052601260045260246000fd5b7f4e487b7100000000000000000000000000000000000000000000000000000000600052604160045260246000fd5b600080fd5b600080fd5b600080fd5b600080fd5b600080fd5b600080fd5b600080fd5b600080fd5b600080fd5b600080fd5b600080fd5b600080fd5b6000601f19601f8301169050919050565b7f416464726573733a20696e73756666696369656e742062616c616e636520666f60008201527f722063616c6c0000000000000000000000000000000000000000000000000000602082015250565b7f5468652063616c6c657220697320756e6b6e6f776e0000000000000000000000600082015250565b7f43616e6e6f74206d696e7420616e64206275726e207468652073616d6520746f60008201527f6b656e0000000000000000000000000000000000000000000000000000000000602082015250565b7f416464726573733a2063616c6c20746f206e6f6e2d636f6e7472616374000000600082015250565b7f5361666545524332303a204552433230206f7065726174696f6e20646964206e60008201527f6f74207375636365656400000000000000000000000000000000000000000000602082015250565b7f5265656e7472616e637947756172643a207265656e7472616e742063616c6c00600082015250565b61235f81611fbe565b811461236a57600080fd5b50565b61237681611fe2565b811461238157600080fd5b50565b61238d81611fee565b811461239857600080fd5b50565b6123a481611ff8565b81146123af57600080fd5b50565b6123bb8161202a565b81146123c657600080fd5b5056fe416464726573733a206c6f772d6c6576656c2063616c6c20776974682076616c7565206661696c6564a26469706673582212200049ed6d4b5c8342c0dce9a4e51cf44846129e6eddc9064172e11e08cdda300264736f6c63430008060033",
  "linkReferences": {},
  "deployedLinkReferences": {}
}